:0E0000000C9408010C9400000C9400000C9469
:10000E0000000C9400000C9400000C9400000C9462
:10001E0000000C9400000C9400000C9400000C9452
:10002E0000000C9400000C9400000C9400000C9442
:10003E0000000C9400000C9400000C9400000C9432
:10004E0000000C9400000C9400000C9400000C9422
:10005E0000000C9400000C9400000C9400000C9412
:10006E0000000C9400000C9400000C9400000C9402
:10007E0000000C9400000C9400000C9400000C94F2
:10008E0000000C9400000C9400000C9400000C94E2
:10009E0000000C9400000C9400000C9400000C94D2
:1000AE0000000C9400000C9400000C9400000C94C2
:1000BE0000000C9400000C9400000C9400000C94B2
:1000CE0000000C9400000C9400000C9400000C94A2
:1000DE0000000C9400000C9400000C9400000C9492
:1000EE0000000C9400000C9400000C9400000C9482
:1000FE0000000C9400000C9400000C9487070C94E4
:10010E0000000C9400000C9400000C9400000C9461
:10011E0000000C9400000C9400000C9400000C9451
:10012E0000000C9400000C9400000C9400000C9441
:10013E0000000C9400000C9400000C9400000C9431
:10014E0000000C9400000C948C070C9400000C948E
:10015E0000000C9400000C9400000C9400000C9411
:10016E0000000C9400000C9400000C9400000C9401
:10017E0000000C9400000C9400000C9400000C94F1
:10018E0000000C9400000C9400000C9400000C94E1
:10019E0000000C9400000C9400000C9400000C94D1
:1001AE0000000C9400000C9400000C9400000C94C1
:1001BE0000000C9400000C9400000C9400000C94B1
:1001CE0000000C9400000C9400000C9400000C94A1
:1001DE0000000C9400000C9400000C9400000C9491
:1001EE0000000C9400000C9400000C940000010020
:1001FE002D4E414E00494E46000001003D24FC01AB
:10020E000000F894EE27E8BFE9BFEABFF091CC01F9
:10021E00F860F093CC01F8EDF4BFE093A200A0914A
:10022E008000AD7FA160F4BFA093800080E090E1DC
:10023E00A0E0B0E2ED930197E9F7E8E0F2E08591F6
:10024E009591009761F0A591B59105901590BF011C
:10025E00F00105900D920197E1F7FB01F0CF8BBFF6
:10026E00E0E0E0B9E1B9E2B9E3B9E4B9E5B9E6B97C
:10027E00E7B9E8B9E9B9EAB9EBB9ECB9EDB9EEB954
:10028E00EFB92E2E3E2E4E2E5E2E6E2E7E2E8E2EE4
:10029E009E2EAE2EBE2ECE2EDE2EEFEFEDBFEFE259
:1002AE00EEBFC0E0D4E20C9487080000000000000E
:1002BE0000000000E0E0E0934406EFE3E093400628
:1002CE00E0E4E0935006E0935106E0935206E0938B
:1002DE005306E0935406E0935506E0E0E09344069F
:1002EE00E8EBE0935606E0935706E7E8E0935200FA
:1002FE00E8E0E0935000E0915100E870E1F3E8EDA2
:10030E00E4BFE2ECE0935500E8E1E0935000E091A9
:10031E005100E071E1F3E8EDE4BFE4E0E09340006A
:10032E00EDE5E0937000E7E0E0937100E3E0E09329
:10033E007200ECE7E0937300E0937400EFE7E09354
:10034E007500E8EBE0931406E0931506E0931606AD
:10035E00E0931706E3E0E0930906E0EEE0930A0669
:10036E00EFE0E0932006E4E1E0936406E1E9E09338
:10037E006006E8E1E0937206E0937306E09375067B
:10038E00E8EBE0939006E0939106E0939206E093FB
:10039E009306E9E6E0938001E7E0E0938801E1E06F
:1003AE00E0930009E0E0FDE7E0932609F0932709CA
:1003BE00E8ECE09343090E944A0AE3E0E093470920
:1003CE00E0E0E0932103E0932203E7E0E0932003D3
:1003DE00EFEFF0E0E0932608F0932708E3E0E093D8
:1003EE000008E09301080E94510A0E94580AE0E0BA
:1003FE00E0938608E7E3E0938008EFE3E0938C0850
:10040E00A4E8B8E00A2EAC91E0918408E470EA2BDF
:10041E00A02DEC930E945F0A0E94510A2224E8ED5F
:10042E00E4BFE3E1E0938000E1E0E0938100F89423
:10043E00E7E8E093A200E8E0E093CC017894089519
:10044E0062970E94D90D0E94670AEA87FB87A2E590
:10045E00B0E00E948E0DE887F9870E946C0AEE8349
:10046E00FF830E946C0A0F010E94670A0E161F0678
:10047E00D8F40E946C0AEA87FB870E94670AEE8313
:10048E00FF830E94670ABF01A2E5B0E00E948E0DB5
:10049E000F010E946C0ADF01F001EA1BFB0BDB016E
:1004AE00AE1BBF0BA887B987E8E4FDE0E0933324C9
:1004BE00F0933424E8E9F1E2E0933524F093362406
:1004CE00A0E3B0E00E948E0DE0933724F093382421
:1004DE00A885B985EE81FF810E94710ADF01CB01EB
:1004EE00EAE00E94B20C7F936F93FF93EF93AA857D
:1004FE00BB85EE81FF81EA1BFB0BAF91BF918F9104
:10050E009F910E94760AEE8BFF8B0E947B0A0F0151
:10051E00A6E5B0E00E948E0DD001AE1BBF0B8D0183
:10052E00D8010E94EA0CEAE00E94B20CDF01CB0176
:10053E00EE89FF89662777270E94510D9F010E9441
:10054E007B0AE21BF30BEC8BFD8B0E946C0A0F01F6
:10055E000E94670AD001AE1BBF0BAD01A0E4B0E054
:10056E000E94990DF0E00E94E50C0E94240CA0E080
:10057E00B0E08AE792E40E94520CA5E1B4E20E9438
:10058E00EB0B0E946E0DA2E2B0E00E94990DE0937B
:10059E001A24AAE5B0E00E948E0DE030A0E1FA0721
:1005AE0030F0AAE5B0E0EFEFFFE00E94A20D0E944E
:1005BE00800AE030A0E1FA0730F0ACE5B0E0EFEFF2
:1005CE00FFE00E94A20D0E94800A0F01AAE5B0E092
:1005DE000E948E0DDF01F0010E94710AE88BF98BEB
:1005EE006A8B7B8B022E032A11F421E030E0A8895E
:1005FE00B9898A899B89EAE00E94B20CDF01CB019E
:10060E00F9010E94760AE0932324F0932424609348
:10061E002524709326240E94800AFF93EF930E9454
:10062E007B0A0E94850A0E948E0AAF91BF9188278D
:10063E0099270E94A50CA0932724B0932824809379
:10064E00292490932A240E947B0AAC89BD890E949A
:10065E00710AEC87FD876E877F87042E052A11F4B9
:10066E0041E050E0AC85BD858E859F85EAE00E9415
:10067E00B20CDF01CB01FA010E94760AE0932B2423
:10068E00F0932C2460932D2470932E240E947B0AC9
:10069E00FF93EF930E946C0A0E94980A0E948E0AA2
:1006AE00AF91BF91882799270E94A50CA0932F2464
:1006BE00B093302480933124909332240E94E00D25
:1006CE00689608951A93F894E0910806E07E1E2F1E
:1006DE00222009F49BC0E3E0E0938408552009F43E
:1006EE0049C0E12FF0E0E032A0E0FA0739F40E94B1
:1006FE005F0AE1E0E0938A08E8E039C0E034A0E068
:10070E00FA0739F40E945F0AE4E0E0938A08E0E217
:10071E002EC0E036A0E0FA0739F40E945F0AE1E04D
:10072E00E0938A08E0E223C0E038A0E0FA0739F44B
:10073E000E945F0AE0E1E0938A08E2E018C0E03A26
:10074E00A0E0FA0739F40E945F0AE0E1E0938A081C
:10075E00E8E00DC0E03CA0E0FA0739F40E945F0A21
:10076E00E4E0E0938A08E2E002C00E94A10AE0936E
:10077E008B0848C0E12FF0E0E032A0E0FA0739F430
:10078E000E945F0AE4E0E0938A08E2E039C0E034B8
:10079E00A0E0FA0739F40E945F0AE0E1E0938A08CC
:1007AE00E8E02EC0E036A0E0FA0739F40E945F0AB6
:1007BE00E0E1E0938A08E2E023C0E038A0E0FA0727
:1007CE0039F40E945F0AE1E0E0938A08E0E218C083
:1007DE00E03AA0E0FA0739F40E945F0AE4E0E09301
:1007EE008A08E0E20DC0E03CA0E0FA0739F40E946E
:1007FE005F0AE1E0E0938A08E8E002C00E94A10AE5
:10080E00E0938B08E0E0E093840804C00E945F0A46
:10081E000E94510A1991089524970E94DB0DA09110
:10082E000724B0910824E0910B24F0910C24EA1BCC
:10083E00FB0B8F01D8010E94400A0F010E94A70AEC
:10084E00D001F0E0EA17FB0718F000E010E00FC04F
:10085E0000240016010634F40E94A70AF0E00E1BD5
:10086E001F0B05C00E94A70AF0E00E0F1F1FA091DC
:10087E000D24B0910E24F801EA1BFB0B9F0100938F
:10088E000D2410930E24F8010E94E50C7F936F93B4
:10089E00FF93EF93A1E2B0E00E94990DF0E0AF91CB
:1008AE00BF918F919F910E94E50C0E94AC0AE4E0EB
:1008BE000E94BE0C7F936F93FF93EF93F9010E94FA
:1008CE00E50C7F936F93FF93EF93A0E2B0E00E944D
:1008DE00990DF0E0AF91BF918F919F910E94E50C21
:1008EE000E94140D0E94D60CAF91BF918F919F91D3
:1008FE000E94B10AAF81AA231AF4E1E05E2E01C074
:10090E005524AC81BD810E94400A66277727EC836F
:10091E00FD836E837F83A3E2B0E00E94990DF0E029
:10092E000E94B80A0E94E50C0E94B10AE0911A24B6
:10093E000E94BD0A2CF0E0E0EC83ED83EE83EF83A2
:10094E00A4E2B0E00E94990D0E94BD0A2CF4A4E22C
:10095E00B0E00E94990D01C0EC81E0931924AFE242
:10096E00B0E00E94990DA0911924EA1708F055C025
:10097E00E0911524F091162460911724709118249B
:10098E00A0910324B0910424809105249091062413
:10099E000E94D40DB8F5E0910F24F09110243097F9
:1009AE0071F40E94C40AE0930F24F0931024E09196
:1009BE000B24F0910C24E0931124F0931224A091B7
:1009CE001124B0911224109769F0A0910B24B091CC
:1009DE000C24E0911124F09112240E94C90AE01512
:1009EE00F10508F001C02CD00E94D70A0E161F0682
:1009FE0038F4AFE2B0E00E94990DE093192401C0E3
:100A0E001FD00AC0A3E0B4E20E94690DEF5FFF4F52
:100A1E006F4F7F4F0E94730D06C00E94D70AE015DC
:100A2E00F10508F40DD0E0911924A8E2B8E0F0E049
:100A3E00ED93FC9347DE78940E94E20D0C94AB0983
:100A4E00E0E0E0930324E0930424E0930524E09394
:100A5E000624E0930F24E0931024E0931124E093F6
:100A6E00122408950E94DB0D20E00E94DD0A0E94F0
:100A7E00E40A0E94EB0A0E94F00A0E94F60A0E9403
:100A8E00040B21F4A091D5000A1709F021E00E9471
:100A9E00DD0AE4E4F1E10E940A0B0E940F0B0E94B2
:100AAE00F60A0E94040B21F4A091D5000A1709F052
:100ABE002E5F0E94E40AE4E4F1E10E94110BE22FA2
:100ACE00F0E0E130A0E0FA0769F40E94160BEC9119
:100ADE00E0931B2410E0143020F40E941B0B1F5FC8
:100AEE00FACF16C0E230A0E0FA0769F40E94EB0AD2
:100AFE00EC91E0931B2410E0143020F40E942E0B96
:100B0E001F5FFACF05C0E330A0E0FA0709F4B8D1B1
:100B1E0020E00E94DD0AE0911B24EC713E2F0E9422
:100B2E00410B0E94460B0E94460B0E940F0B0E9427
:100B3E00040B21F4A091D5000A1709F021E00E94C0
:100B4E00DD0AE32FF0E0E05EFE4E0E940A0B0E94EB
:100B5E00460B0E94460B0E940F0B0E94040B21F4C1
:100B6E00A091D5000A1709F02E5F0E94410BE32FCA
:100B7E00F0E0E05EFE4E0E94110BE22FF0E0E1305D
:100B8E00A0E0FA0741F410E0143020F40E941B0B91
:100B9E001F5FFACF11C0E230A0E0FA0741F410E077
:100BAE00143020F40E942E0B1F5FFACF05C0E330E5
:100BBE00A0E0FA0709F464D10E94E20D0C943B0800
:100BCE000E94DB0DE0911B24EC710E2FE02FF0E064
:100BDE00E050FF4E9F01F40131964F013197EC37F3
:100BEE00A2E9FA0708F0DDC0F401E436A0E0FA0746
:100BFE0091F4E0912224E03069F00E94DD0AE09148
:100C0E001B24E093D300E0E0E093D300E0E4F1E1B5
:100C1E000E944F0BC5C0EE36A0E0FA0749F4E091F2
:100C2E002224E03021F0E2E4F1E10E94570BB8C03B
:100C3E00E837A0E0FA0749F4E0912224E03021F0F1
:100C4E00E3E4F1E10E945F0BABC0E238A0E0FA07EB
:100C5E0049F4E0912224E03021F0E4E4F1E10E9435
:100C6E004F0B9EC0EC38A0E0FA0749F4E091222425
:100C7E00E03021F0E6E4F1E10E94570B91C0E63935
:100C8E00A0E0FA0761F4E0912224E03039F0E7E4C5
:100C9E00F1E10E945F0BE0E0E093222481C0E03A94
:100CAE00A0E0FA0771F40E94DD0A0E94670BE09142
:100CBE001C24F0911D2431960E946C0B0E94710B26
:100CCE006FC0EA3AA0E0FA0749F42F5F3F4F0E9447
:100CDE00670BE0911D240E94710B62C0E43BA0E003
:100CEE00FA0729F42E5F3F4F0E947B0B59C0EE3B53
:100CFE00A0E0FA0729F42D5F3F4F0E94830B50C0EE
:100D0E00E83CA0E0FA0781F4205E3F4F0E94DD0A26
:100D1E000E94670B10911C243A932A931A93A1E018
:100D2E0046D01093D3003CC0E23DA0E0FA0749F450
:100D3E002F5D3F4F0E94670BE0911D240E94710BA7
:100D4E002FC0EC3DA0E0FA0729F42E5D3F4F0E9424
:100D5E007B0B26C0E63EA0E0FA0729F42D5D3F4F3F
:100D6E000E94830B1DC0E03FA0E0FA0711F450D0A3
:100D7E0017C0EA3FA0E0FA0799F40E948B0BA0334C
:100D8E00E5E7BE0768F0E0911B24EC5FE0931B24BF
:100D9E00E0E0E0931C24E0931D24E1E0E0932224A4
:100DAE0002C0882499240E94E20D0C943B08AA9359
:100DBE00F894E091CF01E078E03829F4E881E03052
:100DCE0009F080DCF6CFE981AA81BB81EC93E5E3E3
:100DDE00E093CA01EA81E093C001EB81E093C10187
:100DEE00E0E0E093C201E8EDE4BFE1E0E093CB0187
:100DFE00E091CF01E078E03829F4E881E03009F0A5
:100E0E0061DCF6CFE0E0E093CA0178940C943B08E5
:100E1E00E0911B24F0E0EC71F070E050FF4E0E9468
:100E2E000A0B0E94EB0AED91A0933924B0933A2459
:100E3E00F0E00E946C0B0E94EB0AEC91FE2FE0E0BA
:100E4E000E948B0BEA0FFB1F0E946C0BE0911B2480
:100E5E00F0E00E94E50CACE4BDE180E090E00E9481
:100E6E00140D0E948B0B882799270E94A00CE093EB
:100E7E001E24F0931F246093202470932124089540
:100E8E001A93E0E0F1E10E940A0BF8940E945F0AC7
:100E9E0010E0183480F4E0913924F0913A24319620
:100EAE000E940A0B3197FA93EA93E0E00E94900BAE
:100EBE00A8951F5FEECFE2E4F1E1FA93EA93EFE03B
:100ECE000E94900BE3E4F1E1FA93EA93EDE10E94C4
:100EDE00900BE6E4F1E10E940A0BE6E4F1E1FA93ED
:100EEE00EA93EFE00E94900BE7E4F1E1FA93EA93C4
:100EFE00EDE10E94900BE0E0E0931B240C941F0A9E
:100F0E000E94940BDFDB789411C00E94940BA09189
:100F1E006809B0916909E5E0F0E00E94190D3F0102
:100F2E000E944A0AE1E03E2E0E94FB08E991EFBFC3
:100F3E00F991E991B991A9919991899179916991D3
:100F4E00F9901990099018950E94D90D20E030E083
:100F5E0000E051E0E0E1E0936606000000000000D2
:100F6E0000000000E0E8E093660610E01C30B0F4EC
:100F7E0000000000000000000000E0E8E0936506BD
:100F8E00220F331F000000000000000000000E942E
:100F9E00A20B11F02F5F3F4F1F5FE8CF10E016300E
:100FAE00A0F400000000000000000000E0E8E09364
:100FBE006506000F000000000000000000000E9407
:100FCE00A20B09F00F5F1F5FEACFE0E8E093650622
:100FDE0020930724309308242093092430930A2465
:100FEE00E0E1E0936506E02FE8730E2FE03209F0A2
:100FFE0050E0E52F0E94E00D269608952497E0918B
:10100E000924F0910A240E94E50C0E94850A0E9490
:10101E00AC0AEAE00E94BE0CA0912724B0912824CD
:10102E008091292490912A240E94A00C0E947D0D6B
:10103E000E94780DA030E0E1BE07E0E08E07E0E010
:10104E009E0734F0EFEFFFE060E070E00E947D0D50
:10105E00AB81AA231AF4E0E00E94820DE881F981A7
:10106E00E0933803F093390324960895E0913324E6
:10107E00F09134240E94A90BAE17BF0730F4E09113
:10108E003324F09134240E94AE0BE0913524F0917C
:10109E0036240E94A90BEA17FB0730F4E0913524A1
:1010AE00F09136240E94AE0B0E94A90BA834EDE0FD
:1010BE00BE0724F4E8E4FDE00E94AE0B0E94A90BEB
:1010CE00A939E1E2BE0724F0E8E9F1E20E94AE0B95
:1010DE00E0911324F09114240E94E50C0E94980ACA
:1010EE000E94AC0AEAE00E94BE0CA0912F24B0919F
:1010FE003024EA0FFB1FE0930B24F0930C24089589
:10110E000E946101E0E7F7E10E94AE0B0E94270208
:10111E000E9439050E940F077894A895E0910C095A
:10112E00E170B9F0E1E0E0930C09E09300090A2CBC
:10113E000B2851F410D00E94AB0760DF0E941304FD
:10114E00F60131966F0103C0F50131975F010E94E0
:10115E00E705E3CFFFCF332071F13324A5E2B0E0F2
:10116E000E94990DF0E0BF010E94A90B0E94870D0D
:10117E00EA1BFB0BE615F70544F4FB010E94A90BD5
:10118E00EA0FFB1F6E167F0624F0609213247092F6
:10119E0014240E94A90BA934EDE0BE0734F00E947E
:1011AE00A90BA839E1E2BE070CF005C05FDFCC2425
:1011BE00DD24E1E02E2EADE2B0E00E94990DE2704A
:1011CE0029F0E2EEF4E0CE16DF0608F40CC0E09152
:1011DE003724F09138240E94AE0B48DFE1E02E2E2A
:1011EE00E1EDF7E06F010895E0E9F1E0E615F705AE
:1011FE002CF4E0EBF4E06E167F060CF020C03324E6
:10120E004394E4E14E16D0F0E1E7F2E05F014424AE
:10121E00F8940E94580AE0E0F0E0E0933C08F09366
:10122E003D08E0937808F09379082224E1E0E093FA
:10123E000C09E7E0E093000906D0789403C044243B
:10124E00E1E03E2E089522970E94D90D84EC99E09C
:10125E000197F1F740E050E0E0916806E27021F46A
:10126E004430E1E05E0708F003C00E94B30BF4CFF8
:10127E0010E0133038F530E000E00830E0F48CED8B
:10128E0095E00197F1F73695E0916806E27009F462
:10129E0030680E94B90B40E050E0E0916806E270C1
:1012AE0021F44233E0E05E0708F003C00E94B30B66
:1012BE00F4CF0F5FE2CFE12FF0E0E050FC4D308332
:1012CE001F5FD7CF40E050E0E0916806E270A0E0EB
:1012DE000E94EF0CE13021F44035E0E05E0708F0AB
:1012EE0003C00E94B30BF0CF80ED97E00197F1F7AA
:1012FE00E0910124A0910024AE27E0910224EA2778
:10130E0009F5E0910024E07881F0E0910024EF7778
:10131E00E0930024F0E0EE83FF83E0910124AE81A0
:10132E00BF810E94AA0D0E942702A09100240ED018
:10133E00E0930124E0910124A0910024EA27E09398
:10134E00022445D00E94E00D28960895AA931A9380
:10135E000A93AA81A23619F4E091092434C0AA8115
:10136E00A33639F4E0910924F0910A240E94DB0C93
:10137E002AC0AA81A63319F4E0911E2424C0AA81A2
:10138E00A73361F4A0911E24B0911F2480912024D4
:10139E0090912124E8E00E94CA0C15C0AA81A833BE
:1013AE0059F4E0911E24F0911F2460912024709135
:1013BE0021240E94E00C07C0EA81F0E0E050F04FDB
:1013CE008F01D801EC9119810881239608951A9303
:1013DE00E1E0E0936506E2E0E0936106E0936506E6
:1013EE0010E0173238F40E94B90BE2E0E093670682
:1013FE001F5FF7CF80E197E20197F1F7A0910024EC
:10140E0019D0A091012416D0A091022413D0E2E0AD
:10141E00E093650680ED97E00197F1F7E09366069D
:10142E000E94B90BE1E0E0936606E2E0E09362060B
:10143E0019910895AA931A9310E01830B8F4E2E0C7
:10144E00E09365060E94B90BE981E17019F0E2E0C4
:10145E00E09366060E94B90BE2E0E09366060E94F6
:10146E00B90BE981E695E9831F5FE7CF18812296D4
:10147E000895BA93AA93E991F99130971AF4E095E9
:10148E00F09531960895E0E1E0934109E1E0E093B3
:10149E0040090895E0E0F0E0E0932808F093290871
:1014AE000895E0E0F0E0E0933808F09339080895ED
:1014BE00E0E0E0934406E0938A08E0938B080895F9
:1014CE00A0E5B0E00E948E0D0895A4E5B0E00E9464
:1014DE008E0D0895EA1BFB0B0E94E50C08950E94E9
:1014EE00E50C0E94510D0895A8E5B0E00E948E0D06
:1014FE000895ACE5B0E00E948E0D0895A0912324CE
:10150E00B091242480912524909126240895662755
:10151E0077270E94140DDF01CB01EAE00E94BE0C7A
:10152E000895A0912B24B0912C2480912D2490917C
:10153E002E240895E0E0E0934406E0938A0808958F
:10154E00A6E2B0E00E94990D08950E94140DDF01ED
:10155E00CB0108950E94A00CEC83FD836E837F83E4
:10156E000895AC81BD818E819F810895FADFFF279A
:10157E00662777270E94D40D0895E0910724F091F5
:10158E0008240895EA1BFB0BDF010E94400A0F019D
:10159E00A1E4B0E00E94990DF0E0EE0FFF1F089558
:1015AE00A0910F24B0911024E8DFECCFE0ECE09393
:1015BE00D000E1E0E093D0000895E0E4F1E1E093A3
:1015CE003924F0933A240895A0913924B0913A2405
:1015DE0008951D91A0933924B0933A240895109341
:1015EE00D30010931B24F0DFED91A0933924B09318
:1015FE003A24E093D300E8DFECCFE6DF0C91A09124
:10160E00D4001A170895E0933924F0933A240895DC
:10161E00DBDFDFCFE0933B24F0933C240895A091D1
:10162E003B24B0913C240895E0913924F0913A2462
:10163E003196E9DF3197FA93EA93F1DFED91A093BA
:10164E003B24B0933C24EA93A0E00C94DE06E09198
:10165E003B24F0913C243196DDDF3197FA93EA93E7
:10166E00B3DFED91A0933924B0933A24EA93A0E02E
:10167E000C94DE06E32FF0E0E050FF4EC4CFA4DF63
:10168E00ED91A0933924B0933A24E093D3000895BA
:10169E00FA93EA93E0911B24EA93A1E00C94DE0600
:1016AE00FA93EA93E091D400EA93A1E00C94DE065B
:1016BE00FA93EA93E091D500EA93A1E00C94DE064A
:1016CE002093392430933A240895E0931C24F09308
:1016DE001D2408951E2F3A932A931A93A1E00E9477
:1016EE00DE061093D30008953A932A93E091D40026
:1016FE00EA93A1E00C94DE063A932A93E091D5008A
:10170E00EA93A1E00C94DE06A0911C24B0911D2456
:10171E000895EA93A0E00C94DE060A921A92FA92C9
:10172E006A937A938A939A93AA93BA93EA93FA93C3
:10173E00EFB7EA930895E0E8E0936606E091680655
:10174E00E0740895A0911324B09114240895E093A9
:10175E001324F093142408954F5F5F4F83E48A950A
:10176E00F1F7089588EE93E00197F1F70895552368
:10177E0042F4503811F4E0FF04C03196691F791F0E
:10178E006BF050E8572711F45F9373C05F3F31F051
:10179E00660F000C57956795752F08955F9300207F
:1017AE000AF073C06CC050E8192E1522880F991FCD
:1017BE009527550F879550E8072E0522660F771F40
:1017CE007527550F67950895689401C0E8945F9347
:1017DE00F2DF703818F07F3F08F44BC056E1571B0C
:1017EE00AAF4519558300EF4593030F0EFEFFFEF68
:1017FE006FEF7FE777F91AC077275523B9F0EE0F11
:10180E00FF1F661F771F5A95D1F710C077275830E4
:10181E0028F0EF2FF62F672F5850F9CF552331F0C0
:10182E0076956795F795E7955A95D1F700200AF4C6
:10183E008AD05F910895689401C0E8943097604013
:10184E007040B1F0002426F0772312F400947BD080
:10185E00172E7EE1112032F07A95EE0FFF1F661FD4
:10186E00111CF9CFEF2FF62F612D5F938ADF5F9159
:10187E000895EE27FF27662777275F910895EFEFEC
:10188E00FFEF6FE77FEF5F910895EFEFFFEF6FE7E9
:10189E007FE75F9108955F9386DF703851F390383C
:1018AE0041F301240894791F23F41CF300203AF32A
:1018BE00ECCF0F921F932F933F934F931127222715
:1018CE009927689FA0018F9F302D410D591F6B9F47
:1018DE00300D411D591F8E9F27D0BF9F25D06A9F67
:1018EE0023D0BE9F1DD0AF9F1BD0AE9F110D291FC1
:1018FE00391F491F591FE32FF42F652F522F4F9178
:10190E003F912F911F910F9066232AF0550FEE1FD6
:10191E00FF1F661F02C073954BF229DF5F9108957A
:10192E00100D211D391F02C0200D311D491F591FD9
:10193E000895EA0FFB1F681F791F0895AE1BBF0B9A
:10194E00860B970B0895F09560957095E195FF4F76
:10195E006F4F7F4F0895EE230E2EFD01BC0131F027
:10196E00EE0FFF1F661F771F0A94D1F70895EE231F
:10197E000E2EFD01BC0131F075956795F795E79533
:10198E000A94D1F70895EE230E2EFD01BC0131F01D
:10199E0076956795F795E7950A94D1F7089575951D
:1019AE006795F795E7950895EF2FFF27E7FDFFEF72
:1019BE000895E62FF72F60E070E008956F2F660F01
:1019CE00660B762F08958B2F880F880B982F08950E
:1019DE00EA17E1E009F4EE2708957A9F702D6B9FC8
:1019EE00700DF89F700DE99F700D6A9F602D710D3F
:1019FE00FB9F600D711DE89F600D711D8827FA9F7A
:101A0E00F02D610D781FEB9FF00D611D781FEA9F81
:101A1E00E02DF10D681F781F089541D0DEDF0EF422
:101A2E0092DF08950024112490E1AA0FBB1F001C21
:101A3E00111C0E1A1F0A18F40E0E1F1E01C0A160F3
:101A4E009A9599F7FD01D00108953F934F935F93B7
:101A5E00002411244427552730E2AA0FBB1F881FEC
:101A6E00991F001C111C441F551F0E1A1F0A460BEE
:101A7E00570B28F40E0E1F1E461F571F01C0A160E4
:101A8E003A9559F7FD01BC01D001CA015F914F9102
:101A9E003F91089504D0D9DF0EF455DF0895E894F0
:101AAE0077FF02C050DF689497FF0BC00024A0950B
:101ABE00B095809590951196801D901D00F8039419
:101ACE0000FA0895ED91FD916D917D910895ED933C
:101ADE00FD936D937C9308957E936E93FE93EE9398
:101AEE000895A881B9818A819B810895E883F9833D
:101AFE006A837B830895E883E983EA83EB83089501
:101B0E001B2EBF2FF12D1A2EAE2FE12D0895A89565
:101B1E00E091CF01E7FDFBCFB05FED91FC91A150BD
:101B2E00B0410895A895E091CF01E7FDFBCFB05FDE
:101B3E00EC91B051089507D01196EF93EF2F03D08B
:101B4E00EF911197089523D0B05F8C918E1711F4F9
:101B5E00B05108959E2F1BD07F937FB7F8949C931E
:101B6E00B051A093C001B093C10180E08093C20137
:101B7E0085E38093CA0188ED91E084BF9093CB01F9
:101B8E0006D080E08093CA017FBF7F910895A8950B
:101B9E008091CF0187FDFBCF0895EA17FB076807F9
:101BAE00790708955A934A933A932A931A930A936C
:101BBE0008955D814C813B812A81198108810895A8
:00000001FF
