:0C0000000C9408020C9400000C9400000A
:10000C000C9400000C9400000C9400000C94000064
:10001C000C9400000C9400000C9400000C94000054
:10002C000C9400000C9400000C9400000C94000044
:10003C000C9400000C9400000C9400000C94000034
:10004C000C9400000C9400000C9400000C94000024
:10005C000C9400000C9400000C9400000C94000014
:10006C000C9400000C9400000C9400000C94000004
:10007C000C9400000C9400000C9400000C940000F4
:10008C000C9400000C9400000C9400000C940000E4
:10009C000C9400000C9400000C9400000C940000D4
:1000AC000C9400000C9400000C9400000C940000C4
:1000BC000C9400000C9400000C9400000C940000B4
:1000CC000C9400000C9400000C9400000C940000A4
:1000DC000C9400000C9400000C9400000C94000094
:1000EC000C9400000C9400000C9400000C94000084
:1000FC000C9400000C9400000C9400000C942F0342
:10010C000C9400000C9400000C9400000C94000063
:10011C000C9400000C94700D0C94910D0C94BB0D70
:10012C000C9400000C9400000C94260C0C94000011
:10013C000C9400000C9400000C9400000C94000033
:10014C000C944D030C9400000C9400000C940000D3
:10015C000C9400000C943B060C9400000C941306B9
:10016C000C9400000C9400000C9400000C94000003
:10017C000C9400000C9400000C9400000C940000F3
:10018C000C9400000C9400000C9400000C940000E3
:10019C000C9400000C9400000C9400000C940000D3
:1001AC000C9400000C9400000C9400000C940000C3
:1001BC000C9400000C9400000C9400000C940000B3
:1001CC000C9400000C9400000C9400000C940000A3
:1001DC000C9400000C9400000C9400000C94000093
:1001EC000C9400000C9400000C9400000C94000083
:1001FC00000005800F800A001B801E001400118077
:10020C00338036003C00398028002D802780220066
:10021C00638066006C00698078007D807780720056
:10022C00500055805F805A004B804E004400418046
:10023C00C380C600CC00C980D800DD80D780D20036
:10024C00F000F580FF80FA00EB80EE00E400E18026
:10025C00A000A580AF80AA00BB80BE00B400B18016
:10026C00938096009C00998088008D808780820006
:10027C00838186018C01898198019D8197819201EE
:10028C00B001B581BF81BA01AB81AE01A401A181DE
:10029C00E001E581EF81EA01FB81FE01F401F181CE
:1002AC00D381D601DC01D981C801CD81C781C201BE
:1002BC00400145814F814A015B815E0154015181AE
:1002CC00738176017C01798168016D81678162019E
:1002DC00238126012C01298138013D81378132018E
:1002EC00100115811F811A010B810E01040101817E
:1002FC00038306030C03098318031D83178312035E
:10030C00300335833F833A032B832E03240321834D
:10031C00600365836F836A037B837E03740371833D
:10032C00538356035C03598348034D83478342032D
:10033C00C003C583CF83CA03DB83DE03D403D1831D
:10034C00F383F603FC03F983E803ED83E783E2030D
:10035C00A383A603AC03A983B803BD83B783B203FD
:10036C00900395839F839A038B838E0384038183ED
:10037C00800285828F828A029B829E0294029182E5
:10038C00B382B602BC02B982A802AD82A782A202D5
:10039C00E382E602EC02E982F802FD82F782F202C5
:1003AC00D002D582DF82DA02CB82CE02C402C182B5
:1003BC00438246024C02498258025D8257825202A5
:1003CC00700275827F827A026B826E026402618295
:1003DC00200225822F822A023B823E023402318285
:1003EC00138216021C02198208020D820782020275
:1003FC0001002D4E414E00494E46000001002424C0
:10040C00FC030000F894EE27F091CC01F860F09317
:10041C00CC01F8EDF4BFE093A20080E090E1A0E005
:10042C00B0E2ED930197E9F7E8E0F4E0859195915E
:10043C00009761F0A591B59105901590BF01F00161
:10044C0005900D920197E1F7FB01F0CFE0E0E0B9E8
:10045C00E1B9E2B9E3B9E4B9E5B9E6B9E7B9E8B9A4
:10046C00E9B9EAB9EBB9ECB9EDB9EEB9EFB92E2EA1
:10047C003E2E4E2E5E2E6E2E7E2E8E2EE0E89E2E64
:10048C00E0E0AE2EBE2ECE2EDE2EEFEFEDBFEFE275
:10049C00EEBFC0E0D4E20C942C0C00000000000075
:1004AC0000000000F894E7E8E0935200E8E0E093E5
:1004BC005000E0915100E870E1F3E8EDE4BFE2ECAC
:1004CC00E0935500E8E1E0935000E0915100E071B9
:1004DC00E1F3E8EDE4BFE4E0E0934000EFE5E09306
:1004EC007000E5E0E0937100E3E0E0937200ECE76C
:1004FC00E0937300ECE6E0937400EFE7E093750093
:10050C00E8EBE0931406E0931506E0931606E093EF
:10051C001706E3E0E0930906E0EEE0930A06E0E05C
:10052C00E0932406EFE0E0932006E0E4E09350062D
:10053C00E0935206E0935406EAEEE0934406EFE3B0
:10054C00E0934006ECE1E0936406E9EBE09360068F
:10055C00E0E0E0937206E0937306E8EBE09390061C
:10056C00E0939106E0939206E0939306E8E6E0931D
:10057C000102E7E0E0930402E0E0E0930202E1E034
:10058C00E0932802E8E0E0932902E1E0E0933002F6
:10059C00E0E1E0933102E1E0E0933802E8E1E0933E
:1005AC003902E0ECE0930302E0910002EB60E0938F
:1005BC000002E1E0E0932A02E0933202E0933A0277
:1005CC00EBE0E093A509EDEEE093A609E4E9E093F6
:1005DC00A709E8E1E093A409E8E2E093A309E1E0CC
:1005EC00E0930009EFE3FCE9E0932609F093270977
:1005FC00E0910609E07FE260E0930609E1E0E09318
:10060C004009EFEFF0E0E0932608F0932708E3E0D1
:10061C00E0930008EFEFF0E0E0936608F0936708D2
:10062C00E3E0E0934008E0E0F0E0E0932808F0938A
:10063C002908E8EDE4BFE3E1E0938000E1E0E0931A
:10064C008100E7E0E093A200E8E0E093CC0178942D
:10065C000895EA93FA93EFB7EA93E0914406EA6EB1
:10066C00E0934406E8EAFDEFE0936009F09361093A
:10067C00E1E0E0934C09E3E0E0934609E0E0E0932D
:10068C000A06019AE991EFBFF991E9911895AA939D
:10069C00EA93FA93EFB7EA93E0910806F0E0E07E74
:1006AC00F070E032A0E0FA07A1F4009B08C0E8E08B
:1006BC00E0934606E0E0E0934108E3E107C0E2E0A6
:1006CC00E0934606E0E0E0934108E3E4E0930108A0
:1006DC008FC0E034A0E0FA07B1F4009B0AC0E0E25E
:1006EC00E0934606E0E0E0934108E3E4E093010880
:1006FC0009C0E8E0E0934606E0E0E0930108E3E19E
:10070C00E093410875C0E036A0E0FA07B1F4009B15
:10071C000AC0E0E2E0934606E0E0E0934108E3E142
:10072C00E093010809C0E2E0E0934606E0E0E093C4
:10073C000108E3E1E09341085BC0E038A0E0FA0770
:10074C00B1F4009B0AC0E2E0E0934606E0E0E093DF
:10075C000108E3E1E093410809C0E0E2E0934606BA
:10076C00E0E0E0934108E3E1E093010841C0E03AA6
:10077C00A0E0FA07B1F4009B0AC0E8E0E09346065B
:10078C00E0E0E0930108E3E1E093410809C0E0E216
:10079C00E0934606E0E0E0934108E3E4E0930108CF
:1007AC0027C0E03CA0E0FA07A1F4009B08C0E2E0FF
:1007BC00E0934606E0E0E0934108E3E407C0E8E09C
:1007CC00E0934606E0E0E0934108E3E1E0930108A2
:1007DC000FC0E0914406EA6EE0934406E0E0E0933B
:1007EC000108E0934108E0914406EA7EE093440658
:1007FC00E0E0E0934609E0EEE0930A06E991EFBFF2
:10080C00F991E991A9911895E0914406EA6EE0936B
:10081C004406E8EAFDEFE0936009F0936109E1E03A
:10082C00E0934C09E3E0E0934609E0E0E0930A062C
:10083C000895AA93E881A8E3B8E0F0E0ED93FC9367
:10084C00E881ACE3B8E0F0E0ED93FC93E881A8E735
:10085C00B8E0F0E0ED93FC932196089524970E9464
:10086C008010F201E219F3098F019801D9010E945D
:10087C00E50D0F01A0E4B0E00E943A10D001F0E0C9
:10088C00EA17FB0718F020E030E013C00024021632
:10089C00030644F4A0E4B0E00E943A10F0E02E1BF2
:1008AC003F0B07C0A0E4B0E00E943A10F0E02E0F1E
:1008BC003F1FD8010E94E50D0F01A8E2B0E00E9495
:1008CC003A10D001F0E0EA17FB0718F000E010E056
:1008DC0013C000240016010644F4A8E2B0E00E9404
:1008EC003A10F0E00E1B1F0B07C0A8E2B0E00E940C
:1008FC003A10F0E00E0F1F1FF901E619F709AF01CE
:10090C003901F8010E94A40F7F936F93FF93EF932B
:10091C00A1E2B0E00E943A10F0E0AF91BF918F914C
:10092C009F910E94A40F0E94D60FDF01CB01E4E03F
:10093C000E94850F7F936F93FF93EF93FA010E94B0
:10094C00A40F7F936F93FF93EF93A0E2B0E00E940C
:10095C003A10F0E0AF91BF918F919F910E94A40F3C
:10096C000E94D60F0E949A0FAF91BF918F919F91C9
:10097C000E946B0FEE83FF8368877987A985AA2372
:10098C0012F4009801C0009AAE81BF810E94E50D5F
:10099C0066277727EE83FF8368877987E0910624A3
:1009AC00F0E03097B9F4A4E2B0E00E943A10AE81C6
:1009BC00BF8188859985FF27662777270E947B1042
:1009CC002CF4A4E2B0E00E943A1001C0EE81E09356
:1009DC00022416C0E130A0E0FA0791F4E09108245B
:1009EC00AE81BF8188859985FF27662777270E946E
:1009FC007B101CF4E091082401C0EE81E0930224EA
:100A0C00A5E2B0E00E943A10A0910224EA1708F087
:100A1C0057C0A0910024B0910124CA16DB0608F03F
:100A2C0045C0E0E0F0E8E815F90511F44101520188
:100A3C00E0E0F0E8EA15FB0579F0D501A419B50959
:100A4C000E94E50D0F01A7E2B0E00E943A10D00120
:100A5C00F0E0EA17FB0708F009C0E0E0E09300249F
:100A6C00E0930124E0E0F0E84F015F01D101A81907
:100A7C00B9090E94E50D0F01A7E2B0E00E943A10FF
:100A8C00D001F0E0AE17BF0738F4A5E2B0E00E9449
:100A9C003A10E093022409C0E0E0E0930024E093D4
:100AAC000124E0E0F0E84F015F0109C0E09100246F
:100ABC00F09101243196E0930024F093012409C0B5
:100ACC00E0E0E0930024E0930124E0E0F0E84F0143
:100ADC005F01A2E2B0E00E943A10A0910224EA1752
:100AEC00A8F0E0E0E0930A06E0930224E0914406CB
:100AFC00EA6EE0934406E0E0E0930108E0934108DD
:100B0C00E0914406EA7EE093440603C0E0EEE093F5
:100B1C000A060E9487102A960895E0910624F0E0B8
:100B2C00309729F49BDEA091022483DE6CC0E13067
:100B3C00A0E0FA0729F492DEA09102247ADE63C0C9
:100B4C00E230A0E0FA07A9F4E0E0E0930A06E091B5
:100B5C004406EA6EE0934406E0E0E0930108E0937B
:100B6C004108E0914406EA7EE0934406A0E061DE91
:100B7C004AC0E330A0E0FA07C1F4E0E0E0930A06D3
:100B8C00E0914406EA6EE0934406E0E0E09301084D
:100B9C00E0934108E0914406EA7EE0934406EFEFCF
:100BAC00E0934406A0E045DE2EC0E430A0E0FA0756
:100BBC0099F4E0E0E0930A06E2E0E0934606E8E010
:100BCC00E0934606E0E0E0930108E3E1E09341089E
:100BDC00A09108242EDE17C0E530A0E0FA0741F4FE
:100BEC00E0EEE0930A06A091082423DE00980BC0E7
:100BFC00E630A0E0FA0739F4E0EEE0930A06A091A3
:100C0C00082417DE009A019904C0E0910A06E0302E
:100C1C0009F401C0F9DD01980895AA93EA93FA93B7
:100C2C00EFB7EA93A0911724A63068F4E09117244B
:100C3C00EF5FE0931724E150F0E0E05FFB4DE081C3
:100C4C00E093A0090CC0E1E0E0936606E2E0E093DB
:100C5C002606E8E0E0936206E8E1E093A409E99156
:100C6C00EFBFF991E991A99118950A921A92FA920B
:100C7C006A937A938A939A93AA93BA93EA93FA9380
:100C8C00EFB7EA93039933C0E0910A24E093092467
:100C9C00E0910B24E0930A24E0910C24E0930B24C4
:100CAC00E0910D24E0930C24E0910E24E0930D24AC
:100CBC00E091A009E0930E24A9E0B4E226D0A09123
:100CCC000E24EA1731F4A0910D24E0911824EA17B0
:100CDC0009F00DC0A0E3B0E00E943A10A0910A24E4
:100CEC00EA1721F0A0910A24AF3109F4039AE99193
:100CFC00EFBFF991E991B991A99199918991799164
:100D0C006991F990199009901895BA93AA930E9439
:100D1C0082100FEF1FEF30E03430D0F4212F102F62
:100D2C000027022E1124AC81BD81EE27A30FBE1F1C
:100D3C00EC91F0E0E025F125ACEFB1E0EE0FFF1FF8
:100D4C00EA0FFB1F0E942B100E271F273F5FE4CFDB
:100D5C0010931824E02F0E9489100C946E0D259787
:100D6C000E948010E0910B242E2FE0910C24EE8336
:100D7C00E0910924F0E0ED3DA0E0FA0709F061C034
:100D8C00E4E4E09310240498E22FE07E19F4EE8161
:100D9C00E07809F02AC0022F1127D801E7E00E9461
:100DAC007C0FDF01EE81F0E0EA0FFB1F8F010138B1
:100DBC00EFE01E071CF000E81FE006C00038E0E082
:100DCC001E0714F400E810E0F801E050F8400E940F
:100DDC00A40F0E94550EA2E8B2EE87E19FE30E9499
:100DEC00D80E0E941E0E2F01029AF1010E94A40F30
:100DFC000E94550EAEE9BFEE87ED9FE30E94D80E20
:100E0C00A0E0B0E080E095E40E94880E0E941E0EE7
:100E1C008F010E949F0F3E2FEE0FEE713E2F07FFAA
:100E2C0005C0E32FEF5FE093122402C0309312242D
:100E3C00E02FEF77E0931324E0910724E09306244E
:100E4C00FBC4E637A0E0FA0739F50498F22FE0E08E
:100E5C00DF01EE81F0E0EA0FFB1F8F010237E8EFB4
:100E6C001E0714F402E718EF0F38E7E01E0714F022
:100E7C000EE817E02801E6E5E0931024029A0498A6
:100E8C00F1010E949F0FE093122420921324E09111
:100E9C000724E0930624D0C4E936A0E0FA0751F405
:100EAC00203019F4EE81E03009F0C6C4E9E4E09397
:100EBC001024E5CFE737A0E0FA0701F50498F22FEC
:100ECC00E0E0DF01EE81F0E0EA0FFB1F8F0102375B
:100EDC00E8EF1E0714F402E718EF0F38E7E01E07DF
:100EEC0014F00EE817E02801E0E0E0931024029AD9
:100EFC000498E0910724E09306249EC4E837A0E010
:100F0C00FA0709F0ABC00498F22FE0E0DF01EE81A4
:100F1C00F0E0EA0FFB1F8F01A5E4B0E00E943A104D
:100F2C00E27021F0F8010E94700F8F010237E8EF98
:100F3C001E0714F402E718EF0F38E7E01E0714F051
:100F4C000EE817E00024001601069CF4F8010E943C
:100F5C00A40F7F936F93FF93EF93A3E4B0E00E94F1
:100F6C003A10F0E00E94A40FAF91BF918F919F9126
:100F7C0012C0F8010E94A40F7F936F93FF93EF931D
:100F8C00A4E4B0E00E943A10F0E00E94A40FAF91EC
:100F9C00BF918F919F910E94D60FEF83F88769873D
:100FAC007A87AF81B88589859A85E4E6F0E060E0C0
:100FBC0070E00E9413108F010237E8EF1E0714F443
:100FCC0002E718EF0F38E7E01E0714F00EE817E001
:100FDC002801E8E5E0931024029A0498D1010E94BC
:100FEC00A90FE4E6F0E060E070E00E94D60FEF831A
:100FFC00F88769877A87AF81B88589859A850E9439
:10100C0075101CF4A3E4B0E002C0A4E4B0E00E94AC
:10101C003A10F0E00E94A40FAF81B88589859A85BB
:10102C000E941310EF83F88769877A870F811885E0
:10103C00A5E4B0E00E943A10E27021F0F8010E94A1
:10104C00700F8F01F8010E949F0FE0931224009300
:10105C001324E0910724E0930624EEC3E937A0E0C3
:10106C00FA0751F4203019F4EE81E03009F0E4C3B2
:10107C00E9E5E0931024B1CFE939A0E0FA0731F5A6
:10108C00203019F4EE81E03009F0D6C3ECE4E093A3
:10109C0010240498B5D4E0930524A0910324B091B6
:1010AC000424E0E0F8E0EA1BFB0BA2E3B0E00E94B2
:1010BC00431044245524A4D4E0930524F1010E9448
:1010CC009F0FE093122420921324B6C3EA3AA0E0B7
:1010DC00FA07C9F40498EE81E21709F0ADC3203089
:1010EC0011F02F3108F0A8C3E5E5E093102420930C
:1010FC00122420931324E22FA0E3B0E00E944B10A3
:10110C002093112499C3EA3DA0E0FA0799F40498BE
:10111C00203019F4EE81E03009F08EC3EDE6E09357
:10112C001024E0911124E0931224E0911124E09317
:10113C00132482C3EB3BA0E0FA0701F50498F22FCD
:10114C00E0E0DF01EE81F0E0EA0FFB1F8F010237D8
:10115C00E8EF1E0724F00F38E7E01E070CF06CC315
:10116C00EDE5E0931024F801A6E3B0E00E944310F3
:10117C0020931224EE81E09313245EC3E039A0E0A7
:10118C00FA07C9F4203019F4EE81E03009F054C3A9
:10119C00E0E6E09310240498A6E3B0E00E942F1040
:1011AC000E949F0FE0931224A6E3B0E00E943A1035
:1011BC00E093132441C3EC3BA0E0FA07B1F42030D8
:1011CC0019F4EE81E03009F037C3ECE5E09310241C
:1011DC000498F101A6E3B0E00E9443100E949F0F17
:1011EC00E09312242092132427C3EC3CA0E0FA07CE
:1011FC00A9F40498EE81E21709F01EC3203808F018
:10120C001BC3E6E6E09310242093122420931324AE
:10121C00E22FA5E3B0E00E944B100EC3E139A0E031
:10122C00FA07A9F4203019F4EE81E03009F004C378
:10123C00E1E6E09310240498A5E3B0E00E943A1094
:10124C00E0931224E0911224E0931324F5C2E13BC5
:10125C00A0E0FA0731F50498203019F4EE81E03063
:10126C0009F0EAC2E1E3E0931024A0911D24B091AF
:10127C001E2488279927E8EEF3E060E070E00E94D6
:10128C00D60FDF01CB01EBEFFFE460E070E00E94D2
:10129C0013108F0100931224E0911224E093132475
:1012AC00CBC2E03BA0E0FA0721F50498203019F4FA
:1012BC00EE81E03009F0C0C2E0E3E0931024E0914D
:1012CC001F24F0912024662777270E94550EDF01FA
:1012DC00CB01EAE9F9E961E871E40E94260FA2E189
:1012EC00B4E20E941C0EEC93E0911224E0931324C0
:1012FC00A3C2E03CA0E0FA0731F50498E0E1E093EA
:10130C001024A0912124B0912224AD33EFE0BE072C
:10131C0030F0E0E0E0931224E09313248DC2A0910E
:10132C002124B0912224ECE3FFE0EA1BFB0BDF014C
:10133C00E4E1F0E00E94DB0FE0931224E091122430
:10134C00E093132479C2E53EA0E0FA07D1F50498A6
:10135C00E5E4E0931024EE81F0E0E130A0E0FA0740
:10136C0051F4F101FF708F010E949F0FE093122442
:10137C000093132425C0E230A0E0FA0761F4E0E00A
:10138C00E0931224E0910806E07EF0E0F595E795F5
:10139C000E94910F13C0E330A0E0FA0729F4E0910A
:1013AC000524E09312240AC0E0910324F091042454
:1013BC000E949F0FE0931224E0910324E0931324E6
:1013CC003BC2E03EA0E0FA0731F4E0E4E0931024E5
:1013DC0040E051E01DC0E13EA0E0FA0731F4E1E449
:1013EC00E093102440E351E013C0E23EA0E0FA0782
:1013FC0031F4E2E4E093102440E651E009C0E33E0E
:10140C00A0E0FA07A1F5E3E4E093102440E951E0F1
:10141C000498203019F4AE81A13208F00DC230E0EE
:10142C00303290F4E32FF0E0E40FF51FE093192431
:10143C00F0931A24A0911924B0911A240E943A1006
:10144C00E03011F03F5FECCFEE81F0E0E40FF51FE0
:10145C00E0931924F0931A24A0911924B0911A2422
:10146C000E943A10E093122430931324E5C1E73E16
:10147C00A0E0FA07D9F40498203210F0213308F0D8
:10148C00DBC1E7E4E0931024EE81F0E0E093192453
:10149C00F0931A24A0911924B0911A240E943A10A6
:1014AC003E2F3093122430931324C6C1E83EA0E0A3
:1014BC00FA0739F5049B04C0203210F0213308F0F0
:1014CC00BBC1E8E4E0931024E22FF0E0E093192490
:1014DC00F0931A24EE81A0911924B0911A240E9441
:1014EC004B10A6E2B0E00E943A10F0E0A4EFB1E09D
:1014FC000E94AE0F6F0120931224EE81E09313240F
:10150C009BC1E63DA0E0FA0731F4E6E8E093102435
:10151C0040E051E01DC0E73DA0E0FA0731F4E7E8F8
:10152C00E093102440E351E013C0E83DA0E0FA073B
:10153C0031F4E8E8E093102440E651E009C0E93DBD
:10154C00A0E0FA07F9F4E9E8E093102440E951E04F
:10155C00AE81A13210F4049901C06EC12093122403
:10156C00EE81E0931324F0E0E40FF51FE0931924CF
:10157C00F0931A24E22FA0911924B0911A240E94FE
:10158C004B105AC1E83FA0E0FA07B9F40498E8EF11
:10159C00E0931024EE81F0E0E0931924F0931A24E8
:1015AC00A0911924B0911A240E943A10E0931224AD
:1015BC00E0911224E09313243FC1E93FA0E0FA0725
:1015CC0011F5049B39C1E9EFE0931024E22FF0E010
:1015DC00E0931924F0931A24EE81A0911924B09170
:1015EC001A240E944B10A6E2B0E00E943A10F0E0E0
:1015FC00A4EFB1E00E94AE0F6F0120931224EE8194
:10160C00E093132419C1E93EA0E0FA07C9F4E9E418
:10161C00E09310240498EE81F0E0E050FF4FE0934B
:10162C001924F0931A24A0911924B0911A240E9421
:10163C003A10E0931224E0911224E0931324FCC09E
:10164C00EA3FA0E0FA07C9F4049BF6C0EAEFE09386
:10165C001024E22FF0E0E050FF4FE0931924F093B8
:10166C001A24EE81A0911924B0911A240E944B10D7
:10167C0020931224E0931324DFC0EA39A0E0FA0788
:10168C0009F0A9C00498F0910B24E0E0AF01E091BF
:10169C000C24F0E04E0F5F1F042E052A21F4E2E02B
:1016AC00E093072490C0E0E0F0E8E417F50719F4A4
:1016BC00E093072488C0E1E0F0E8E417F50721F493
:1016CC00E3E0E09307247FC0FA01E070E030ABEA7E
:1016DC00FA0781F4E4E0E0930724E0930624FA018E
:1016EC00F070E734A0E0FA0710F046E450E04093C5
:1016FC00082469C0FA01E070E030ADEFFA0741F45C
:10170C00E5E0E0930724E0930624409308245BC0B3
:10171C00FA01E070E030ADEBFA0741F4E6E0E0935B
:10172C000724E0930624409308244DC04030E1E0A8
:10173C005E0730F4E1E0E09307244093082443C0B3
:10174C00E2E0F0E8E417F507E9F5E0910724F0E0B2
:10175C00309719F440E050E834C0E130A0E0FA07CB
:10176C0021F44091082455272CC0E230A0E0FA0760
:10177C0019F440E050E025C0E330A0E0FA0719F47A
:10178C0041E050E81EC0E430A0E0FA0731F4E091EB
:10179C000824F0E0E050F54513C0E530A0E0FA076E
:1017AC0031F4E0910824F0E0E050F34009C0E63059
:1017BC00A0E0FA0731F4E0910824F0E0E050F344A3
:1017CC00AF0101C039C0EAE4E09310245093122415
:1017DC004093132431C0EF3FA0E0FA0769F52134A0
:1017EC0019F4AE81AF3309F00BC0049AEFEFE0931C
:1017FC001024E1E4E0931224E5E4E09313241CC0EC
:10180C00223529F4AE81A23511F4049901C014C01B
:10181C00E0914406EA6EE0934406E0E0E0930108B0
:10182C00E0934108E0914406EA7EE0934406A0E090
:10183C000E941F04F894FFCF0E9487102B960895E6
:10184C00EA93E1E0E0932324E991189510E000E09D
:10185C000E945802A5E4B0E00E943A10F0E0E1705A
:10186C00F070E130A0E0FA0721F4E1E0E093250606
:10187C0003C0E1E0E0932606A6E2B0E00E943A1035
:10188C00F0E0A4EFB1E00E94AE0F6F01B9D0E0938D
:10189C000524A0E3B0E00E943A10E09311240398D1
:1018AC00ABE2B0E00E943A10E47011F0210105C0E7
:1018BC00A6E3B0E00E942F102F01ABE2B0E00E9433
:1018CC003A10E27009F011E0ABE2B0E00E943A107D
:1018DC00E17009F001E0E0912324E03009F455C0F7
:1018EC00E0E0E0932324E0911B24F0911C2431963A
:1018FC00E0931B24F0931C24A89582D0E09305243C
:10190C00029B02C0003009F001C011E0A5E3B0E079
:10191C000E943A10E030A9F1A5E3B0E00E943A1021
:10192C00A2E3EA9FF001A0911B24B0911C24EA17BA
:10193C00FB0738F5A6E3B0E00E942F102F01EEEC68
:10194C00F1E3E0931B24F0931C24ACE2B0E00E9482
:10195C003A10E031B0F010E0E0E0E0930A06E091DC
:10196C004406EA6EE0934406E0E0E0930108E0935D
:10197C004108E0914406EA7EE0934406A0E00E9410
:10198C001F04103011F00E949305039B37C00030E8
:10199C0009F011E00398E0E0E0931B24E0931C2491
:1019AC00E0931024DCD9E0911024E03039F1A0E16F
:1019BC00B4E2ABD9E0931524E0911824E0931424FD
:1019CC00E0910724E0930624E1E0E0931724E093F0
:1019DC006506E2E0E0932506E8E0E0936106E0931B
:1019EC00A409000000000000000000008CE291E05F
:1019FC000197F1F7E0911024E093A0096CCFFFCF91
:101A0C000E94801020E030E000E051E0E0E1E09343
:101A1C00660600000000000000000000E0E8E09313
:101A2C00660610E01C30D0F400000000000000003E
:101A3C000000E0E8E0936506220F331F0000000071
:101A4C00000000000000E0E8E0936606E091680604
:101A5C00E07411F02F5F3F4F1F5FE4CF10E01630A2
:101A6C00C0F400000000000000000000E0E8E0937B
:101A7C006506000F00000000000000000000E0E818
:101A8C00E0936606E0916806E07409F00F5F1F5F53
:101A9C00E6CFE0E8E093650620930324309304241A
:101AAC00A2E3B0E00E942F102E0F3F1F3F70E0E02A
:101ABC00F8E0E21BF30B1F01E0E1E0936506E02F79
:101ACC00E8730E2FE03209F050E0E52F0E948710EA
:101ADC00269608950A921A92AA93BA93EA93FA93C5
:101AEC00EFB7EA930090120210901302A0E1B0E05D
:101AFC000E943A10F0E0D001AE1BBF0BA0931D2446
:101B0C00B0931E24E991EFBFF991E991B991A99194
:101B1C001990099018950A921A92AA93BA93EA937B
:101B2C00FA93EFB7EA930090140210901502A0E11B
:101B3C00B0E00E943A10F0E0D001AE1BBF0BA093B6
:101B4C001F24B0932024A030E0E1BE0728F0E0E091
:101B5C00E0931F24E0932024E991EFBFF991E991E0
:101B6C00B991A9911990099018950A921A92AA9371
:101B7C00BA93EA93FA93EFB7EA9300901602109097
:101B8C001702A0E1B0E00E943A10F0E0D001AE1BC9
:101B9C00BF0BA0932124B0932224A030E0E1BE0718
:101BAC0028F0E0E0E0932124E0932224E991EFBFB8
:101BBC00F991E991B991A991199009901895BA9355
:101BCC00AA93E991F99130971AF4E095F095319632
:101BDC000895552342F4503811F4E0FF04C03196B7
:101BEC00691F791F6BF050E8572711F45F93C8C039
:101BFC005F3F31F0660F000C57956795752F089570
:101C0C005F9300200AF0C8C0C1C050E8192E1522FD
:101C1C00880F991F9527550F879550E8072E052299
:101C2C00660F771F7527550F67950895689401C047
:101C3C00E8945F93F2DF703818F07F3F08F4A0C08F
:101C4C0056E1571BAAF4519558300EF4593030F028
:101C5C00EFEFFFEF6FEF7FE777F91AC07727552388
:101C6C00B9F0EE0FFF1F661F771F5A95D1F710C002
:101C7C007727583028F0EF2FF62F672F5850F9CFD1
:101C8C00552331F076956795F795E7955A95D1F7E9
:101C9C0000200AF423D15F910895689401C0E89460
:101CAC00309760407040B1F0002426F0772312F496
:101CBC00009414D1172E7EE1112032F07A95EE0F9C
:101CCC00FF1F661F111CF9CFEF2FF62F612D5F93AD
:101CDC008ADF5F9108954F93AF01FD01DA01AB01EB
:101CEC00BC01CA01402D012C142E4F910895EA0F0E
:101CFC00FB1F681F0895E095F0956095EF5FFF4F0F
:101D0C006F4F08955F9381DF903839F1703821F16E
:101D1C00572F591B2BF112F4DEDFFACF583118F084
:101D2C00AA27BB278827583028F0AB2FB82F882735
:101D3C005850F9CF552329F08695B795A7955A9504
:101D4C00D9F7502D512572F0D2DF38F46795F795FD
:101D5C00E795739513F420C0BEDF45DF5F910895BE
:101D6C00D8F7FBCFEA1BFB0B680B51F010F4009477
:101D7C00C2DF662392F3EE0FFF1F661F7A95CBF737
:101D8C00EE27FF27662777275F910895EFEFFFEF88
:101D9C006FE77FEF5F910895EFEFFFEF6FE77FE75E
:101DAC005F9108955F9331DF703851F3903841F3B0
:101DBC0001240894791F23F41CF300203AF3ECCF90
:101DCC000F921F932F933F934F93112722279927FD
:101DDC00689FA0018F9F302D410D591F6B9F300DB7
:101DEC00411D591F8E9F27D0BF9F25D06A9F23D09E
:101DFC00BE9F1DD0AF9F1BD0AE9F110D291F391F49
:101E0C00491F591FE32FF42F652F522F4F913F91EC
:101E1C002F911F910F9066232AF0550FEE1FFF1F75
:101E2C00661F02C073954BF2D4DE5F910895100DBE
:101E3C00211D391F02C0200D311D491F591F089546
:101E4C005F93E3DE703821F411200AF49FCFA4CF06
:101E5C00903809F495CF01240894970B1BF4D4F314
:101E6C000020F3CF792F1F932F933F934F9311247F
:101E7C001127222733274427552790E2AE17BF0797
:101E8C008607410730F0AE1BBF0B860B410B089445
:101E9C0001C08894551F221F331F111CAA1FBB1F82
:101EAC00881F441F9A9551F7F901612D4F913F916D
:101EBC002F911F91662332F0550FEE1FFF1F661FE7
:101ECC007A9543F286DE5F910895EA0FFB1F681F37
:101EDC00791F0895F195E195F0400895F09560957E
:101EEC007095E195FF4F6F4F7F4F0895EE230E2EA7
:101EFC00FD0121F0EE0FFF1F0A94E1F70895EE2388
:101F0C000E2EFD01BC0131F075956795F795E7959F
:101F1C000A94D1F70895F595E795F595E795F5951C
:101F2C00E795F595E795089575956795F795E79578
:101F3C000895EF2FFF27E7FDFFEF08956F2F660F32
:101F4C00660B762F08958B2F880F880B982F08958A
:101F5C00FA9FF02DEB9FF00DEA9FE02DF10D089507
:101F6C007A9F702D6B9F700DF89F700DE99F700D0F
:101F7C006A9F602D710DFB9F600D711DE89F600DB8
:101F8C00711D8827FA9FF02D610D781FEB9FF00DC6
:101F9C00611D781FEA9FE02DF10D681F781F0895D1
:101FAC0041D0DEDF0EF49ADF08950024112490E175
:101FBC00AA0FBB1F001C111C0E1A1F0A18F40E0EC0
:101FCC001F1E01C0A1609A9599F7FD01D0010895DB
:101FDC003F934F935F93002411244427552730E2FD
:101FEC00AA0FBB1F881F991F001C111C441F551FD3
:101FFC000E1A1F0A460B570B28F40E0E1F1E461FF7
:10200C00571F01C0A1603A9559F7FD01BC01D001E1
:10201C00CA015F914F913F91089504D0D9DF0EF41E
:10202C005DDF0895E89477FF02C058DF689497FF4E
:10203C000BC00024A095B095809590951196801DAD
:10204C00901D00F8039400FA08950590F491E02D8A
:10205C000895A895E091CF01E7FDFBCFB05FED911E
:10206C00FC91A150B0410895A895E091CF01E7FDF6
:10207C00FBCFB05FEC91B051089507D01196EF9360
:10208C00EF2F03D0EF911197089523D0B05F8C916F
:10209C008E1711F4B05108959E2F1BD07F937FB7EC
:1020AC00F8949C93B051A093C001B093C10180E00F
:1020BC008093C20185E38093CA0188ED91E084BFCF
:1020CC009093CB0106D080E08093CA017FBF7F91B3
:1020DC000895A8958091CF0187FDFBCF089500242A
:1020EC000A160B06080609060895EA17FB07680787
:1020FC00790708955A934A933A932A931A930A9319
:10210C0008955D814C813B812A8119810881089554
:00000001FF
