:10000000C8290020213800001D3800001D380000DC
:1000100000000000000000000000000000000000E0
:100020000000000000000000000000001D3800007B
:100030000000000000000000D961000077610000AE
:100040001D3800001D3800001D3800009D190000FB
:100050001D3800001D3800001D3800003508000064
:100060001D3800001D3800001D3800001D3800003C
:100070001D3800000000000000000000D910000042
:10008000000000001D3800001D3800001D38000071
:10009000490700001D3800001D3800001D38000011
:1000A0001D3800001D3800001D3800001D380000FC
:1000B0001D3800001D3800001D38000010B5064C2A
:1000C0002378002B07D1054B002B02D0044800E019
:1000D00000BF0123237010BD280000200000000095
:1000E0007C880000084B10B5002B03D00749084856
:1000F00000E000BF07480368002B00D110BD064B8D
:10010000002BFBD09847F9E7000000002C000020EE
:100110007C8800007C8800000000000010B5194AAF
:10012000D3698024A4022343D361402482235B004B
:10013000154AD450154B1C78012222431A709A7824
:100140000F242040A2431043987058890422024390
:100150005A815889032211400A0130218843010045
:100160001143598119890A4A0A40C02149010A43A9
:100170001A8145221A735A7807218A4304210A43B7
:100180005A7010BD00080040001C004000440042AE
:10019000FFE0FFFF114A137802218B431370110017
:1001A00003220B8C1342FCD10C4B1A891F210840EF
:1001B0008A4310431881197802220A431A701900E1
:1001C00003220B8C1342FCD1044B997901220A4380
:1001D0009A71197E02220A431A767047004400423F
:1001E000014B988C80B270470044004270B584B0D7
:1001F00005000E0010222249684607F096FEA4234F
:10020000EB585B0635D0A423EC58A404A40E2101BE
:100210001C4BC91800292FD00B685B0006D50123A1
:1002200073730B68DB00DB08336005E00023737336
:100230000B68DB005B0D33600B689B0001D501236D
:1002400033714B689B0201D5022333714B681B034A
:100250001B0F6A46D25C3273B068083107F065FE46
:100260003F21A822AB580C408B431C43AC500020CC
:1002700004E00A20404201E01C20404204B070BD6E
:10028000B07F00009800002070B50400C423C3585C
:100290009B0200D595E0C423C058C002C00E0001E7
:1002A0004B4BC018002800D18EE04B7B012B07D1AF
:1002B0000B68036003688022D2051343036002E0E9
:1002C0000B689B0403600B7B082B08D845680F2242
:1002D00013401A043F4B2B401343436042E00C2B66
:1002E00007D842683B4B13409022120313434360EC
:1002F00038E0102B07D84268364B1340A022120377
:10030000134343602EE0142B07D84268314B13404F
:10031000B02212031343436024E0182B07D842682D
:100320002C4B1340C0221203134343601AE0202BCE
:1003300007D84268274B1340D0221203134343606F
:1003400010E0302B07D84268224B1340E022120302
:100350001343436006E0402B04D84368F0221203A5
:10036000134343600B79023B012B12D84368802270
:100370009203134343600B79032B05D1436880221A
:100380005203134343600CE04268134B1340436035
:1003900007E04268114B1340436042680E4B134024
:1003A000436008300A7B896807F0BFFDC423E35827
:1003B000DB02DB0E01229A401300D022A350002062
:1003C00004E01C20404201E01C20404270BDC046B9
:1003D000D8000020FFFFF0FFFFFFEFFFFFFFDFFF70
:1003E00010B5002920D1002A03D180001E4BC25035
:1003F00037E01D4B80005168C1501168C458490551
:1004000049091A4A22400A43C250C258920092082F
:10041000802109060A43C250C158154A0A4080216A
:1004200009050A43C2501CE001291AD1002A03D150
:10043000C000104BC25014E00E49C0001368435076
:100440004358DB00DB088024A40523434350536852
:100450000818436043689B009B08802212061343E0
:100460004360002010BDC04674000020FFFF00F86C
:10047000FFFFFFC74400002030B5002922D19A4277
:1004800004D9800000221D4BC25034E01B4C800078
:100490000559520551091A4A2A400A430251015985
:1004A0005B055A0DCB0ADB021343035103599B0032
:1004B0009B0803510259134B13408022120513432A
:1004C000035118E0012916D19A4204D9C000002234
:1004D0000D4BC2500FE00C49C00042504258D200B0
:1004E000D2088024A4052243425008184360436880
:1004F0009B009B084360002030BDC0467400002074
:10050000FFFF00F8FFFFFFC74400002083690222BD
:10051000934383618369013A9343836183691A42F8
:10052000FCD1426D01231343436570478269012367
:1005300013438361012283691A42FCD0826902233A
:1005400013438361426D01239A434265026D134355
:100550000365704770B506000C00150000200529E2
:1005600064D8052A62D83000FFF7E0FF052C5AD87E
:10057000A4002F4B1B599F4604220B23042112E099
:1005800004220B2302210EE004220B2301210AE0A6
:1005900002220523012106E001220223012102E0BB
:1005A00004220B2308210139090422480140013BA0
:1005B0001B061B0C0B43013A7F210A401343F361D6
:1005C000052D32D8AD001C4B5B599F4604230B22EE
:1005D000042112E004230B2202210EE004230B224B
:1005E00001210AE002230522012106E00123022263
:1005F000012102E004230B22082101390904F8201B
:1006000040030140013A1202F82040010240114328
:10061000013B1A01FF2313400B43F3603000FFF747
:1006200075FF012002E0002000E0002070BDC04600
:10063000807F00000000FF01987F000010B5026D70
:100640000023910103D50265FFF760FF0123180025
:1006500010BDC0462F4B98420AD12F4A1369802102
:1006600049000B431361BE39E8232C4AD1500DE0F9
:100670002B4B98424DD1284A1369802189000B43A6
:100680001361BF39FF39EC23244AD1508269012319
:1006900013438361012283691A42FCD082690223D9
:1006A0001343836183698361002282601D4BC361B0
:1006B0001D4BC3601D4B1B041B0C1D490B43A0218C
:1006C0004350BC23C2500C33C2501A4B1B041B0CAA
:1006D000802212051343C0228350174A1204120CC1
:1006E000802189020A43F023C2502822703BC25065
:1006F000124B1B041B0C0B435C328350104B1B042E
:100700001B0C8022D2021343882283500D4A90236F
:10071000C2507047001C004200080040001C00400E
:1007200000200042030A0500330A00009800002060
:1007300000000480D8000020640000207400002025
:1007400044000020FFFFFF1F10B5164B9B7ADB070C
:1007500002D50122134B9A72124B9B7A9B0702D54A
:100760000222104B9A720F4B9B7A9B0618D52022BF
:100770000C4B9A721A0013695B06FCD4094BD869BA
:10078000062105F005FE084B1860064A13691B0692
:10079000FCD4044B186A062105F0FAFD034B1860DF
:1007A00010BDC04600300042580100205C0100200E
:1007B0008422184B5A60833A174B1A71174B184A08
:1007C0001A8202221A7500225A7507329A751A0087
:1007D0009369002BFCD1114AD368DB07FCD50F4A83
:1007E000138A802109010B431382D368DB06FCD5F1
:1007F0000C4A0D4B1A6219000C4A4B681342FCD18B
:100800000B4A094B9A621900084A4B681342FCD103
:100810007047C04600400041000800400010004002
:100820000643000006010100001C0040FD07000017
:1008300000010100F0B55F4656464D464446F0B40F
:10084000174B3F229C5CE2B293465E6A0023012074
:100850000F2291461249303290460F3294460727B4
:100860004025DAB204009C4026420BD00D4CE054E7
:100870004C46224044460A5562468F544A5D022443
:10088000A2434A550133032BEBD13C33044A59466A
:10089000D1543CBC90469946A246AB46F0BDC046FA
:1008A0000060004160010020044A916902230B436B
:1008B0009361034A8023DB051A60704700080040FB
:1008C00021000100044B58609960597801220A43C5
:1008D0005A7008221A70704700200041034B587864
:1008E000C0080123584001231840704700200041F0
:1008F000024B5878012318407047C0460020004141
:10090000064B5860996001225242DA605978012200
:100910000A435A7004221A707047C04600200041F2
:10092000014BD868C043704700200041024A137D44
:10093000DB07FCD57047C0460040004110B50400FD
:10094000FFF7F4FF054B2022FF321A836408DC61B5
:10095000034A1A80FFF7EAFF10BDC046004000417D
:100960001AA5FFFFF0B55F464E464546E0B40400C9
:100970000D001700174A536880218B435360002FE6
:1009800022D09146144B1B889B46144B98463E0040
:10099000102F00D91026BF1B4B465A461A80FFF76E
:1009A000C5FF721E002E08D00023E958E150043321
:1009B000013AFAD2B600A419AD194B4642461A8044
:1009C000FFF7B4FF002FE2D11CBC90469946A34626
:1009D000F0BDC04600400041C07F00001CA5FFFFE5
:1009E0007047C0461F2918D8002A08D001238B4021
:1009F000C0018222D2059446604483600DE0012349
:100A00008B40C0018222D205944660444360411865
:100A100040310A78022313430B70704730B51F2909
:100A200029D8082A09D9C0010818134B9C466044EC
:100A300003780122934303701DE0C301CB180E4CD1
:100A4000A44663441D7801242C431C70CB070BD5AE
:100A50004908C0010818094B9C46604403781201FC
:100A60001A43D2B2027006E04908C0010818034BCD
:100A70009C466044027030BD40000041300000419F
:100A800010B51F292DD8012A0ED0002A02D0022A23
:100A900019D026E0C0010818124B9C466044037828
:100AA0000422934303701CE0C0018223DB059C46B3
:100AB0006044431840331C78042222431A700123F7
:100AC0008B4083610DE0C0018223DB059C466044BE
:100AD000431840331C78042222431A7001238B40B0
:100AE000436110BD4000004101238B40C0018222C0
:100AF000D20594466044C3617047C046F8B504000F
:100B00000D00160006AA1778022B0AD10122FFF762
:100B100069FF320029002000FFF780FF092E1CD159
:100B200008E00022FFF75EFF320029002000FFF7F7
:100B300075FF12E0012F08D10123AB40E4018222AE
:100B4000D20594466444A36107E00123AB40E4016D
:100B50008222D205944664446361F8BD10B5040056
:100B6000314B98420BD1314AD36980208000034336
:100B7000D361C138FF38F0232D4AD0501AE02D4BF5
:100B800098420AD1294AD3698020C0000343D36127
:100B90004020F023264AD0500CE0274B984241D108
:100BA000224AD369802000010343D3614020F4230B
:100BB0001F4AD050214805F0EBFB214B18608023E1
:100BC0005B0298420AD90023802252020133DBB231
:100BD00040089042FAD81A4A106000E0002301222F
:100BE00022600121A2681142FCD10122227104215C
:100BF000A2681142FCD11B02E022D2001340236004
:100C00000223E3634022A3681A42FCD10138206426
:100C10000023636322680233134323600322A36823
:100C20001A42FCD110BDC04600240042000800401A
:100C3000001C004000280042002C0042006CDC0236
:100C40007C000020026802231343036002228368B1
:100C50001A42FCD17047C04670B505000C00064B27
:100C60001B6853431800FA21890005F091FB1034EA
:100C7000A4002C19606070BD7C00002010B5040039
:100C800004220A4907F051F9201D0422084907F0FF
:100C90004CF9200008300422064907F046F92000EC
:100CA0000C300422044907F040F910BD0CA080006C
:100CB00040A0800044A0800048A0800070B5194A80
:100CC0005369802149010B43536140219423164A03
:100CD000D1500122154B1A7019008B681A42FCD1B1
:100CE000134B1B681902FC2292010A401905890E58
:100CF0000A430E4C22620F4A15682805F02212049E
:100D000010401B0B184306F0D9F905F0F1FCA06167
:100D10002D012D0AE5611023A3700E3B2370013BCA
:100D2000637070BD00080040001C004000300040AF
:100D3000306080003460800010B50F4BDB681B0210
:100D4000180A002B0CDA0D4B181A642105F020FB51
:100D5000C2B20020322A0DD83223981AC0B209E05C
:100D60003230642105F014FBC3B2FF20C82B01D838
:100D70003233D8B210BDC04600300040320000010E
:100D80000004F0231B03184004231843014BD861CF
:100D90007047C046001800400B4A53698021490043
:100DA0000B435361094A1378FC398B4313701100CC
:100DB0000E228B681A42FCD104494B780F229343D0
:100DC0000B3A13434B70704700080040002000406E
:100DD000054A117802230B43137011000E228B6811
:100DE0001A42FCD17047C0460020004010B5FFF702
:100DF000F7F910BD10B58000024B1818C078FFF746
:100E0000C9F910BDC47F0000F8B50E4C27000C379F
:100E100025786678002231002800FFF7E3FDA278EC
:100E200031002800FFF7FAFD0434BC42F0D1032062
:100E3000FFF7A6FF00210020FFF770F90120FFF760
:100E4000A9F9F8BDC47F0000F0B557464E464546A7
:100E5000E0B40500C023DB05802252005A618022E5
:100E600012035A6110230020C022D20580210904F8
:100E7000012780242403A4468224E405A24680247A
:100E80006402A046194CA14640089161C046C04684
:100E9000C046C046C046C046C046C0462F4202D0EB
:100EA0006446946101E0644654615446246A4646AF
:100EB000344202D04C46204380B25161C046C04605
:100EC000C046C046C046C046C046C0466D08013B4D
:100ED000DBB2002BD8D180225200C023DB059A61FF
:100EE0001CBC90469946A246F0BDC0460080FFFF5C
:100EF00010B5FA239B0043431A0A01210148FFF76A
:100F0000ABFE10BD0028004210B582B00123009353
:100F10000133092208210020FFF7F0FD002400948E
:100F20000223092217210020FFF7E8FD0094022385
:100F3000092213210020FFF7E1FD0094012309227B
:100F400010210020FFF7DAFD0094022304220B2178
:100F50000020FFF7D3FD074C07492000FFF7FEFDF7
:100F6000002201212000FFF777FE2000FFF76AFE34
:100F700002B010BD00280042204E000010B50C4BFE
:100F80001B78002B0DD0072318400A4B1B78012B30
:100F900003D14000084BC05A05E04000074BC05A3F
:100FA00001E0E0200002FFF74FFF054B188010BD65
:100FB0006301002064010020E07F0000D07F00007A
:100FC0008000002010B500F0CFFCFFF7D7FF10BD68
:100FD000054B1B889804C00FC0001BB2002B01DA20
:100FE000102318437047C0468000002010B5FFF75B
:100FF0007FFF10BDF8B5E0200002FFF725FF0524B4
:101000002A4F3800FFF720FF0600013CE4B2002C15
:10101000F7D10534264D2800FFF716FF013CE4B256
:10102000002CF8D150230125034204D027352E404F
:1010300075427541EDB205241E4E3000FFF704FFE6
:10104000013CE4B2002CF8D12223034201D1203B21
:101050001D430524184E3000FFF7F6FE013CE4B2B4
:10106000002CF8D14423034201D1423B1D43052407
:10107000124E3000FFF7E8FE013CE4B2002CF8D13C
:101080000A23034201D1063B1D4305240C4E3000C8
:10109000FFF7DAFE013CE4B2002CF8D1142303423E
:1010A00001D1103B1D432800F8BDC046028000005E
:1010B00004800000088000001080000020800000F4
:1010C0004080000010B50022024B1A80FFF71CFF81
:1010D00010BDC0468000002030B599B00F4B1C6D8C
:1010E000E30717D508AB029369460C48FFF77EF873
:1010F00004AD009B04936B465B7B6B736B461A7B62
:101100002A73029905A806F010FF0022290004485E
:1011100004F034FF014B1C6519B030BD001C0042C7
:101120008801002010B501000348FFF7ADF84342E5
:101130005841C0B210BDC046001C004210B5024864
:10114000FFF77CFA10BDC046001C004270B582B0AB
:10115000284D2800FFF77EFA274B802212028021BB
:101160005A50BFF34F8FBFF36F8F0131FF315A5089
:101170001A600123EB6506226939FF390020FFF769
:101180004DFC062219210020FFF748FC1B4E338836
:10119000FE24E40023403380194A13780F210B40CA
:1011A00013700094174B01936A4600210020FFF74B
:1011B00017F933882340009301946A4600210120E7
:1011C000FFF70EF9104B002201210020FFF754F920
:1011D0002800FFF79BF90D4B1B78052B02D9032242
:1011E0000A4B1A70094B19780A000248FFF7B2F946
:1011F00002B070BD001C004200E100E0F4020020DB
:10120000E2020020FF070000FFFFFF1FE9020020AD
:1012100070B58AB00222184B1A70184B1B78313304
:10122000174A1370FFF792FF02F09CFA04AB029387
:10123000114E06AC134D3378022BFDD10122210053
:10124000280004F06FFE00280FD1637B002B09D12A
:101250006946200001F0DCF8002806D06846FFF758
:1012600061FF02E0200002F00BFA04F0C5FB02F07F
:101270002FFA02F0C7F9DEE7EC020020E2020020BC
:10128000F90300208801002010B505F0CFFE011CF5
:10129000094805F023FD094905F042FA05F028FA4E
:1012A00003B21A00323200DACD23181CCD2B00DD38
:1012B000CD203230C0B210BD9949E9443D0A3B41CE
:1012C000CF235843000BC0B27047C04610B580030F
:1012D000C821C90205F05CF8C0B210BDE123DB00F3
:1012E0005843C3175B055B0D1818C01280B27047D6
:1012F00010B505F09BFE06F0E5FC064A064B06F02D
:1013000031FA0022FD239B0506F02CFA06F02EFD93
:1013100010BDC046182D4454FB21094010B50005EE
:10132000000D074B984202D9F0231B02184300B26C
:10133000C002E121C90005F0B5F800B210BDC046F9
:10134000FF07000010B58A21C90505F0B3FB06F0C0
:10135000B9FC044A044B05F0EFFE06F07DFC00B238
:1013600010BDC046182D4454FB21094010B5114B47
:101370001868142105F092F800291AD10D4C0E318D
:10138000200000F083F8E0810B4B1B780B4A9C187F
:1013900024011B0702D12000FFF7D0FA04220549DF
:1013A0002000FFF7DFFA044A137801333F210B4096
:1013B000137010BDFC0300200C040020400004004A
:1013C00010B5034A136801331360FFF7CFFF10BD58
:1013D000FC030020014B18687047C046FC03002046
:1013E000014BD8887047C046FC030020014B988809
:1013F0007047C046FC030020F8B54F464646C0B4CF
:1014000000231D4A13701D4A13601D4D012417004F
:101410009146194B98460E21280000F037F8EB89C9
:1014200083420BD12B683A68934207D34B462A007C
:1014300043CA43C312681A6043461C700134E4B2C5
:101440001035412CE7D10C4A13783F210B40137023
:101450000C4C0622C031200006F070FD083CA38829
:10146000094A934202D00133044A9380FFF77EFF7A
:101470000CBC90469946F8BD0C040020FC030020EB
:101480000004400004040020FFFF000030B50029E4
:1014900012D002000139C9B2013141180748084D84
:1014A0000402A4B2000A137858404000405B604038
:1014B00001328A42F4D100E0004830BDFFFF000055
:1014C000F07F000030B583B0084CFE212000FFF70C
:1014D000DDFF05006B46991D08802000FE300222CA
:1014E00006F023FD280003B030BDC046F8020020FE
:1014F000F8B5002803D0012817D10C4D01E0802554
:10150000ED03FFF7DFFF2B8883420ED02800FFF7A3
:1015100015FA0024064F80267600E11928191022BA
:10152000FFF720FA4034B442F7D1F8BD0001400083
:10153000F802002010B50020FFF7DAFF0120FFF7C6
:10154000D7FF10BD70B5084C2000FFF7F7F9074E24
:10155000074D084BE118891910222000FFF702FA05
:101560004034AC42F5D170BD00024000DC010020E7
:101570000003400000FEBFFFC0B2014B185C704783
:10158000F8020020F0B557464E464546E0B482B01A
:101590008446FD283ED88046214B0200195401287C
:1015A0001FDD204804001C34FC235B009946814465
:1015B0000126D70F00239A46009625780195627878
:1015C0005019C317414688427B41DBB2002B19D02A
:1015D000ADB253466146A9425B41DBB2002B11D04C
:1015E00003E001220023019300930099CB005F1ACE
:1015F000BF000C4BDF197868094B0199C91806F038
:1016000094FC03E001361C344C45D5D1FFF75AFF5A
:10161000FFF790FF02B01CBC90469946A246F0BD71
:10162000F80200200C82000070B5074C2600F93645
:10163000FF36064D627821784919606806F075FC1E
:101640001C34B442F6D170BD0C820000F8020020B8
:1016500070B50100124B98420AD0124C230020337F
:10166000FD34FF34012215001868884213D100E0D0
:1016700000250C4CEB005A1B9200105D0A4A8018A2
:101680005D1BAD0065196A7806F04FFCFFF71AFF85
:10169000FFF750FF03E001321C33A342E3D170BDDA
:1016A000E90200200C820000F802002010B500239F
:1016B00011280CD8C300181A8000064B18180B000C
:1016C00016C816C316C816C302681A60012318008C
:1016D00010BDC0460C8200000A4B984206D00A4A50
:1016E000203201231168814203D100E0002358B267
:1016F00006E00133DBB21C32122BF3D10120404251
:101700007047C046E90200200C82000070B582B02C
:101710000400112800D99FE0C5002D1AAD004F4BE1
:101720005D196E78320001A806F0FFFBAB78062B3E
:1017300000D983E09B004A4AD3589F46E3001B1B15
:101740009B00464AD3181B7B01AA12789A4201D902
:1017500001AA1370E3001B1B9B00404AD3181B7A9D
:1017600001AA12789A4269D201AA137066E0E300D6
:101770001B1B9B00394AD3181B7B5BB201AA127852
:1017800052B29A4201DD01AA1370E3001B1B9B00B9
:10179000324AD3181B7A5BB201AA127852B29A422B
:1017A0004CDA01AA137049E0E3001B1B9B002B4A93
:1017B000D3189B8901AA12889A4201D901AA1380E1
:1017C000E3001B1B9B00254AD3181B8901AA128822
:1017D0009A4233D201AA138030E0E3001B1B9B0026
:1017E0001E4AD3180C229B5E01AA0021525E9A4227
:1017F00001DD01AA1380E3001B1B9B00174AD318CD
:1018000008229B5E01AA0021525E9A4216DA01AAC2
:10181000138013E0E3001B1B9B00104AD318DB6806
:10182000019A9A4200D90193E3001B1B9B000B4ACB
:10183000D3189B68019A9A4200D20193E3001C1BC3
:10184000A400064B1C196468320001A9200006F0B0
:101850006CFB2000FFF7FCFE02B070BD0C820000A4
:10186000F081000010B5002803D001280AD10649F4
:1018700001E08021C90380225200044806F055FB94
:10188000FFF7D2FE10BDC04600014000F802002064
:1018900010B5802252000249024806F046FB10BDF6
:1018A00000024000DC010020F0B5474680B48022F1
:1018B0005200FF210F4806F041FB0F4CFC235B0058
:1018C0009846A0440B4F2500103566783200290059
:1018D000606806F02AFB2078C0193200290006F063
:1018E00024FB1C344445EED1FFF724FE04BC904693
:1018F000F0BDC046F80200200C820000F0B583B0B5
:101900000020FFF7AFFF174CFE26A75D2500FE3530
:101910006B781B021F43FE212000FFF7B7FD0190EB
:101920000120FFF79FFFA35D6D782D021D43FE216F
:101930002000FFF7ABFD854202D0FFF7B5FF0CE0BA
:10194000019B9F4206D00120FFF78CFF0020FFF78C
:10195000CFFD02E00020FFF785FFFFF799FF03B0FE
:10196000F0BDC046F80200208223DB051B6A980503
:10197000C00F1A0601D50230C0B29B0601D5043053
:10198000C0B2044A137803401370034A1378034328
:1019900013707047830000208200002010B5A82239
:1019A00092000D4B5A618223DB051B6A9805C00F1C
:1019B0001A0601D50230C0B29B0601D50430C0B270
:1019C000064A137803401370054A137803431370D3
:1019D000FFF7D4FA10BDC046002800408300002065
:1019E00082000020044B1878C043044B1B78184336
:1019F000072318407047C046820000208300002063
:101A000010B582B000240094012300220921002097
:101A1000FFF774F800940123002207210020FFF74C
:101A20006DF800940123002205210020FFF766F8DD
:101A3000012209210020FFF723F8012207210020BD
:101A4000FFF71EF8012205210020FFF719F80722F1
:101A5000254B1A70254B1C70254B1B789B0707D410
:101A6000063A234B1A7019004B681A42FCD109E060
:101A70001F4A137802218B431370110002224B6816
:101A80001A42FCD11A4B59781B220A435A701A6920
:101A9000A82189000A431A619A690A439A611A6B5C
:101AA0000A431A635A6B5A63DA6912490A43DA61C4
:101AB000196AB0220A431A62197802220A431A707C
:101AC000190002224B681A42FCD10B4B08228021DC
:101AD0005A50BFF34F8FBFF36F8F0131FF315A5010
:101AE0001A6002B010BDC0468300002082000020B2
:101AF000002800400000B0B000E100E0F0B54F4623
:101B00004646C0B483B0514C27680023009302338B
:101B100009221C210020FEF7F1FF21000020FEF722
:101B2000EFFE002400254A4B98461E00494B99467B
:101B30000A2003F0CBFC002000F02CFF00F032F96B
:101B4000002805D043461A784023134342461370B9
:101B5000002000F03DFF002809D03278082313430D
:101B600033704B461888FFF7D9FB3B4B188000F0C9
:101B70004FFA002804D0364A117820230B43137003
:101B800000F04EFA222804D8314A117810230B4372
:101B90001370324B1B78002B05D12D4A117801238D
:101BA0000B43137004E02A4A137801218B4313700E
:101BB0000134A4B2FEF79CFE00280BD0FA235B0090
:101BC0009C4207D9FEF7ACFE070020490020FEF733
:101BD00097FE0024224B1B78002B04D1214A117858
:101BE00001230B431370194B1B689F4204D01D4AFD
:101BF000117802230B431370154B1B789B0703D5F9
:101C00000322194B1A7002E00022174B1A7003F0DE
:101C1000F3FE401B154B98428AD9FFF78FFA002834
:101C200004D00B4A117808230B431370104A136831
:101C300001331360FFF7C4FBFA239B009C46654405
:101C40001C210020FEF750FF72E7C046A488000068
:101C50007A010020CA010020D60100206401002082
:101C6000F2020020D801002068010020E7030000F4
:101C7000C401002070B5C046C046C046C046C0463C
:101C8000C046C046C046C046C046C046C046C04624
:101C9000C046C046C046C046C046431EDBB2002810
:101CA00039D00020C021C905802292028226F60583
:101CB0000425400080B28A61C046C046C046C04686
:101CC000C046C046C046C046C046C046C046C046E4
:101CD000C046C046C046C046C046C046346A2542DB
:101CE00001D0013080B24A61C046C046C046C046FD
:101CF000C046C046C046C046C046C046C046C046B4
:101D0000C046C046C046C046C046C046013BDBB2E6
:101D1000FF2BCED100E0002070BDC046F0B585B0ED
:101D2000019002AB9F1D00233B8003AE3380C02592
:101D3000ED058024E4006C610C20FFF79BFF3880E8
:101D40000620FFF797FF3080AC610022002102AB34
:101D50009D1D01202B889BB21341184201D00131F7
:101D6000C9B201320C2AF5D10022012003AB1B8835
:101D70009BB21341184201D00131C9B20132062A87
:101D8000F4D10020CB070BD403AB1A8838231340BF
:101D9000202B05D102AB06331B88019A138001303A
:101DA00005B0F0BD034B18780A23834280414042BE
:101DB0007047C0468400002070B51248FFF7AEFFA0
:101DC000051E07D1104B1B780A2B18D801330E4A79
:101DD000137014E000220C4B1A700A4B1C880B4B3A
:101DE000E2180B4B1A800B4B1888FFF797FA241A4E
:101DF0002405240D054B9C466444074B1C80280099
:101E000070BDC046DE0200208400002000F8FFFF05
:101E1000CC010020E00200207201002010B582B049
:101E200001230093013309220A210020FEF766FEF8
:101E3000002400940223092211210020FEF75EFEF7
:101E400000940123092202210020FEF757FE0122FF
:101E500002210020FEF714FE014B1C7002B010BDE1
:101E600084000020F0B54F4680B48AB00026099661
:101E7000FEF7B6FDFFF742FDFFF7BEFA00F0DAFD10
:101E80003423009380235B013A4A3B493B4803F0EB
:101E900069FF0023402209A9384803F01DFF3C23B5
:101EA000019304330093099B04223549354803F01C
:101EB000C5FF802464000023220009A92F4803F0F5
:101EC0000BFFB42506950127059704960523039378
:101ED00002930194099B009300232B4A2B492C4821
:101EE00004F078F80023220009A9244803F0F4FE46
:101EF0000695059704960323039302930194099B87
:101F000000930023234A2449244804F063F88023E3
:101F1000DB00994600234A4609A9184803F0DCFE75
:101F20000695059704960423039302934B46019369
:101F3000099B009300231A4A1A491B4804F04AF8E7
:101F40000023220009A90D4803F0C6FE0695059757
:101F500004960223039302930194099B00930023A8
:101F6000124A1349134804F035F80AB004BC9146EC
:101F7000F0BDC04660060020048400002C0600204E
:101F80001084000088010020FD1A00001C8400005D
:101F9000601600204D20000028840000100400205E
:101FA0001112000038840000780500206123000031
:101FB00044840000C404002010B5FEF7F9FBFEF7CE
:101FC00073FC08480849091AFEF77CFCFEF790FCF0
:101FD0000028FBD0FEF782FC044B187002F0FAFEDA
:101FE000002010BD28000020C8290020F202002097
:101FF000014B18787047C0468B000020024B1878C0
:10200000024A12781A707047890000208B00002065
:10201000024B187800221A707047C04685000020D5
:10202000014B18787047C0468700002010B5002883
:1020300002D0012803D005E0034B187803E0FEF737
:102040007BFE00E0FF2010BD8600002070B500235D
:10205000284A1370284A1370284A1370FEF72EFE80
:10206000FEF7D2FE264C274E234D012003F02EFA18
:102070002378012B1AD0002B02D0022B26D02EE081
:10208000FEF7B4FEFFF722F903001F4A1070194A49
:102090001278824201D2174A10702F2B02D90122E6
:1020A000164B1A700120FEF7A5FE18E0FEF79EFE03
:1020B000FFF706F930702B78984201D3002B01D13D
:1020C0000D4B18700220FEF795FE08E0FEF78EFE1D
:1020D000FFF7DAF80D4B18700020FEF78BFE084A68
:1020E00013780133DBB21370022BBED90022044BEC
:1020F0001A70BAE7890000208800002085000020BF
:102100008A000020870000208B000020860000202D
:1021100010B50123094A1370094A1370094C0023B2
:102120002370FEF7CFFFFEF765FF2070FFF776FE06
:10213000FFF766FCFEF746FF10BDC04663010020B6
:10214000640100209400002010B5012000F008FC7C
:102150000023024A1380024A138010BD8C00002025
:102160009200002010B50023034A1370034A137035
:102170000020FEF73BFF10BD63010020EE020020AF
:1021800010B50400012810D0002804D0022805D082
:10219000032807D00DE0FFF7E5FF06E00022054B1E
:1021A0001A7002E00122034B1A70FEF70BFF024B7C
:1021B0001C7010BD6401002063010020014B1878E1
:1021C0007047C0469400002010B5034B1870FEF70E
:1021D0000DFFFEF7F7FE10BDEE02002010B5234BF9
:1021E0001B88234A12889A1A92B210B2214B19887E
:1021F000C317C4185C4000238C4206DD002802DDB2
:10220000531A1BB201E053181BB21B490A889A1AD1
:1022100092B210B20B80194C2188521812B222804F
:1022200017498A4201DD218004E016498A4201DA19
:10223000124A1180114A0021515E134A12784A4312
:102240005212124909784B431B11D318104A1278C5
:1022500042435210D34203D501220E4B1A7002E0C2
:1022600000220C4B1A70002010BDC046D601002081
:1022700072010020F0020020900000208E0000205B
:102280009C630000649CFFFFF8030020D201002043
:10229000ED0200206401002010B504002A4B1B78D9
:1022A00083423DD2012000F093FB002834D0274B1D
:1022B00000229B5E002B07D1254B1A88234B1A80E6
:1022C000244B1A88244B1A80234B00229B5E002B40
:1022D0000DD0204A0021525E9B1ADA179B185340FA
:1022E0001E4A12785200934201DDFFF72DFF184B72
:1022F00000229B5E154A0021525E9B1ADA179B183A
:102300005340164A12785200934202DA0E4B1C7860
:1023100017E0FFF719FF14E0012000F03BFB10E08D
:102320000B4B00229B5E094A0021525E9B1ADA1772
:102330009B185340094A12785200934201DDFFF77F
:1023400003FF200010BDC046CE0100208C000020FD
:1023500072010020D601002092000020D30100204D
:10236000F8B5FFF7D5FE0022134B1A80134C144D1D
:10237000144E012003F0AAF8FEF72AFE2378184332
:102380001F2318402070FFF72DFB40012378C01851
:102390002070FFF711FDFFF705FD0028E9D12B782C
:1023A000012BE6D1FFF71AFFFFF776FF0700FEF7D4
:1023B0001DFE3770DDE7C046D601002094000020E6
:1023C00063010020EE02002010B504000D4B002038
:1023D000185EFEF783FF0005000D6070000AA07014
:1023E000094B1B78E370FFF703FE2071FFF718FE1F
:1023F0006071064B1B78A3710020FFF717FEE07198
:10240000072010BD720100207A010020EE0200209A
:10241000F0B58BB005000E0003795AB2002A00DA3D
:1024200058E202683F241C40DA4B1988FE23DB0087
:1024300013408B4200D03BE20F271740D64B1B784E
:102440009F4208D0002F06D0082C00D030E29F42D7
:1024500000D84BE22CE2002000F082FA00227273D6
:10246000CC4B1988CC4B1B780B43336080235B42E9
:102470002343B1680B700123337332713F2C00D9B1
:102480002AE2A300C54AD3589F46B368581C2A7B4A
:10249000691D05F04AFD2B7B337301274EE2A879B5
:1024A00000026B79181880B2FEF738FF031CBC4A93
:1024B000904201DABB4B1B881A1CBB491BB28B42F2
:1024C00001DDBA4B1A88BA4B1A80B068FFF77CFF5F
:1024D000337BC0183073012730E2B068FFF774FF18
:1024E000337BC0183073012728E20023B268537091
:1024F000B2689370B468FFF761FEE070B4680120C1
:10250000FFF794FD2071FEF76BFFB3685871000A66
:10251000B3689871B468FFF771FDE071337B0733DE
:10252000337301270AE2A34B1B680893B368581C56
:10253000032208A905F0F9FCFEF74CFF0890B368E8
:10254000181D042208A905F0F0FC337B0733337310
:102550000127F3E16B79B2685370327B0132327339
:102560007F20184001A9FFF7A1F86B797F2B17D9BD
:1025700000280AD1B368981C0622002105F0DEFC71
:10258000337B063333730127D8E1B368981C0622E6
:1025900006A905F0CAFC337B063333730127CDE16E
:1025A0002B7B022B03D0AB799B069B0F00E0002313
:1025B000002800D0ACE11B01B2689370337B01337B
:1025C00033730127BAE101AB5C78B268D01C029981
:1025D000220005F0AAFC337BE31833730127ADE139
:1025E00001AB5C78B368D81C220003A905F09DFC00
:1025F000337BE31833730127A0E101AB5C78B36848
:10260000D81C220004A905F090FC337BE318337337
:10261000012793E101AB5C78B368D81C220005A9BF
:1026200005F083FC337BE3183373012786E16B7974
:102630007F241C4001A92000FFF738F8071E00D1B5
:102640007CE1AB799B069B0F00D047E1E91D2000A0
:10265000FFF75CF8B3685C70337B0133337301AD13
:10266000AB78B2689370337B013333732900200059
:10267000FFF71CF86C78B368D81C6968220005F075
:1026800054FC337BE318337358E1B3685C1C01F0EE
:10269000C1F801000222200005F047FC337B023321
:1026A0003373B368DC1C01F0B1F801000222200092
:1026B00005F03BFC337B02333373FEF797FEB368C0
:1026C0005871000AB3689871337B02333373012762
:1026D00034E1314B1B78DF1B012F0FD002DC002FC0
:1026E00005D0FDE0022F19D0032F24D0F8E0691D9A
:1026F00002222620684405F018FC26E02B7B0027E8
:10270000032B00D81AE126246C44A91D02222000C4
:1027100005F00BFC23881B09238016E02B7B002788
:10272000052B00D80AE1290008310222262068443E
:1027300005F0FBFB09E02B7B0027062B00D8FDE012
:1027400026226A4413881B09138026236B441888A9
:10275000FEF7E4FD164B1880174B0020185EFEF7BD
:10276000BDFD03051B0D1A0AB1688A70B26853706B
:10277000337B023333730127E0E06B79B268537027
:102780006B790E4AD35CB2689370337B0233337338
:102790000127D3E0F4020020E2020020548400006C
:1027A00072F8FFFF508400008E0700005284000082
:1027B000D6010020C401002072010020DC010020AD
:1027C000A9796B795F4AD1546B79B2685370AB7950
:1027D000B2689370337B023333730127AEE06B79B9
:1027E000B2685370AA23B2689370337B0233337399
:1027F0006B79072B32D89B00534AD3589F46012050
:10280000FFF7BEFC012799E00020FFF7B9FC012784
:1028100094E00220FFF7B4FCA879FFF7D5FC01276C
:102820008CE00320FFF7ACFCA879FFF7CDFC012773
:1028300084E0464B0020185EFEF750FD444B1880A4
:102840001800FEF705FF012778E0FEF77BFE012761
:1028500074E000223F4B1A7001276FE0B368EE224C
:102860009A7001276AE06B79B2685370B46868792E
:10287000FEF782FEA070337B0233337301275DE0E5
:10288000A9796879FEF77EFE6B79B2685370AB79EF
:10289000B2689370337B0233337301274EE06B7958
:1028A0000127002B4AD1FEF777FAFEF791FA45E0AF
:1028B000FE23DB0000279A4240D10137002C3DD196
:1028C000254B1B78194331608023B26813707F3B1E
:1028D000337333E0002731E000272FE000272DE09D
:1028E00000272BE0012729E0002727E0002000F047
:1028F00037F800227273194B1988174B1B780B435A
:1029000033608823B1680B70873B33733271E0E624
:102910001A0101A989780A43B1688A70327B0132B1
:102920003273012B00D15BE6002B00D14BE6022B6A
:1029300000D162E6032B00D16CE6D5E738000BB07E
:10294000F0BDC046DC01002054850000CC01002011
:10295000E00200207A010020E2020020F4020020C0
:10296000012808D0002802D0022808D00CE000225C
:10297000064B1A8008E00022054B1A8004E0002371
:10298000024A1380024A13807047C046D4010020D7
:1029900080010020002802D0012809D010E0094B56
:1029A0001B88094A93420BD00133064A138007E083
:1029B000064B1B88044A934202D00133034A13801A
:1029C0007047C046D4010020FFFF000080010020B6
:1029D00010B5002802D0012812D021E0114B1B783D
:1029E0000020002B1DD0104A1488643058430A215F
:1029F00003F058FD0123844200DC0023D8B210E02C
:102A00000A4B1C880A4B1878FA239B0058430A216A
:102A100003F048FD0123844200DC0023D8B200E02B
:102A2000002010BDC8010020D4010020800100203A
:102A3000D90100200023024A1380024A1380704704
:102A4000D401002080010020012B0FD1012A05D1E3
:102A5000204A214B0A604B6001203AE0C92A0FD17D
:102A60001E4A1F4B0A604B60012032E0022B07D147
:102A7000012A05D11B4A1C4B0A604B60012028E04B
:102A80000B2A05D1194A1A4B0A604B60012020E03D
:102A9000052A05D1174A184B0A604B60012018E03F
:102AA000042A05D1154A164B0A604B60012010E03C
:102AB0000A2A05D1134A144B0A604B60012008E032
:102AC000124B00209A4204D1044A054B0A604B6025
:102AD000013070479E6AC421818A46EEF33AEC3891
:102AE0006248A7D8401DA12026812A0BD5A4D13940
:102AF000F922B6A7F017304A39059E56042B31EC5F
:102B0000A7766FBECDD269EBC51A133BF203000066
:102B100030B58DB02A4B1B78002B4FD1294B1B7839
:102B2000012B0BD0002B02D0022B0FD046E0062247
:102B3000254908A805F0F9F906240DE006222249E6
:102B4000063108A805F0F1F9062405E004221F4922
:102B500008A805F0EAF904241F236B4400221A7028
:102B6000073200210AA801F063FA164B1B78002BEC
:102B700004D101221F336B441A7003E000221F238B
:102B80006B441A700AAD1F236B44012207212800F1
:102B900001F04EFAE20008AB0821280001F048FAE3
:102BA00001340494039518230293094B01930123E4
:102BB0000093084A084B094801F038F90DB030BDC0
:102BC000301F0020401F0020701F00207C1F0020AD
:102BD00097000020401DA12026812A0B481F0020BD
:102BE00030B58BB008AD264B08220021280001F03B
:102BF0001FFA244B0020185EFEF77AFB01F034FD2B
:102C00001E236B44188010220821280001F010FABE
:102C1000FFF7EEF91D246C442070230008221821D0
:102C2000280001F005FAFFF7FBF9207023000822C5
:102C30002021280001F0FCF9134B1B78237023009E
:102C400008222821280001F0F3F90020FFF7EEF90F
:102C50002070230008223021280001F0E9F9072321
:102C60000493039509330293084B0193084B009397
:102C7000084A094B094801F0D9F80BB030BDC046ED
:102C8000E202002072010020EE02002096000020E7
:102C9000344E0000497308BEB3DA99CD481F0020B6
:102CA00030B50022084B1A8000290CD003000139EE
:102CB000C9B201314018044C1D782288AA1822801C
:102CC00001338342F8D130BD6C1F0020044A1388C1
:102CD000C7205843034B9C46604480B21080704725
:102CE0006C1F0020EF1E000010B582B00400184BCE
:102CF0001A786B46DA71174B1B78002B03D0002231
:102D00006B469A7102E001226B469A7107220021FC
:102D1000200005F013F902F06FFEFA21890003F09C
:102D200037FB00906B4620220021200001F080F943
:102D30006B46073302222021200001F079F96B460F
:102D4000063303222221200001F072F902B010BDE7
:102D500068010020301F002010B5E6B004007A2280
:102D6000FF32002107A805F0E9F807A8FFF7BCFF2C
:102D700000F050FD010002222320684405F0D5F840
:102D8000012207AB5A72184B1F32502107A801F0DD
:102D90004FF900F03BFD010002223220684405F0AB
:102DA000C4F80023114807AAD218C15C1176013378
:102DB000102BF8D117220E494520684405F0B5F8CC
:102DC000E17E4023059307AB049300230393A37E86
:102DD00002931934019401230093064A064B0748D5
:102DE00001F0A2F866B010BDA4880000701F00209A
:102DF000748500009E6AC421818A46EE481F002027
:102E000010B588B00C4B1B78002B12D006AC2000FC
:102E1000FFF76AFF07230493039409330293074BD8
:102E200001935623FF330093054A064B064800F0F2
:102E3000FDFF08B010BDC046301F002095000020E7
:102E4000F1C6A7C1D068080F481F002010B588B090
:102E500004001F236B44009300230722002101F08C
:102E600005FDA38A112B5BD8072B1AD118336B44AD
:102E70001B78002B54D103AB30220821200001F035
:102E800035FC062203A9274805F040F8002847D161
:102E90000122254B1A70254B00229A616432DA61B7
:102EA0003EE00D2B1AD112336B441B78002B37D127
:102EB00003AB60220821200001F018FC0C2203A9BA
:102EC000184805F023F800282AD10222164B1A7060
:102ED000164B00229A616432DA6121E0112B1FD176
:102EE0000E336B441B78002B1AD003AB80220821D1
:102EF000200001F0FBFB102203A90A4805F006F8A8
:102F000000280DD10322084B1A70023A084B1A70A0
:102F10001F236B441978074B1970074800F07EFF98
:102F200008B010BD701F0020401F002000000020CE
:102F3000301F0020F9030020481F002030B58BB05F
:102F4000040001221F236B441A7027256D4400954D
:102F500000230732002101F089FC2B78002B02D1DD
:102F6000FEF7E8FA03E0012B01D1FEF79DFC08AD66
:102F700007220021280004F0E1FF1F236B440122F7
:102F80001A703021280001F053F8E17E07230593E1
:102F9000049500230393A37E0293193401940A231A
:102FA0000093034A034B044800F0BEFF0BB030BD52
:102FB000CDD269EBC51A133B481F0020F0B583B092
:102FC00001900D4F00243D68280004F0BFFF02006F
:102FD0002900019804F0C1FF002805D160000619FE
:102FE000B6000548801904E001340C37122CEAD1F0
:102FF000002003B0F0BDC0462886000010B51400C4
:10300000052808D0072803D00023032809D105E0AC
:103010000B68DB0F05E00B88DB0B02E00B78DB09AC
:10302000FFE7002B05D00822FF21200004F086FFD7
:1030300004E008220021200004F080FF10BDC046FB
:10304000F0B5474680B48CB005000C0000222F2359
:103050006B441A7001322E236B441A7000282CD155
:103060001D0000261E702F236B4404320021200017
:1030700000F0DEFF2B0003220521200000F0D8FF26
:103080002F236B4406220821200000F0D1FF2B00E3
:1030900002220E21200000F0CBFF2F236B440622DA
:1030A0001021200000F0C4FF2B0002221621200076
:1030B00000F0BEFFE6700420C1E02F236B44052220
:1030C0000021200000F0B4FF2E236B4403220521D1
:1030D000200000F0ADFF00220023089209936B79D5
:1030E000012B18D101322D336B441A70A868FEF7FA
:1030F000F3FA002804DA00222E236B441A700EE043
:1031000001AEC0B23100FEF7D1FA7168B07808AAFA
:10311000FFF774FF03E000222E236B441A702A7914
:10312000A96808A804F001FF08AB4022082120008C
:1031300000F07EFF2F236B4405224821200000F081
:1031400077FF2E236B4403224D21200000F070FFF7
:103150006B795027012B11D101AEB07808AA05A9CF
:10316000FFF74CFF727805A908A804F0DEFE08AB53
:1031700040225021200000F05BFF40372F236B449A
:1031800006223900200000F053FFB91D2E236B44A6
:103190000222200000F04CFF08239846B8446B79C7
:1031A000012B13D101AEB07808AA04A9FFF726FFBE
:1031B000727804A908A804F0B8FE08AB4022414682
:1031C000200000F035FF48239846B8442F236B4475
:1031D00006224146200000F02BFF4346991D2E2376
:1031E0006B440222200000F023FF464608366B792C
:1031F000012B11D101AFB87808AA03A9FFF7FEFE91
:103200007A7803A908A804F090FE08AB40223100A8
:10321000200000F00DFF4036F317072018408619F4
:10322000F6102F68380004F091FE0200A019390052
:1032300004F07BFE286804F089FE3618B0B20CB0AA
:1032400004BC9046F0BDC046F0B59FB006007623A2
:103250006B44012252421A8075246C440022227071
:10326000002000211A901B91009300230D320021B1
:10327000300001F0FBFA0094002303220D213000FE
:1032800001F0F4FA23781025012B08D11AAB009332
:10329000002340221021300001F0E8FA4035EB17FE
:1032A00007271F407F19FF10B38ADF1BBFB200231F
:1032B00016930C22002117A804F040FE002F0CDD0D
:1032C00016ACE7190094002308222900300001F011
:1032D000CDFA08350134BC42F4D116AB1B78002B73
:1032E00004D016A8FFF76AFE040009E076236B44B9
:1032F0001B88112B11D85C00E3189B00164CE418B6
:10330000002C0BD075236B441B78012B06D122793E
:103310001AA9A06804F009FE00E0002406AF002509
:1033200006953C22002107A804F008FE3900200081
:10333000FFF786FEF17E059004970395B37E029316
:10334000193601960B230093044A054B054800F0FB
:10335000EBFD1FB0F0BDC04628860000D5A4D139D2
:10336000F922B6A7481F002070B58AB004000120DA
:10337000FEF75CFE1F236B4418700822002108A88A
:1033800000F056FEFEF72CF8FF2804D9FF221F2379
:103390006B441A7002E01F236B4418701F266E44A2
:1033A00008AD330008220821280000F041FEFEF796
:1033B00025FE3070330008221021280000F038FE6E
:1033C000FEF708F8069006AB20221821280000F02E
:1033D0002FFEE17E07230593049500230393A37E2C
:1033E000029319340194C9230093034A034B044800
:1033F00000F09AFD0AB070BDF33AEC386248A7D8E5
:10340000481F0020F0B599B00C000B7E012B0ED1A7
:10341000CB8A012B05D10800FFF79EFC237E012BF0
:1034200005D1E38AC92B0BD12000FFF79DFF237E36
:10343000022B05D1E38A012B02D12000FFF706FD04
:10344000E38A0B2B02D12000FFF7FEFEE38A052B57
:1034500033D1002216336B441A7008AB009300235B
:1034600028320021200001F001FA574B089A9A42B5
:1034700008D1099BAC2B05D1AB3B1B226A441370CE
:10348000524A137007AD00262E801B236B44012285
:103490000021280000F0CCFDE17E01230593049576
:1034A0000396A37E0293230019330193052300930F
:1034B000474A484B484800F037FDE38A042B2AD19D
:1034C00008AD002608963C22002109A804F036FD2C
:1034D000424B30220021280000F0AAFD404B302250
:1034E0003021280000F0A4FD3E4B3022602128004E
:1034F00000F09EFDE17E1223059304950396A37EC2
:10350000029323001933019304230093364A374B67
:10351000314800F009FDE38A0A2B02D12000FFF7B1
:103520000DFD334BE28A9A424BD1A38A002B48D03F
:103530000025304F1B266E440096002308222900E8
:10354000200001F093F932783B789A4234D1290077
:10355000083107AE009600230822200001F086F90A
:103560002900103108AB009300231022200001F045
:103570007DF93378002B02D0012B12D01CE008AE6D
:10358000308801F099F81C4903F094FA03F0B0F880
:1035900080B2FDF7C3FE194B18803288184B1A8091
:1035A0000AE008AE308801F087F8FDF7CBFE134B38
:1035B00018803288124B1A802035ADB2A38AAB42F4
:1035C000B8D819B0F0BDC0461E1B55CE201F002034
:1035D000F017304A39059E56481F0020181F00205A
:1035E000281F0020381F0020042B31ECA7766FBE67
:1035F000F2030000E20200200000E144D6010020B6
:103600007801002070B584B01A4800F0FFFC002853
:103610002ED00026184D03680093037B6A4613736F
:10362000043002901671012353736846FDF77AFD4A
:1036300000280CD11149012200230C684D68121991
:103640006B410A604B60013001F040FF10E0012245
:1036500000232868696812184B412A606B60054C8A
:10366000200000F0DBFC200000F0D0FC0028D2D1CC
:1036700004B070BD481F0020181F0020381F002014
:1036800030B585B080231B06026813430093027B8C
:103690006B461A73011D01A804F047FC0A49012278
:1036A00000230C684D6812196B410A604B6002F0F0
:1036B000A3F9FA239B0043431A00002369460348F9
:1036C00000F012FD05B030BD281F0020481F00206B
:1036D000F0B583B00700204C002501952600236833
:1036E000002B02D16368DB19236033689F4219D92C
:1036F000B368984733687268944663443360EBB2AA
:10370000022B0FD1FFF7E2FA134C0C23019D5D430E
:103710009621490002F0C2FE89B22B599C466144B1
:10372000295103E001350C34032DD6D10B4B1B7806
:10373000002B06D00A4A3B000A3313600022074BD5
:103740001A70074B1B689F4203D2FDF725FBFDF75C
:103750003FFB03B0F0BDC04600000020201F00204A
:10376000441F002010B582B01B4C2000FDF786FAE4
:1037700010212000FFF794FA0023184A1360184A1A
:103780001370184B1B78002B04D1174A1370174A7B
:10379000137002E00122144B1A7000220023144916
:1037A0000A604B6013490A604B6013490A604B6022
:1037B000124C00230193124B0093124B80221201F2
:1037C0001149200000F0FAFA064B1978200000F0A9
:1037D00025FB02B010BDC046701F0020441F002012
:1037E000201F0020F9030020301F0020401F002070
:1037F000181F0020281F0020381F0020481F00200D
:10380000492A0000053400001817002000487047BE
:10381000008700000048704704870000FEE7C046AC
:1038200010B51B4A1B4B9A4203D01A001A4B9A42FE
:1038300004D31A4A1A4B9A4210D31EE0194A164B67
:1038400003339B1A9B0801339B0000221148104947
:103850008C58845004329A42FAD1EAE7124A104B4B
:1038600003339B1A9B0801339B0000220B48002165
:103870001418216004329A42FAD10C4AFF210C4BF1
:103880008B43936004F01CFBFEF796FBFEE7C046FB
:103890007C88000000000020280000202800002074
:1038A000C8250020040000202C00002000ED00E0CE
:1038B00000000000F0B55F4656464D464446F0B461
:1038C00083B082468B46C3690193002B02D103006B
:1038D000D9614CE04B68DA00D7081800D90F520DB7
:1038E00090465B00DB0F9946002801DB3B0000E0BF
:1038F00013009C46019B00931C0000E01C006268C2
:10390000D300DB081600D50F8D420BD01A00002E15
:1039100000DA9A0C002827DA904510D062459241CF
:1039200055420AE0BB4205D1920F01252A404D467F
:103930004A4502D1BB429B415D42002D0DD0019B07
:10394000A34205D15B461C6053465A46DA610EE03D
:10395000009B5A461A60146009E023680094002B0B
:10396000CCD15B46236002E09742D7D1F5E703B0A4
:103970003CBC90469946A246AB46F0BDF0B55F46CA
:1039800056464D464446F0B485B0029003930E9CD3
:10399000CB089C46E3089A46072319402340881821
:1039A000814233D007229046009046460E4045465D
:1039B0001D40321CAE4200D22A1CD2B20098441ADA
:1039C0000820821AA24200D92200DC08544403983D
:1039D00081462000484401900778C8088146029833
:1039E00060444C46005DB0400600EE407E40FF2043
:1039F0000002D040FF242040284106407740019833
:103A0000077089189B18009A8A42CED105B03CBC39
:103A100090469946A246AB46F0BDC04609024840D2
:103A20000823074902B2002A03DA400080B2484066
:103A300001E0400080B2013BDBB2002BF2D17047C5
:103A40002110000070B5002A07D00C008D182178D5
:103A5000FFF7E4FF0134AC42F9D170BD10B5026844
:103A6000002A0BD013680360C38801339BB2C38064
:103A7000048911009C4202D2038100E00021080069
:103A800010BDC04610B54B68002B09D01A68C46839
:103A90001C60C360438A013B43824A60131EF5D118
:103AA000CB8A9B0A9B02CB820020002110BDC0461E
:103AB00030B589B004000D0020220021684604F0D2
:103AC0003DFA04952000FFF7C9FF041E03D0202211
:103AD000694604F02AFA200009B030BDF0B55F460F
:103AE00056464D464446F0B483B0009088461600D2
:103AF0001A000193CB8A9B059B0D062B29D0CB8AFC
:103B00009B059F0D052F13D895B2002D15D03200BF
:103B10003B00002410784146C918887601339BB2D7
:103B20000134A4B2062B04D00132AC42F2D304E03B
:103B300000246B469D88A5420CD87B199B059A0DE5
:103B40004346DB8A9B0A9B0213434246D3820120F1
:103B500081E000244346D88A8005800D831F9B4660
:103B60001C21180002F09AFC8BB29A4643465B680F
:103B7000002B06D01D6801229146002D12D11D0098
:103B800017E00098FFF76AFF051E55D00023036079
:103B90004346586000239A466B469F8800239B4605
:103BA00036E01D004B4601339BB299462B68002B33
:103BB000F7D1019B5B4418001C2102F0E9FB0130A6
:103BC00083B24B45E8D95346002BE5D10098FFF767
:103BD00045FF002836D00023036028600500DBE79E
:103BE000315DEA18117101339BB20134A4B21C2B70
:103BF00002D0A742F4D80BE0A74209D90098FFF7FA
:103C00002DFF002823D05B46036028600500DA46BC
:103C1000BC4203D253461B2BE2D9EFE74246D18A7E
:103C20008A05920DBB189B059A0D8B0A9B021343C4
:103C30004246D38201200EE0002342465360032017
:103C4000404208E000232B600320404203E00023B1
:103C50002B600320404203B03CBC90469946A246EC
:103C6000AB46F0BDF0B55F4656464D464446F0B40F
:103C700087B001900D009346049310AB40CB1F8892
:103C8000002A71D0002F02D0002E79D16FE0019B65
:103C90000C331800FFF7E2FE041E6BD01422002143
:103CA00004F04CF92200083210003A00310004F010
:103CB0003CF97B1C2374E7195A4613781F221340E2
:103CC0005F3A13433B7280231B061D43656021004E
:103CD0000198FFF7EFFD012069E00298FFF7BEFEB3
:103CE000051E4AD01422002104F028F9002C5AD1D4
:103CF0006B461B7C2B726B461B7D6B72A7420ED9E9
:103D00000223315DEA1811720133DBB20134A4B22F
:103D1000062B01D8A742F4D8A74204D101E0022320
:103D200001E040229046E8185A4612781F210A40C6
:103D3000514649010A43414611430172039A6A60A0
:103D400001332B7429000198FFF7B4FD4B46013372
:103D50001BB29946012352465A4092460023984688
:103D6000A742BAD1484622E0022040421FE002208A
:103D700040421CE00320404219E00320404216E08C
:103D8000072F84D9049B1B0A0593802398460023A0
:103D90009A4600249946019B0C33029380231B060C
:103DA0000B43039399E70023A742AAD8B4E707B0CF
:103DB0003CBC90469946A246AB46F0BDF8B504001F
:103DC0000D0016001F002422002104F0B7F8002384
:103DD0002370A760069B6360079B236272090E4BEA
:103DE0009A4200D91A0097B221000C311204120C29
:103DF0000BD02B0050012E181A000B60203311003D
:103E0000B342F9D101002039691800230B602782E1
:103E10006382A382F8BDC046FFFF00000378002B39
:103E200003D14BB2002B00DD01707047F0B557464F
:103E300080B484B0029003921D000AAB1C880CABC6
:103E40001F780EAB1E880D9B002B01D1002E57D181
:103E50001F2F58D8029B1878002817D1072E55D845
:103E6000032323409C4254D12D4D32000D9928004C
:103E7000FFF7E8FD2202C0239B0013403F061F43CB
:103E8000284B1840400207432B0024E02302034341
:103E90003F061F43072E1DD90024214820239A46A0
:103EA00020235B42E31802D42900D94006E05346A0
:103EB0001B1B2A009A400399E1401143C9B2FFF746
:103EC000ADFD0834402CEBD132000D99FFF7BAFD5F
:103ED000030000E0124B01960D9A00920B9A3900F4
:103EE0000298FFF7BFFE0B9B1B780133DBB21F2B41
:103EF00002D80B9A13700EE000230B9A13700AE09D
:103F00000220404207E00220404204E004204042F8
:103F100001E00220404204B004BC9246F0BDC0461D
:103F2000FFFF0000FE7F0000F0B55F4656464546A5
:103F3000E0B484B0039092461E000CAB1B780EAA2E
:103F400010780FAA177811AA12889046109A002AA2
:103F500002D14246002A49D11F284AD8039A15782F
:103F6000002D49D0090280222A431143FD030D434D
:103F70001B042B4305061D434346072B1DD9002474
:103F8000214820239B4620235B42E31802D43100C2
:103F9000D94006E05B461B1B32009A405146E14087
:103FA0001143C9B2FFF73AFD0834402CEBD1424629
:103FB0001099FFF747FD030000E0134B42460192C2
:103FC000109A00920D9A29000398FFF74BFE012FDB
:103FD00014D10D9A12780132D2B21F2A02D80D994B
:103FE0000A700BE000220D990A7007E0022040429F
:103FF00004E00220404201E00420404204B01CBC26
:1040000090469A46A346F0BDFFFF0000C069002815
:1040100001D0043000E000207047C046C3691A6830
:10402000C261C2681A60C360438A013B4382704721
:10403000F0B585B005000E001F00141C402A00D901
:104040004024E4B2002C32D00822002102A803F060
:1040500075FF012C04D13A7802AB1A70012416E0E6
:10406000082C03D83A7802AB1A700EE0102C03D853
:104070003A8802AB1A8008E0202C02D83B680293F1
:1040800003E03A687B6802920393630707D0E30872
:1040900002A9CA5C6042072738408240CA54009691
:1040A0002B002200002102A8FFF768FC05E008228F
:1040B000002102A803F042FFCDE705B0F0BDC046E5
:1040C00010B5CB68002B09D01A68C4681C60C360A7
:1040D000438A013B4382CA60131EF5D10023CB60A3
:1040E0008B600B618B8210BDF0B55F4656464D4626
:1040F0004446F0B491B080460E00049205930D68DA
:104100002B06DB0F05D02A04D20F93466F047F0ED7
:1041100002E0022293460027002D00DB4BE2C02282
:10412000D2053168114200D048E2327B002A00D12A
:1041300047E25946022904D041460978B94200D0E5
:1041400042E27F2129400391002B03D02B0CDBB2EC
:10415000029307E02B0A9BB20293690602D1032166
:10416000194002915B461B047F061F4303998B0491
:104170001F4302980743B218D3789946DB099A4641
:104180004CD0002200230892099300915B46020064
:1041900008A940464468A04700283CD043469C6993
:1041A000002C03D023699F420ED116E040460C300C
:1041B0003900FFF77DFC041E00D11CE243469861E4
:1041C0000BE023699F4208D02468002CF9D10AE251
:1041D00043469B69236043469C61089B0693099B69
:1041E0000027CC4807941C0020235B42FB1802D414
:1041F0002100D94006E02023DB1B22009A400699CB
:10420000F9401143C9B2FFF709FC0837402FEBD141
:10421000079CA08214E00C2040421EE243469C69A9
:10422000002C00D1D3E123699F4203D108E0236928
:104230009F4205D02468002CF9D10D2040420CE2A9
:10424000A068E1681F274B461F40E37D5B06DB0E3D
:10425000FB1A9BB21AB29446002A02DA20331BB230
:104260009C46ED00EB0E069303000B4300D1C5E125
:10427000049A059B121A8B411000002B00D0BDE15F
:1042800003D1A54B984200D9B8E15346002B51D039
:104290006346012B00DDD0E10EE0E17D4A06D20E3F
:1042A00001321F2313409A007C2399430B001343D0
:1042B000E3750D204042D0E14B465B063AD5049AA7
:1042C000059BA260E36008AD20220021280003F0D6
:1042D00035FE049A059B08920993331DAB60337B2E
:1042E000013BDBB2AB826B461B89EB825B462B76D4
:1042F0006F766B461B7EAB766B461B7BEB7643463D
:104300009B68290040469847E17D4A06D20E01325B
:104310001F231A4092005D3399430B001343E3754A
:10432000E38A9B0A9B02E3821B0A7F221340E37508
:10433000002092E14B469A06D20FE37DDB099A42B8
:1043400000D047E1E37D5B06DB0E9F4200D044E1F5
:104350005346002B3ED04B465B066DD4337B032B7C
:1043600000D83DE1049A059BA260E360B51D337B54
:10437000033BDBB240460C302A002100FFF7AEFBC6
:10438000002819DA21004046FFF77CFBE17D4A0650
:10439000D20E01321F231A4092005D3399430B0065
:1043A0001343E375E38A9B0A9B02E3821B0A7F2285
:1043B0001340E375032050E173791B0232791343F4
:1043C0002383327B033AD2B2A08A2900FFF73AFB5B
:1043D000A082E7E04B465B062ED4351D337B013BC4
:1043E000DBB240460C302A002100FFF777FB0028A3
:1043F00019DA21004046FFF745FBE17D4A06D20E5F
:1044000001321F231A4092005D3399430B0013437E
:10441000E375E38A9B0A9B02E3821B0A7F22134017
:10442000E375032019E1327B013AD2B2A08A290058
:10443000FFF708FBA082B5E0317B0139C9B2E28AFF
:104440009205920D052A1BD844D8002900D1E9E035
:10445000301D1A32A2181F239C46A44400232500B5
:104460000C006146AC46057815700133DBB2914211
:1044700039D0013001329C42F5D121006446D1E0AF
:104480006368002B29D01868002807D0062500E0B3
:1044900018001C350368002BFAD101E0180006252E
:1044A000521B1B2A1CD8002900D1BBE0351D8218E5
:1044B0001B300023A4460C00010028781071013342
:1044C000DBB2914213D0013501329C42F5D121007B
:1044D0006446A7E0002399460CE00023994609E0D2
:1044E0000023994606E021009946644602E0210037
:1044F00099466446049A059B0892099322001A3251
:104500000A9263680B93894508D24B46F31804332B
:1045100005E0C046FFFF000080841E00002308AABB
:104520000C93E38A9B059B0DC91891826B461B89EE
:10453000D3825B46137657766B461B7E93766B462B
:104540001B7BD37600236360327B013A311DA08A46
:10455000FFF778FAA082238B834203D108A9404653
:104560008368984708A94046FFF7AAFDE17D4A06FF
:10457000D20E01321F231A4092005D3399430B0083
:104580001343E375E38A9B0A9B02E3821B0A7F22A3
:104590001340E375A28A238B9A4201D011205CE07C
:1045A00000205AE0E37D80229A437F210B40134391
:1045B000E375002051E00A2040424EE00A204042CC
:1045C0004BE00A20404248E00B20404245E00D20ED
:1045D000404242E00E2040423FE00F2040423CE09B
:1045E0001020404239E040460C303900FFF760FAB5
:1045F000041E00D0ECE5032040422EE01F234A4673
:1046000013409A00E37D7C218B4313437F221340A8
:10461000E37521004046FFF735FA5346002B00D0E2
:104620004AE63AE6049A059B0892099323001A3356
:104630000A9363680B93002371E71F234A461340D4
:104640009A00E37D7C218B4313437F221340E37563
:1046500021004046FFF716FA2EE611B03CBC90460A
:104660009946A246AB46F0BD10B5C40FE4076040C2
:104670000F4B984205D90133984215D8F823DB0136
:1046800013E0000B0003F021C90402F013FA8023A9
:104690005B019C466044F8231B05984201D9F82031
:1046A0000005400B83B200E0024B200C184310BD04
:1046B000FFFF7F7FFF7F000070B5040040030A4BBF
:1046C0001840EF21C90502F0F5F9051C8F21C90535
:1046D00002F004F8002802D0FF23DB051D43E40BA1
:1046E000E4072C43200070BD00E0FF0FF0B55F46EB
:1046F00056464D464446F0B487B082460F000492B9
:104700000393868AF30000208B4200D8A4E052185D
:10471000934202D25B1ADBB204935346DB6898469D
:10472000002B00D08DE053461B69002B7DD16FE03C
:104730003023DB1B04998B46994203D33023DB1BC8
:10474000DBB29B4600230093039B5A463900504638
:104750008068FFF713F95F44049B5A469C1AE4B241
:1047600053469E8A404B9C466644F6005346DB689F
:104770009846002B34D0002C53D03021534605935B
:10478000A2464446B946B046E02E01D9E0239846F9
:1047900043465F184F4519D94B46FB1A55469A4573
:1047A00002D34B46FD1AEDB24B46591A201D5B460B
:1047B0000093039B2A00FFF7E1F8A9445B46EB183E
:1047C000DBB29B4653465D1BEBB29A464346F61A54
:1047D0002468002C07D039005346002BD3D120E0A9
:1047E0003023994605E05446059B9A464B46B94608
:1047F0001F0053461869002813D0002C11D04B46D7
:10480000F91A5B460093039B2200FFF7B7F808E014
:104810005346986800230093039B049A3900FFF7DE
:10482000ADF86B461020185E16E02F2F00D87FE7FA
:104830000AE00D4B9C466644F600049C00239B4610
:1048400099E72F2FF5D873E753461869049C302356
:10485000994600239B46D0E707B03CBC904699465A
:10486000A246AB46F0BDC046FAFFFF1FF0B583B0CD
:1048700005000F0014001E00002800D1E1E0089B95
:10488000002B00D1E0E0531E3F2B00D9DFE0012ACE
:1048900003D1002E00D1ECE0DCE0082200216846C4
:1048A00003F04CFB6B46220039002800FFF71EFF87
:1048B000011E00DCF2E0630708D0E3086A46D25C20
:1048C00060420725284002416846C254082C08D996
:1048D000102C08D9202C08D9402C00D9BDE0082381
:1048E00004E0012302E0022300E00423002E00D1B3
:1048F000D1E0DB00A34200D1CAE0082C0ED86B4601
:104900001878631E0200DA401300DB0755D5012238
:10491000A240534203436A4613704EE0102C0ED857
:104920006B461888631E0200DA401300DB074CD583
:104930000122A240534203436A46138045E0202CE3
:104940000CD8009B621E1800D0400200D20744D54C
:104950000122A2405242134300933EE03F2C00D973
:104960007EE0009D0198621E21235B42E31803D480
:104970000200DA40130006E020239B1A06009E4046
:104980002B00D3403343DB072CD520235B42E618B2
:1049900003D40127B7403B0004E02026361B012743
:1049A000F7403B000126A6403200002756429F41B7
:1049B000354300953843019014E06B461B78089A04
:1049C000137008006AE0102C05D86B461B88089A03
:1049D0001380080062E0202C04D8089B009A1A601B
:1049E00008005BE0402C3ED8089A009B019C1360B5
:1049F0005460080052E06B461B78089A1370080058
:104A00004CE0082C05D86B461B78089A13700800F8
:104A100044E0102C05D86B461B88089A13800800C8
:104A20003CE0202C04D8089B009A1A60080035E06E
:104A3000402C1BD8089A009B019C1360546008000E
:104A40002CE00220404229E00220404226E00220E1
:104A5000404223E00220404220E0092040421DE085
:104A6000092040421AE00920404217E00920404254
:104A700014E008220021684603F060FA6B46012228
:104A800039002800FFF732FE011E00DD15E705E0C2
:104A9000082C98D891E7012CB3D1ACE703B0F0BD56
:104AA000F0B583B006000D000193D41CA408A40047
:104AB000EFF3108372B62A4A1768376283F31088BF
:104AC0002100300000F0D8F8EFF3108372B6002810
:104AD00039D1326A9742F0D13AE0224A1268002A6C
:104AE00003D083F31088102038E01F4ABA66FE66B0
:104AF000FD67BC67B0217A5801327A50B26A511C06
:104B0000B162002A03D177623F677F6705E0726A6E
:104B10003A67516F79670F67576709223A63083A16
:104B2000BA63019AFA640F490A6801320A6083F392
:104B30001088380000F0D0FD8423F8580EE083F38D
:104B4000108810200AE0286083F31088002005E018
:104B500000222A60019A002AF1D0BEE703B0F0BD1E
:104B6000502000204C2000206D4B000010B5EFF3CA
:104B7000108372B61B4A846E94422FD1B0228258A1
:104B80008A422BD1C26E002A28D0174914688C4261
:104B900024D1916A002921D000218166916A0139CE
:104BA0009162002901D1516207E0016F446F4C67A7
:104BB0002167546AA04200D15162026B092A0DD1CB
:104BC00010217B32815009490A6801320A6083F35F
:104BD000108800F0E1FCEFF3108372B683F31088C5
:104BE00010BDC0466D4B0000455459424C2000207A
:104BF00070B5040006003436002525700134B44237
:104C0000FBD19B089B0041608261C36102614261EC
:104C10001900083981600221C160D318191F08608A
:104C2000083B1A601360104B536000230362EFF3DC
:104C3000108172B60D4B03600D4B1B68002B04D125
:104C40000C4B1860C062006306E00A4B1B681A6BCD
:104C50001863D0620263C362054A136801331360AC
:104C600081F31088002070BDEEEEFFFF45545942DD
:104C7000B01F0020941F0020F0B5474680B48C463A
:104C8000EFF3108472B683688B4203D884F31088E4
:104C900000205FE0314B1D6805624269C368013343
:104CA000002188462E4F5168B9421CD14146002947
:104CB00002D142610131884611688E1A083EB4451E
:104CC00025D94E68BE4209D10E681660C668013EFD
:104CD000C6604669B14207D1426105E00A68002B0F
:104CE00006D0013B00E012681E00711E8E419B1B26
:104CF00084F31088EFF3108472B6016A8D4203D0FA
:104D00004269C36801330562002BCCD11FE0002E3D
:104D10001DD06346F31A132B0AD963460833D31800
:104D200019600F495960C1680131C160136066465E
:104D300050608368083B9E1B866043699A4201D19C
:104D40001368436184F310880832100002E084F392
:104D50001088002004BC9046F0BDC04650200020C2
:104D6000EEEEFFFF10B500F039FB00F061FE00230E
:104D70000C4A13600C4A13600C4A13600C4A13600F
:104D80000C4A13600C4A13600C4A13600C4A1360FF
:104D90000C4A13600C4A13600C4A13600C4A1360EF
:104DA00010BDC046901F0020A01F0020AC1F002097
:104DB0008C1F0020801F0020A41F0020A81F00209F
:104DC0009C1F0020941F0020B01F0020881F00207F
:104DD000841F002010B50E4B1A680E4B9A420AD061
:104DE0000D4A0B4B1A6001F0A3F9FFF7BBFF0B4A0A
:104DF000136801331360064C074B2360084B186897
:104E0000FDF730F80023236001F0DAF910BDC04649
:104E100024000020F1F0F0F0F0F0F0F04C20002041
:104E2000981F002010B5EFF3108372B61E4A846EEF
:104E3000944236D1B02282588A4232D1C26E002AC0
:104E40002FD01A4914688C422BD1D16A002928D05E
:104E500000218166D16A0139D162002901D19162B4
:104E600007E0016F446F4C672167946AA04200D14C
:104E70009162016B052914D11269002A03D0063111
:104E80008422815002E00A218422815008490A6864
:104E900001320A6083F3108800F07EFBEFF3108389
:104EA00072B683F3108810BD254E0000554555514C
:104EB0004C20002070B505001E00030004003C34A7
:104EC000002018700133A342FBD16960AA609400EE
:104ED0002100049801F05CFAAE6144433419EC619E
:104EE0002E626E626861E860EFF3108172B60D4B5E
:104EF0002B600D4B1B68002B04D10C4B1D602D63E8
:104F00006D6306E0094B1B685A6B5D6315636A634A
:104F10002B63054A13680133136081F31088002066
:104F200070BDC046554555518C1F0020AC1F002058
:104F3000F0B5474680B4EFF3108572B6C46A0369D2
:104F4000002B00D1B6E0002C24D1036A86681F1D17
:104F50001B680B60012E0ED9731E002B0BD03A007C
:104F6000043110CA10C1013B002BFAD16F4B9C4693
:104F70006644B600BF19C3699F4200D187690762C2
:104F80004369013343610369013B036185F3108881
:104F90000020C8E0876A8023FB58012B2AD1FA6FD2
:104FA000836816680E60012B09D9013B002B06D0DF
:104FB0000432043140CA40C1013B002BFAD1013C0C
:104FC000002C02D10023836204E03B6F83627A6F7E
:104FD0005A671367C4620023BB668422BB50544ADD
:104FE00013680133136085F31088380000F0D4FA99
:104FF000002098E0036A826894461A1D90461B6858
:105000000B606346012B0CD9013B002B09D0043106
:1050100040CA40C1013B002BFAD1444B63449B0082
:105020009844C369984501D1836998464346036211
:105030003F4B1A6801321A601A68013A1A60FA6F17
:10504000436A8768191D8C4611681960012F0ED9B3
:105050007B1E002B0BD00432614640CA40C1013B8D
:10506000002BFAD1314B98464744BF00BC44C3697A
:105070009C4501D183699C4663464362836A013C37
:10508000002C02D10022826204E01A6F8262596F02
:1050900051670A67C46200229A6684215A502449E3
:1050A0000A6801320A6085F31088180000F074FA6B
:1050B000002038E0002A33D01D4B1B68002B03D0A2
:1050C00085F310880A202EE01A4B1E681A4BB3662F
:1050D000F066F16700218023F150B031735801333D
:1050E0007350002C03D186623667766705E0836AC9
:1050F0003367596F71670E675E670134C4620523B9
:105100003363043BB363F264094A136801331360E9
:1051100085F31088300000F0DFFA8423F05802E0B5
:1051200085F310880A2004BC9046F0BDFFFFFF3FC6
:105130004C20002050200020254E0000F8B504002F
:10514000EFF3108672B6C56A4369002B5DD0002D5F
:1051500028D1013B4361036901330361436A8568D8
:105160001F1D0A681A60012D0ED96B1E002B0BD073
:1051700004313A0001C901C2013B002BFAD1464B70
:105180009C466544AD007F19E3699F4200D1A76941
:105190006762A36B86F31088002B79D020009847B4
:1051A000002078E0806A013D002D02D10023A36237
:1051B00006E0036FA362036FA362426F5A6713672F
:1051C000E56200238366C26FA3680D681560012B3A
:1051D00009D9013B002B06D00431043220C920C27A
:1051E000013B002BFAD100228423C250A56B2B4A2D
:1051F00013680133136086F3108800F0CDF9002D99
:1052000048D02000A847002045E0002A3CD0234B8E
:105210001B68002B03D086F310880B203BE0204B4B
:105220001F68204BBB66F866F96700218023F950A0
:10523000B0317B5801337B50002D03D187623F672B
:105240007F6705E0836A3B67596F79670F675F6720
:105250000135E56205233B63A56B043BBB63FA6440
:105260000E4A13680133136086F31088380000F08B
:1052700033FA8423FB58002B03D1002D01D02000EA
:10528000A8478423F85806E086F310880B2002E034
:10529000002000E00020F8BDFFFFFF3F4C20002071
:1052A00050200020254E0000F8B505009C46069FC2
:1052B000079E002E06D03800BC19EF230370013082
:1052C0008442FBD12B00B433280000240470013049
:1052D0008342FBD1A9626A646346AB64EF606E618E
:1052E000089BEB629423089AEA500A9BAB61EB613E
:1052F00020229C23EA50013EBF192F61099BEB63DA
:105300009823099AEA50953B2B632B4B6B65AD654F
:105310002A49280000F0B4FFEFF3108172B6284B41
:105320002B60284B1B68002B06D1274B1D60882360
:10533000ED500433ED5008E0234B1B688C229C5841
:105340009D5088202550AC502B501E4A13680133C5
:1053500013601E4A1368013313600B9B012B1CD191
:10536000EFF305831A4A126813431A4A934207D986
:10537000194B1C68002C06D0E66BE36AE36303E07C
:105380000026002400E0002681F31088280000F0A9
:1053900003F9002C0ED0E6630CE081F31088EFF3E4
:1053A000108372B609490A68013A0A6083F31088CB
:1053B00000F0D2F80020F8BDC15900005D54000093
:1053C00044524854442000203C2000204C2000201F
:1053D00024000020EFF0F0F0542000200023144AB5
:1053E0001360144A1360144A137053709370D3708F
:1053F000124A137053709370D3702022104B1A60AE
:10540000104B1900803100221A7001338B42FBD1FE
:1054100000230D4A13600D4A13600D4A13600D4AB4
:1054200013600D4A80235B0411680B4313607047BF
:105430005020002054200020382000205C20002034
:1054400058200020B41F00203C20002044200020D1
:105450004C200020342000204020002070B5184B44
:105460001C68EFF3108372B6AC22A25883F3108845
:10547000002A02D0002120009047A06C636C98475E
:10548000104B1B68002B01D020009847EFF31083CE
:1054900072B6AC22A558AB3A2263A2630022E26442
:1054A00009490A6801320A6083F31088002D02D08E
:1054B00001212000A847200000F00EF970BDC04671
:1054C00050200020342000204C20002070B5EFF345
:1054D000108172B61C4B1C68002C03D181F310881C
:1054E00013202FE0EFF30583184A1268134303D00B
:1054F00081F31088132025E0154B9C4203D181F3E2
:10550000108813201EE0002802D181F3108819E0D2
:10551000104B1B68002B03D081F31088132011E07F
:1055200004232363033BA363842500236351E064C6
:10553000084A13680133136081F31088200000F0DB
:10554000CBF8605970BDC0465020002024000020D8
:10555000F42000204C2000200B4B1B68002B12D1A4
:105560000A4B1A680A4B1B689A420CD080225205DB
:10557000084B1A60EFF30583002B04D1EFF310837F
:1055800062B683F3108870474C2000205020002022
:105590005420002004ED00E070B50400EFF3108506
:1055A00072B6436E002B03D04C3000F0D7FA01E006
:1055B0000023C364404A1368013B1360A36B002BB4
:1055C00052D1236B002B5DD0636B002B47D123633B
:1055D000E26A9100394BCB58002B3AD10B00374986
:1055E0005C50246264623649012393400868034397
:1055F0000B60344B1B689A4244D2324B1A60324BD8
:105600001B68002B02D1304B1C603BE0D96B8A42F7
:1056100038D2DB6A994206D02C4901229A40130005
:105620000A6813430B60284B1C6085F31088224BDB
:105630001B68002B3FD180225205254B1A60EFF3E7
:105640000583002B37D1EFF3108362B683F3108804
:1056500031E05A6A14625C626262236212E00023E3
:105660006363033323630DE0236B013B012B09D9F3
:10567000636B002B02D1A363236303E00023636306
:1056800003332363134B1A6885F310880E4B1B6892
:105690009A4210D0084B1B68002B0CD18022520577
:1056A0000B4B1A60EFF30583002B04D1EFF310834B
:1056B00062B683F3108870BD4C200020B41F002018
:1056C0003820002058200020542000205C2000209A
:1056D00004ED00E05020002070B50400954B1D68DB
:1056E000EFF3108672B685420AD1EB6C013B0333AF
:1056F00003D828004C3000F007FA8F4BEA691A6093
:105700008E4A1368013B1360A36B012B00D0F9E0B4
:105710000023A363E16A236A9C4213D0626A5A623F
:1057200013628A0086481258944274D18A0013503A
:10573000844B1B68002B6ED001228A409343814A20
:10574000136068E08A0000207D4BD05001238B401D
:10575000DB437D490A681A400A607A4909680029D2
:1057600002D00B4077490B60002A1BD12032774BC7
:105770001A600022764B1A6086F310886F4B1B6804
:10578000002B00D0D5E080225205724B1A60EFF357
:105790000583002B00D0CCE0EFF3108362B683F3D7
:1057A0001088C6E053421A400F2A07D80023032A64
:1057B00001D9920802335208D2182AE0FF2A08D8E9
:1057C00012090423032A01D9920802335208D2187D
:1057D0001FE0614B9A420CD8120A08230F2A01D904
:1057E00012090433032A01D9920802335208D2184D
:1057F0000FE0120C1023FF2A01D9120A08330F2AD6
:1058000001D912090433032A01D99208023352083C
:10581000D2184E4B1A604E4B1B689C4272D14B4BB8
:105820001B689B00464A9A58494B1A60454B1B68B7
:10583000002B53D0414B1A6801321A6086F310884E
:10584000EFF3108672B61A68013A1A603D4B196878
:105850004B420B400F2B07D80022032B01D99B088A
:1058600002325B089B182AE0FF2B08D81B09042290
:10587000032B01D99B0802325B089B181FE0364AB4
:1058800093420CD81B0A08220F2B01D91B090432A2
:10589000032B01D99B0802325B089B180FE01B0CFD
:1058A0001022FF2B01D91B0A08320F2B01D91B092B
:1058B0000432032B01D99B0802325B089B189A0023
:1058C0001F48125821480068D46B844206D82048EB
:1058D000026001229A4091431A4B196086F31088A6
:1058E000164B1B68002B24D180225205194B1A60DD
:1058F000EFF30583002B1CD1EFF3108362B683F323
:10590000108816E086F31088114B1B689D4210D05A
:105910000A4B1B68002B0CD1802252050D4B1A60DC
:10592000EFF30583002B04D1EFF3108362B683F30A
:10593000108870BD50200020E82000204C2000205E
:10594000B41F00205C2000203820002058200020B8
:105950005420002004ED00E0FFFF000010B5124BC2
:105960001B68EFF3108272B6002010490860002B0C
:1059700016D0196B002913D1D96999610C480160BF
:10598000186A83420CD0D96ADB6B994208D1094C62
:1059900089000851084B1B689B001959074B196077
:1059A00082F3108810BDC04650200020C025002082
:1059B000E8200020B41F00205820002054200020A0
:1059C00010B5EFF3108272B6036B042B08D10949AE
:1059D0000B6801330B6082F31088FFF7DDFD07E0F1
:1059E000836EB021415882F31088002B00D0984775
:1059F00010BDC0464C200020EFF3108372B6024A5F
:105A0000106883F310887047C425002010B5EFF3A9
:105A1000108372B604490A6801320A6083F3108861
:105A20000248FFF7B9FD10BD4C200020F4200020F3
:105A300070B586B00023214A1360214A1360214AC1
:105A40001360214A1360214A1360214B19008031F1
:105A500000221A7001338B42FBD11D4B1D4A13608B
:105A60001D4A136080331D4A13601D4A1D4B1A6086
:105A70008022D2001C4B1A6000221C4B1A601E00B0
:105A80001B4D1C4C33680022059204920393029331
:105A9000154B1B680193134B1B680093164B2A0090
:105AA00021001648FFF700FC0028EBD10023144A20
:105AB0001360144A136006B070BDC046C4250020B0
:105AC000E8200020C0250020E4200020A82100209C
:105AD00064200020AC21002060200020F020002065
