:10200000C82900201D580000195800001958000068
:1020100000000000000000000000000000000000C0
:10202000000000000000000000000000195800003F
:102030000000000000000000D9810000778100004E
:10204000195800001958000019580000493B0000B9
:10205000195800001958000019580000D127000035
:1020600019580000195800001958000019580000AC
:102070001958000000000000000000004532000078
:1020800000000000195800001958000019580000FD
:1020900019580000195800005D2F00001958000061
:1020A000195800001958000019580000195800006C
:1020B00019580000195800001958000010B5064CB6
:1020C0002378002B07D1054B002B02D0044800E0F9
:1020D00000BF0123237010BD280000200000000075
:1020E00090A80000084B10B5002B03D00749084802
:1020F00000E000BF07480368002B00D110BD064B6D
:10210000002BFBD09847F9E7000000002C000020CE
:1021100090A8000090A800000000000010B5194A27
:10212000D3698024A4022343D361402482235B002B
:10213000154AD450154B1C78012222431A709A7804
:102140000F242040A2431043987058890422024370
:102150005A815889032211400A0130218843010025
:102160001143598119890A4A0A40C02149010A4389
:102170001A8145221A735A7807218A4304210A4397
:102180005A7010BD00080040001C0040004400428E
:10219000FFE0FFFF114A137802218B4313701100F7
:1021A00003220B8C1342FCD10C4B1A891F210840CF
:1021B0008A4310431881197802220A431A701900C1
:1021C00003220B8C1342FCD1044B997901220A4360
:1021D0009A71197E02220A431A767047004400421F
:1021E000014B988C80B270470044004270B584B0B7
:1021F00005000E0010222249684607F096FEA4232F
:10220000EB585B0635D0A423EC58A404A40E21019E
:102210001C4BC91800292FD00B685B0006D5012381
:1022200073730B68DB00DB08336005E00023737316
:102230000B68DB005B0D33600B689B0001D501234D
:1022400033714B689B0201D5022333714B681B032A
:102250001B0F6A46D25C3273B068083107F065FE26
:102260003F21A822AB580C408B431C43AC500020AC
:1022700004E00A20404201E01C20404204B070BD4E
:10228000B09F00009800002070B50400C423C3581C
:102290009B0200D595E0C423C058C002C00E0001C7
:1022A0004B4BC018002800D18EE04B7B012B07D18F
:1022B0000B68036003688022D2051343036002E0C9
:1022C0000B689B0403600B7B082B08D845680F2222
:1022D00013401A043F4B2B401343436042E00C2B46
:1022E00007D842683B4B13409022120313434360CC
:1022F00038E0102B07D84268364B1340A022120357
:10230000134343602EE0142B07D84268314B13402F
:10231000B02212031343436024E0182B07D842680D
:102320002C4B1340C0221203134343601AE0202BAE
:1023300007D84268274B1340D0221203134343604F
:1023400010E0302B07D84268224B1340E0221203E2
:102350001343436006E0402B04D84368F022120385
:10236000134343600B79023B012B12D84368802250
:102370009203134343600B79032B05D143688022FA
:102380005203134343600CE04268134B1340436015
:1023900007E04268114B1340436042680E4B134004
:1023A000436008300A7B896807F0BFFDC423E35807
:1023B000DB02DB0E01229A401300D022A350002042
:1023C00004E01C20404201E01C20404270BDC04699
:1023D000D8000020FFFFF0FFFFFFEFFFFFFFDFFF50
:1023E00010B5002920D1002A03D180001E4BC25015
:1023F00037E01D4B80005168C1501168C458490531
:1024000049091A4A22400A43C250C258920092080F
:10241000802109060A43C250C158154A0A4080214A
:1024200009050A43C2501CE001291AD1002A03D130
:10243000C000104BC25014E00E49C0001368435056
:102440004358DB00DB088024A40523434350536832
:102450000818436043689B009B08802212061343C0
:102460004360002010BDC04674000020FFFF00F84C
:10247000FFFFFFC74400002030B5002922D19A4257
:1024800004D9800000221D4BC25034E01B4C800058
:102490000559520551091A4A2A400A430251015965
:1024A0005B055A0DCB0ADB021343035103599B0012
:1024B0009B0803510259134B13408022120513430A
:1024C000035118E0012916D19A4204D9C000002214
:1024D0000D4BC2500FE00C49C00042504258D20090
:1024E000D2088024A4052243425008184360436860
:1024F0009B009B084360002030BDC0467400002054
:10250000FFFF00F8FFFFFFC744000020836902229D
:10251000934383618369013A9343836183691A42D8
:10252000FCD1426D01231343436570478269012347
:1025300013438361012283691A42FCD0826902231A
:1025400013438361426D01239A434265026D134335
:102550000365704770B506000C00150000200529C2
:1025600064D8052A62D83000FFF7E0FF052C5AD85E
:10257000A4002F4B1B599F4604220B23042112E079
:1025800004220B2302210EE004220B2301210AE086
:1025900002220523012106E001220223012102E09B
:1025A00004220B2308210139090422480140013B80
:1025B0001B061B0C0B43013A7F210A401343F361B6
:1025C000052D32D8AD001C4B5B599F4604230B22CE
:1025D000042112E004230B2202210EE004230B222B
:1025E00001210AE002230522012106E00123022243
:1025F000012102E004230B22082101390904F820FB
:1026000040030140013A1202F82040010240114308
:10261000013B1A01FF2313400B43F3603000FFF727
:1026200075FF012002E0002000E0002070BDC046E0
:10263000809F00000000FF01989F000010B5026D10
:102640000023910103D50265FFF760FF0123180005
:1026500010BDC046304B98420AD1304A13698021E0
:1026600049000B431361BE39E8232D4AD1500DE0D8
:102670002C4B98424FD1294A1369802189000B4382
:102680001361BF39FF39EC23254AD15082690123F8
:1026900013438361012283691A42FCD082690223B9
:1026A0001343836183698361002282601E4BC3618F
:1026B0001E4BC3601E4B1B041B0C1E490B43A02169
:1026C0004350BC23C2500C33C2501B4B1B041B0C89
:1026D000802212051343C0228350184B1B041B0C8D
:1026E000802292021343F0228350C83A8023C250C2
:1026F000134B1B041B0CC0229202134384228350F1
:10270000104B1B041B0C8022D202134388228350DF
:102710000D4A9023C2507047001C00420008004040
:10272000001C004000200042030A0500330A00009C
:102730009800002000000480D800002064000020E1
:102740007400002044000020FFFFFF1F8422184B6C
:102750005A60833A174B1A71174B184A1A82022291
:102760001A7500225A7507329A751A009369002B60
:10277000FCD1114AD368DB07FCD50F4A138A8021AC
:1027800009010B431382D368DB06FCD50C4A0D4BC1
:102790001A6219000C4A4B681342FCD10B4A094BD0
:1027A0009A621900084A4B681342FCD17047C04630
:1027B00000400041000800400010004006430000B7
:1027C00006010100001C0040FD070000000101009F
:1027D000F0B55F4656464D464446F0B4174B3F228F
:1027E0009C5CE2B293465E6A002301200F22914670
:1027F0001249303290460F32944607274025DAB20C
:1028000004009C4026420BD00D4CE0544C46224024
:1028100044460A5562468F544A5D0224A2434A55F3
:102820000133032BEBD13C33044A5946D1543CBC11
:1028300090469946A246AB46F0BDC04600600041B6
:1028400058010020044A916902230B439361034A13
:102850008023DB051A60704700080040210001005A
:10286000044B58609960597801220A435A70082233
:102870001A70704700200041034B5878C0080123AC
:10288000584001231840704700200041024B5878FF
:10289000012318407047C04600200041064B586095
:1028A000996001225242DA60597801220A435A7033
:1028B00004221A707047C04600200041014BD868BE
:1028C000C043704700200041024A137DDB07FCD55E
:1028D0007047C0460040004110B50400FFF7F4FF08
:1028E000054B2022FF321A836408DC61034A1A80F8
:1028F000FFF7EAFF10BDC046004000411AA5FFFFE8
:10290000F0B55F464E464546E0B404000D001700A2
:10291000174A536880218B435360002F22D0914681
:10292000144B1B889B46144B98463E00102F00D931
:102930001026BF1B4B465A461A80FFF7C5FF721E72
:10294000002E08D00023E958E1500433013AFAD2AE
:10295000B600A419AD194B4642461A80FFF7B4FFE2
:10296000002FE2D11CBC90469946A346F0BDC0465C
:1029700000400041C09F00001CA5FFFF7047C046FB
:102980001F2918D8002A08D001238B40C0018222B9
:10299000D2059446604483600DE001238B40C00162
:1029A0008222D205944660444360411840310A783F
:1029B000022313430B70704730B51F2930D8082A03
:1029C00009D9C0010918174B9C4661440B780122B4
:1029D00093430B7024E0C301CB18124CA44663440C
:1029E0001D7801242C431C70CB070DD549080F24FA
:1029F0002240C00109180C4B9C4661440B7812011F
:102A000023401A430A700BE04908C0010918064B1D
:102A10009C4661440B780F20024083431A430A709E
:102A200030BDC046400000413000004110B51F29B4
:102A30002DD8012A0ED0002A02D0022A19D026E071
:102A4000C0010818124B9C4660440378042293434B
:102A500003701CE0C0018223DB059C4660444318E0
:102A600040331C78042222431A7001238B40836177
:102A70000DE0C0018223DB059C46604443184033CF
:102A80001C78042222431A7001238B40436110BD3D
:102A90004000004101238B40C0018222D2059446B0
:102AA0006044C3617047C046F8B504000D001600CD
:102AB00006AA1778022B0AD10122FFF761FF320024
:102AC00029002000FFF778FF092E1CD108E0002222
:102AD000FFF756FF320029002000FFF76DFF12E0DC
:102AE000012F08D10123AB40E4018222D205944694
:102AF0006444A36107E00123AB40E4018222D205D4
:102B0000944664446361F8BD10B504002D4B9842AF
:102B10000BD12D4AD369802080000343D361C13893
:102B2000FF38F023294AD0501AE0294B98420AD1A5
:102B3000254AD3698020C0000343D3614020F0239D
:102B4000224AD0500CE0234B984239D11E4AD36917
:102B5000802000010343D3614020F4231B4AD0505E
:102B60001D4805F015FC1D4B186080235B02984240
:102B70000AD90023802252020133DBB2400890427E
:102B8000FAD8164A106000E00023012222600121D9
:102B9000A2681142FCD1012222710421A2681142D3
:102BA000FCD11B02E022D200134023600223E36326
:102BB0004022A3681A42FCD10138206400236363D9
:102BC00010BDC0460024004200080040001C004028
:102BD00000280042002C0042006CDC028000002033
:102BE0000268022313430360022283681A42FCD165
:102BF0007047C04670B505000C00064B1B68534378
:102C00001800FA21890005F0C3FB1034A4002C1928
:102C1000606070BD8000002010B5040004220A49E5
:102C200007F083F9201D0422084907F07EF92000EF
:102C300008300422064907F078F920000C300422FD
:102C4000044907F072F910BD0CA0800040A080007C
:102C500044A0800048A0800070B5194A53698021C3
:102C600049010B43536140219423164AD15001225C
:102C7000154B1A7019008B681A42FCD1134B1B6854
:102C80001902FC2292010A401905890E0A430E4CD2
:102C900022620F4A15682805F022120410401B0B0F
:102CA000184306F00BFA05F023FDA0612D012D0A53
:102CB000E5611023A3700E3B2370013B637070BD70
:102CC00000080040001C00400030004030608000E0
:102CD0003460800010B50F4BDB681B02180A002B14
:102CE0000CDA0D4B181A642105F052FBC2B2002019
:102CF000322A0DD83223981AC0B209E0323064214A
:102D000005F046FBC3B2FF20C82B01D83233D8B23E
:102D100010BDC04600300040320000010004F02326
:102D20001B03184004231843014BD8617047C04669
:102D3000001800400B4A5369802149000B4353613E
:102D4000094A1378FC398B43137011000E228B68EB
:102D50001A42FCD104494B780F2293430B3A134398
:102D60004B7070470008004000200040054A117871
:102D700002230B43137011000E228B681A42FCD100
:102D80007047C0460020004010B5FFF729FA10BD7B
:102D900010B58000024B1818C078FFF7FBF910BD82
:102DA000C49F0000F8B50E4C27000C3725786678D4
:102DB000002231002800FFF7E3FDA278310028004F
:102DC000FFF7FAFD0434BC42F0D10320FFF7A6FF61
:102DD00000210020FFF7A2F90120FFF7DBF9F8BD81
:102DE000C49F000070B50023C021C9058022920253
:102DF0008226F60504252CE05B009BB24A61C046A2
:102E0000C046C046C046C046C046C046C046C04692
:102E1000C046C046C046C046C046C046C046C04682
:102E2000C0468A61C046C046C046C046C046C0468D
:102E3000C046C046C046C046C046C046C046C04662
:102E4000C046C046C046C046346A254201D0013360
:102E50009BB20138C0B2FF28CED1180070BDC04669
:102E6000F0B585B0019002AB9F1D00233B8003AEFF
:102E70003380C025ED058024E4006C61C046C04667
:102E8000C046C046C046C046C046C046C046C04612
:102E9000C046C046C046C046C046C046C046C04602
:102EA0000C20FFF79FFF38800620FFF79BFF308044
:102EB000AC610022002102AB9D1D01202B889BB23A
:102EC0001341184201D00131C9B201320C2AF5D1A7
:102ED0000022012003AB1B889BB21341184201D092
:102EE0000131C9B20132062AF4D10020CB0713D434
:102EF00003AB1A8838231340202B0DD103AB1A885B
:102F000006231340062B06D002AB06331B88019A1A
:102F10001380013000E0002005B0F0BD10B582B094
:102F200001240094022309220A210020FFF7BCFD9E
:102F300000940223092211210020FFF7B5FD002390
:102F400000930133092202210020FFF7ADFD012289
:102F500002210020FFF76AFD02B010BD124B9B7AE0
:102F6000DB0705D50122104B9A7200220F4B1A6025
:102F70000D4B9B7A9B0702D502220B4B9A720A4B90
:102F80009B7A9B060ED5084B20229A729A8B084892
:102F90000168013252180260DB8B04490A68013370
:102FA0009B180B607047C04600380042600100204B
:102FB0005C010020F0B557464E464546E0B405009A
:102FC000C023DB05802252005A61802212035A611D
:102FD00010230020C022D20580210904012780246B
:102FE0002403A4468224E405A24680246402A04669
:102FF000194CA14640089161C046C046C046C04633
:10300000C046C046C046C0462F4202D064469461C6
:1030100001E0644654615446246A4646344202D074
:103020004C46204380B25161C046C046C046C046AF
:10303000C046C046C046C0466D08013BDBB2002B0F
:10304000D8D180225200C023DB059A611CBC904677
:103050009946A246F0BDC0460080FFFF10B5FA2396
:103060009B0043431A0A01210148FFF7C3FD10BD2D
:103070000028004210B582B00123009301330922D9
:1030800008210020FFF710FD0024009402230922EC
:1030900017210020FFF708FD0094022309221321C5
:1030A0000020FFF701FD00940123092210210020D8
:1030B000FFF7FAFC0094022304220B210020FFF703
:1030C000F3FC074C07492000FFF71EFD00220121F9
:1030D0002000FFF78FFD2000FFF782FD02B010BD3A
:1030E00000280042204E000010B50C4B1B78002B2E
:1030F0000DD0072318400A4B1B78012B03D1400049
:10310000084BC05A05E04000074BC05A01E0E020E0
:103110000002FFF74FFF054B188010BD640100202F
:1031200065010020E09F0000D09F00008400002087
:1031300010B500F0EFFCFFF7D7FF10BD054B1B8863
:103140009804C00FC0001BB2002B01DA10231843F3
:103150007047C0468400002010B5FFF77FFF10BD08
:10316000F8B5E0200002FFF725FF05242A4F3800BC
:10317000FFF720FF0600013CE4B2002CF7D1053434
:10318000264D2800FFF716FF013CE4B2002CF8D1D1
:1031900050230125034204D027352E407542754146
:1031A000EDB205241E4E3000FFF704FF013CE4B2EF
:1031B000002CF8D12223034201D1203B1D430524DA
:1031C000184E3000FFF7F6FE013CE4B2002CF8D1B7
:1031D0004423034201D1423B1D430524124E3000DB
:1031E000FFF7E8FE013CE4B2002CF8D10A230342C9
:1031F00001D1063B1D4305240C4E3000FFF7DAFEDB
:10320000013CE4B2002CF8D11423034201D1103B5D
:103210001D432800F8BDC046028000000480000065
:103220000880000010800000208000004080000026
:1032300010B50022024B1A80FFF71CFF10BDC046DC
:103240008400002030B599B00F4B1C6DE30717D5F3
:1032500008AB029369460C48FEF7C8FF04AD009B1B
:1032600004936B465B7B6B736B461A7B2A730299E4
:1032700005A806F05AFE00222900044804F07CFE4E
:10328000014B1C6519B030BD001C004288010020B4
:1032900010B501000348FEF7F7FF43425841C0B2A2
:1032A00010BDC046001C004210B50248FFF7C6F929
:1032B00010BDC046001C0042F0B583B02E4D280062
:1032C000FFF7C8F92D4B8022120280215A50BFF31C
:1032D0004F8FBFF36F8F0131FF315A501A600123B6
:1032E000EB6506226939FF390020FFF765FB0622EE
:1032F00019210020FFF760FB214C2288FC23DB0012
:10330000134023801F4F3B780F2213403B70FE2356
:10331000DB0000931C4E01966A4600210020FFF757
:103320005FF822883B781343009301966A46002198
:103330000120FFF755F82388009301966A46002183
:103340000220FFF74DF8114B002201210020FFF76A
:1033500093F82800FFF7DAF80D4B1B78052B02D9FC
:1033600003220B4B1A700A4B19780A000248FFF728
:10337000F1F803B0F0BDC046001C004200E100E0DF
:10338000F4020020E2020020FF070000FFFFFF1F01
:10339000E902002070B58AB00222184B1A70184B4F
:1033A0001B783133174A1370FFF786FF02F0D8F904
:1033B00004AB0293114E06AC134D3378022BFDD1B2
:1033C00001222100280004F0ABFD00280FD1637B0F
:1033D000002B09D16946200001F032F8002806D000
:1033E0006846FFF755FF02E0200002F047F904F0BD
:1033F00001FB02F06BF902F003F9DEE7EC020020BA
:10340000E2020020F90300208801002010B505F039
:103410000DFE011C094805F061FC094905F080F921
:1034200005F066F903B21A00323200DACD23181C17
:10343000CD2B00DDCD203230C0B210BD9949E9441A
:103440003D0A3B41CF235843000BC0B27047C046F2
:1034500010B58003C821C90204F09AFFC0B210BDA4
:10346000E123DB005843C3175B055B0D1818C0123E
:1034700080B2704710B505F0D9FD06F023FC064A6E
:10348000064B06F06FF90022FD239B0506F06AF952
:1034900006F06CFC10BDC046182D4454FB210940B9
:1034A00010B50005000D074B984202D9F0231B020E
:1034B000184300B2C002E121C90004F0F3FF00B2DA
:1034C00010BDC046FF07000010B58A21C90505F0F0
:1034D000F1FA06F0F7FB044A044B05F02DFE06F066
:1034E000BBFB00B210BDC046182D4454FB2109405F
:1034F00010B5114B1868142104F0D0FF00291AD11F
:103500000D4C0E31200000F083F8E0810B4B1B784E
:103510000B4A9C1824011B0702D12000FFF7DCF99D
:10352000042205492000FFF7EBF9044A1378013320
:103530003F210B40137010BDFC0300200C04002041
:103540004000040010B5034A136801331360FFF70D
:10355000CFFF10BDFC030020014B18687047C04628
:10356000FC030020014BD8887047C046FC030020B4
:10357000014B98887047C046FC030020F8B54F46C1
:103580004646C0B400231D4A13701D4A13601D4DEA
:10359000012417009146194B98460E21280000F08F
:1035A00037F8EB8983420BD12B683A68934207D3F3
:1035B0004B462A0043CA43C312681A6043461C7034
:1035C0000134E4B21035412CE7D10C4A13783F2185
:1035D0000B4013700C4C0622C031200006F0AEFCEC
:1035E000083CA388094A934202D00133044A9380DD
:1035F000FFF77EFF0CBC90469946F8BD0C040020F6
:10360000FC0300200004400004040020FFFF000031
:1036100030B5002912D002000139C9B20131411878
:103620000748084D0402A4B2000A1378584040002D
:10363000405B604001328A42F4D100E0004830BD76
:10364000FFFF0000F09F000030B583B0084CFE2162
:103650002000FFF7DDFF05006B46991D0880200064
:10366000FE30022206F061FC280003B030BDC046E7
:10367000F8020020F8B5002803D0012817D10C4D1E
:1036800001E08025ED03FFF7DFFF2B8883420ED09A
:103690002800FFF721F90024064F80267600E11963
:1036A00028191022FFF72CF94034B442F7D1F8BDA5
:1036B00000014000F802002010B50020FFF7DAFFFB
:1036C0000120FFF7D7FF10BD70B5084C2000FFF7B1
:1036D00003F9074E074D084BE11889191022200005
:1036E000FFF70EF94034AC42F5D170BD0002400046
:1036F000DC0100200003400000FEBFFFC0B2014B10
:10370000185C7047F8020020F0B557464E46454613
:10371000E0B482B08446FD283ED88046214B0200AA
:10372000195401281FDD204804001C34FC235B00D1
:10373000994681440126D70F00239A4600962578A2
:10374000019562785019C317414688427B41DBB22C
:10375000002B19D0ADB253466146A9425B41DBB2A2
:10376000002B11D003E00122002301930093009964
:10377000CB005F1ABF000C4BDF197868094B019929
:10378000C91806F0D2FB03E001361C344C45D5D1F4
:10379000FFF75AFFFFF790FF02B01CBC9046994616
:1037A000A246F0BDF80200200CA2000070B5074C44
:1037B0002600F936FF36064D62782178491960688F
:1037C00006F0B3FB1C34B442F6D170BD0CA200006D
:1037D000F802002070B50100114B98420AD0114C3C
:1037E00023002033FD34FF3401221500186888427D
:1037F00011D100E000250B4CEB005A1B9200105D2C
:10380000094A80185D1BAD0065196A7806F08DFBCA
:10381000FFF752FF03E001321C33A342E5D170BD34
:10382000E90200200CA20000F802002070B5084C4C
:103830002600F936FF36074D207840196278616816
:1038400006F073FB1C34B442F6D1FFF735FF70BDB0
:103850000CA20000F802002010B5002311280CD89B
:10386000C300181A8000064B18180B0016C816C3A0
:1038700016C816C302681A600123180010BDC0469E
:103880000CA200000A4B984206D00A4A20320123BB
:103890001168814203D100E0002358B206E00133F1
:1038A000DBB21C32122BF3D1012040427047C046DC
:1038B000E90200200CA2000070B582B004001128BB
:1038C00000D99FE0C5002D1AAD004F4B5D196E78F1
:1038D000320001A806F029FBAB78062B00D983E063
:1038E0009B004A4AD3589F46E3001B1B9B00464A55
:1038F000D3181B7B01AA12789A4201D901AA13702E
:10390000E3001B1B9B00404AD3181B7A01AA1278C4
:103910009A4269D201AA137066E0E3001B1B9B0068
:10392000394AD3181B7B5BB201AA127852B29A4271
:1039300001DD01AA1370E3001B1B9B00324AD31860
:103940001B7A5BB201AA127852B29A424CDA01AAEF
:10395000137049E0E3001B1B9B002B4AD3189B8983
:1039600001AA12889A4201D901AA1380E3001B1B05
:103970009B00254AD3181B8901AA12889A4233D288
:1039800001AA138030E0E3001B1B9B001E4AD318E2
:103990000C229B5E01AA0021525E9A4201DD01AA1F
:1039A0001380E3001B1B9B00174AD31808229B5E61
:1039B00001AA0021525E9A4216DA01AA138013E08E
:1039C000E3001B1B9B00104AD318DB68019A9A4244
:1039D00000D90193E3001B1B9B000B4AD3189B6883
:1039E000019A9A4200D20193E3001C1BA400064BEB
:1039F0001C196468320001A9200006F096FA200024
:103A0000FFF7E8FE02B070BD0CA20000F0A10000BC
:103A100010B5002803D001280AD1064901E0802111
:103A2000C90380225200044806F07FFAFFF7BEFE69
:103A300010BDC04600014000F802002010B58022F1
:103A400052000249024806F070FA10BD0002400020
:103A5000DC010020F0B5474680B480225200FF21EF
:103A60000F4806F06BFA0F4CFC235B009846A0440D
:103A70000B4F25001035667832002900606806F08B
:103A800054FA2078C0193200290006F04EFA1C348E
:103A90004445EED1FFF710FE04BC9046F0BDC04691
:103AA000F80200200CA20000F0B583B00020FFF760
:103AB000AFFF174CFE26A75D2500FE356B781B0275
:103AC0001F43FE212000FFF7A3FD01900120FFF717
:103AD0009FFFA35D6D782D021D43FE212000FFF79F
:103AE00097FD854202D0FFF7B5FF0CE0019B9F4296
:103AF00006D00120FFF78CFF0020FFF7BBFD02E09E
:103B00000020FFF785FFFFF799FF03B0F0BDC04627
:103B1000F80200208223DB051B6A9805C00F1A06F5
:103B200001D50230C0B29B0601D50430C0B2044AB0
:103B3000137803401370034A1378034313707047DC
:103B4000870000208600002010B5A82292000D4BAF
:103B50005A618223DB051B6A9805C00F1A0601D53E
:103B60000230C0B29B0601D50430C0B2064A1378B9
:103B700003401370054A137803431370FFF7B4FA38
:103B800010BDC046002800408700002086000020AD
:103B9000074B1878002803D1064B1B78072B05D05C
:103BA000C043044B1B781843072318407047C04696
:103BB00086000020870000200022034B1A70073285
:103BC000024B1A707047C046860000208700002014
:103BD00010B582B00722384B1A700024374B1C7086
:103BE00000940123002209210020FEF75DFF0094CC
:103BF0000123002207210020FEF756FF0094012335
:103C0000002205210020FEF74FFF0122092100209C
:103C1000FEF70CFF012207210020FEF707FF01221B
:103C200005210020FEF702FF254B1B789B0707D4D8
:103C30000122234B1A7019004B681A42FCD109E08B
:103C40001F4A137802218B431370110002224B6824
:103C50001A42FCD11A4B59781B220A435A701A692E
:103C6000A82189000A431A619A690A439A611A6B6A
:103C70000A431A635A6B5A63DA6912490A43DA61D2
:103C8000196AB0220A431A62197802220A431A708A
:103C9000190002224B681A42FCD10B4B08228021EA
:103CA0005A50BFF34F8FBFF36F8F0131FF315A501E
:103CB0001A6002B010BDC0468700002086000020B8
:103CC000002800400000B0B000E100E0F0B54F4631
:103CD0004646C0B485B0684E37683300674A94469C
:103CE00063441C00039300230093023309221C2128
:103CF0000020FEF7D9FE210080208001FEF7CEFDD6
:103D0000002400255E4B98461E005E4B99460A2013
:103D100003F0DAFB002000F035FE00F0C1F80028C7
:103D200005D043461A7840231343424613700020BF
:103D300000F046FE002809D0327808231343337080
:103D40004B461888FFF7ACFB4F4B188000F0C4F9C6
:103D5000002804D04A4A117820230B43137000F046
:103D6000C3F9222804D8464A117810230B43137054
:103D7000012000F025FE002804D0414A11780423D8
:103D80000B431370414B1B78002B05D13C4A117833
:103D900001230B43137004E0394A137801218B434C
:103DA00013700134A4B2FEF771FD00280CD0FA2381
:103DB0005B009C4208D9FEF781FD07000399802033
:103DC0008001FEF76BFD0024314B1B78002B04D1E2
:103DD000304A117801230B431370274B1B689F4215
:103DE00004D02C4A117802230B431370294B1B7803
:103DF0005B0704D0224A117802230B431370204B37
:103E00001B789A0703D50322234B1A700FE05A063A
:103E100003D50222204B1A7009E030221A4203D047
:103E20002F3A1D4B1A7002E000221B4B1A7003F050
:103E3000E1FD854200D36AE7FFF736FA002804D097
:103E40000F4A117808230B431370144A1368013387
:103E50001360FFF777FB00F023F8002804D1FA2362
:103E60009B009C46654401E0F535FF351C21002090
:103E7000FEF710FE4BE7C046B8A8000000E0FFFFC9
:103E80007A010020CA010020D6010020650100202F
:103E9000F2020020D801002068010020C4010020A7
:103EA000034B18780A238342804140427047C04642
:103EB0008800002070B51248FEF7D2FF051E07D11A
:103EC000104B1B780A2B18D801330E4A137014E0DC
:103ED00000220C4B1A700A4B1C880B4BE2180B4B40
:103EE0001A800B4B1888FFF7DBFA241A2405240DDF
:103EF000054B9C466444074B1C80280070BDC0469F
:103F0000DE0200208800002000F8FFFFCC01002026
:103F1000E00200207201002010B5FEF7FFFF002232
:103F2000014B1A7010BDC04688000020F0B54F4606
:103F300080B48AB000260996FEF720FDFFF7B4FD95
:103F4000FFF71CFB00F06EFD3423009380235B0120
:103F50003A4A3B493B4803F003FF0023402209A9AA
:103F6000384803F0B7FE3C23019304330093099BC8
:103F700004223549354803F05FFF802464000023A4
:103F8000220009A92F4803F0A5FEB42506950127B4
:103F9000059704960523039302930194099B0093CC
:103FA00000232B4A2B492C4804F012F8002322004E
:103FB00009A9244803F08EFE06950597049603236D
:103FC000039302930194099B00930023234A2449FD
:103FD000244803F0FDFF8023DB00994600234A4676
:103FE00009A9184803F076FE069505970496042360
:103FF000039302934B460193099B009300231A4AB3
:104000001A491B4803F0E4FF0023220009A90D48C8
:1040100003F060FE0695059704960223039302932E
:104020000194099B00930023124A1349134803F09B
:10403000CFFF0AB004BC9146F0BDC0466006002028
:1040400004A400002C06002010A400008801002019
:10405000CD3C00001CA400006016002015410000AB
:1040600028A40000100400209533000038A40000AC
:10407000780500208D43000044A40000C404002003
:1040800010B5FEF763FBFEF7DDFB08480849091A87
:10409000FEF7E6FBFEF7FAFB0028FBD0FEF7ECFB91
:1040A000044B187002F094FE002010BD2800002080
:1040B000C8290020F2020020014B18787047C04642
:1040C0008F000020024B1878024A12781A7070474D
:1040D0008D0000208F000020024B187800221A70FB
:1040E0007047C04689000020014B18787047C046D1
:1040F0008B00002010B5002802D0012803D005E075
:10410000034B187803E0FEF7E5FD00E0FF2010BD4B
:104110008A00002070B50023284A1370284A1370C3
:10412000284A1370FEF798FDFEF73CFE264C274EFA
:10413000234D012003F0C8F92378012B1AD0002B5E
:1041400002D0022B26D02EE0FEF71EFEFFF780F9EC
:1041500003001F4A1070194A1278824201D2174A8E
:1041600010702F2B02D90122164B1A700120FEF776
:104170000FFE18E0FEF708FEFFF764F930702B78A9
:10418000984201D3002B01D10D4B18700220FEF78D
:10419000FFFD08E0FEF7F8FDFFF738F90D4B18704A
:1041A0000020FEF7F5FD084A13780133DBB21370E7
:1041B000022BBED90022044B1A70BAE78D000020F2
:1041C0008C000020890000208E0000208B00002041
:1041D0008F0000208A00002010B50123094A1370C7
:1041E000094A1370094C00232370FFF721F8FEF7EA
:1041F000B7FF2070FFF790FEFFF7EAFCFEF798FF8D
:1042000010BDC0466401002065010020940000201C
:1042100010B50023034A1370034A13700020FEF701
:104220009BFF10BD64010020EE02002010B50400C9
:10423000012810D0002804D0022805D0032807D078
:104240000DE0FFF7E5FF06E00022054B1A7002E0E3
:104250000122034B1A70034B1C70FEF769FF10BD5F
:104260006501002064010020014B18787047C046AA
:104270009400002010B5074B1C780020FFF7D6FFF4
:10428000FEF76EFF044B18702000FFF7CFFFFFF71B
:1042900093FC10BD640100209400002010B5034B76
:1042A0001870FEF759FFFEF743FF10BDEE02002025
:1042B00010B5294B1B88294A11885B1A9BB21AB288
:1042C00027490888D11754184C400021844206DD44
:1042D000002A02DD191A09B201E0191809B22148B1
:1042E0000388CB1A9BB21AB201801F4C20881B187E
:1042F0001BB223801D48834201DD208004E01C485E
:10430000834201DA184B1880174B0020185E194BB6
:104310001B7858438011184B1B78594309114018DA
:10432000164B1B7853435B10C01803D50122144B66
:104330001A7002E00022124B1A70C317C0185840BE
:10434000104B1B78984200DC00200F4B1B789842E2
:1043500000DD1800C0B210BDD6010020720100209F
:10436000F002002092000020900000209C630000DA
:10437000649CFFFFF8030020D2010020ED02002022
:1043800065010020E702002070010020F8B5FFF76A
:1043900023FF0022144B1A804020FEF7DDFE134C51
:1043A000134E144F1F25012003F08EF8FEF7C6FEB2
:1043B0002378184328402070FFF7EAFB4001237858
:1043C000C0182070FFF776FD3378012BEBD1FFF793
:1043D00067FD0025002802D1FFF76AFF05002800CD
:1043E000FEF7BAFE3D70DDE7D60100209400002004
:1043F00064010020EE02002010B504000D4B0020E7
:10440000185EFFF72DF80005000D6070000AA0701F
:10441000094B1B78E370FFF74FFE2071FFF764FE36
:104420006071064B1B78A3710020FFF763FEE071FB
:10443000072010BD720100207A010020EE0200204A
:10444000F0B58BB005000E0003795AB2002A00DAED
:104450004EE202683F241C40DC4B1988FC23DB0041
:1044600013408B4200D02AE20F271740D84B1B780D
:104470009F4207D0002F05D0082C00D01FE29F429A
:1044800000D953E2002000F063FA00217173CF4B92
:104490001A88CF4B1B7813431022134333608023B9
:1044A0005B422343B26813700123337331713F2C95
:1044B00000D91FE2A300C74AD3589F46B368581CCF
:1044C0002A7B691D05F031FD2B7B337309E2A87946
:1044D00000026B79181880B2FEF7E2FF031CBE4A97
:1044E000904201DABD4B1B881A1CBD491BB28B429E
:1044F00001DDBC4B1A88BC4B1A80B068FFF77CFF0B
:10450000337BC0183073ECE1B068FFF775FF337B85
:10451000C0183073E5E1B54B1B78B26853700023C7
:10452000B2689370B468FFF79FFEE070B468012032
:10453000FFF7E0FD2071FFF715F8B3685871000A26
:10454000B3689871B468FFF7BDFDE071337B073342
:104550003373C6E1A64B1B680893B368581C03224B
:1045600008A905F0E2FCFEF7F7FF0890B368181DF4
:10457000042208A905F0D9FC337B07333373B0E17B
:104580006B79B2685370327B013232737F201840EE
:1045900001A9FFF761F96B797F2B15D9002809D1A3
:1045A000B368981C0622002105F0C8FC337B063353
:1045B000337396E1B368981C062206A905F0B5FC92
:1045C000337B063333738CE12B7B022B03D0AB7927
:1045D0009B069B0F00E00023002800D090E11B0108
:1045E000B2689370337B013333737AE101AB5C784B
:1045F000B268D01C0299220005F097FC337BE318C7
:1046000033736EE101AB5C78B368D81C220003A958
:1046100005F08BFC337BE318337362E101AB5C780C
:10462000B368D81C220004A905F07FFC337BE31893
:10463000337356E101AB5C78B368D81C220005A93E
:1046400005F073FC337BE31833734AE16B797F2405
:104650001C4001A92000FFF7FFF8002800D16AE103
:10466000AB799B069B0F0020002B00D063E1E91D76
:104670002000FFF721F9B3685C70337B013333739B
:1046800001AFBB78B2689370337B01333373390069
:104690002000FFF7E1F87C78B368D81C7968220025
:1046A00005F043FC337BE31833731AE1B3685C1CF9
:1046B00001F0AEF801000222200005F036FC337B49
:1046C00002333373B368DC1C01F09EF80100022250
:1046D000200005F02AFC337B02333373FEF748FFDA
:1046E000B3685871000AB3689871337B023333732F
:1046F000F7E0374B1B78DF1B012F0FD002DC002FB8
:1047000005D0F9E0022F19D0032F24D0F4E0691D61
:1047100002222620684405F008FC26E02B7B0020BE
:10472000032B00D807E126246C44A91D0222200097
:1047300005F0FBFB23881B09238016E02B7B002060
:10474000052B00D8F7E02900083102222630684402
:1047500005F0EBFB09E02B7B0020062B00D8EAE0FC
:1047600026226A4413881B09138026236B44188869
:10477000FEF796FE1C4B18801E4B0020185EFEF7BD
:104780006FFE03051B0D1A0AB1688A70B268537078
:10479000337B02333373A4E06B79B26853706B7967
:1047A000154AD35CB2689370337B0233337398E05D
:1047B000A9796B79104AD1546B79B2685370AB798F
:1047C000B2689370337B023333738AE0F4020020C3
:1047D000E202002054A4000072F8FFFF50A4000081
:1047E0008E07000052A40000D6010020D80100204E
:1047F000C401002072010020DC0100206B79B26846
:104800005370AA23B2689370337B023333736B798E
:10481000072B2ED89B00494AD3589F460120FFF70B
:1048200005FD5EE00020FFF701FD5AE00220FFF7E2
:10483000FDFCA879FFF732FD53E00320FFF7F6FCFB
:10484000A879FFF72BFD4CE03D4B0020185EFEF7EA
:1048500007FE3C4B18801800FEF7BCFF41E0FEF756
:1048600033FF3EE00022384B1A703AE0FFF702FDBA
:1048700037E0B368EE229A7033E06B79B268537018
:10488000B4686879FEF73AFFA070337B0233337364
:1048900027E0A9796879FEF737FF6B79B268537022
:1048A000AB79B2689370337B0233337319E06B7961
:1048B000002B16D1FEF73EFAFEF758FA11E0FE2360
:1048C000DB0000209A4236D1002C0AD11F4B1B7806
:1048D0000B431022134333608023B26813707F3B75
:1048E000337328798009012358400123184022E0BE
:1048F000002020E000201EE000201CE000201AE044
:104900001A0101A989780A43B1688A70327B0132A1
:104910003273012B00D175E6002B00D166E6022B25
:1049200000D17BE6032B00D184E6E7E7FE23DB0022
:104930009A42D6D000200BB0F0BDC04654A500006E
:10494000CC010020E00200207A010020E2020020D9
:10495000012808D0002802D0022808D00CE000224C
:10496000064B1A8008E00022054B1A8004E0002361
:10497000024A1380024A13807047C046D4010020C7
:1049800080010020002802D0012809D010E0094B46
:104990001B88094A93420BD00133064A138007E073
:1049A000064B1B88044A934202D00133034A13800A
:1049B0007047C046D4010020FFFF000080010020A6
:1049C00010B5002802D0012812D021E0114B1B782D
:1049D0000020002B1DD0104A1488643058430A214F
:1049E00003F060FD0123844200DC0023D8B210E014
:1049F0000A4B1C880A4B1878FA239B0058430A215B
:104A000003F050FD0123844200DC0023D8B200E013
:104A1000002010BDC8010020D4010020800100202A
:104A2000D90100200023024A1380024A13807047F4
:104A3000D401002080010020012B0FD1012A05D1D3
:104A4000204A214B0A604B6001203AE0C92A0FD16D
:104A50001E4A1F4B0A604B60012032E0022B07D137
:104A6000012A05D11B4A1C4B0A604B60012028E03B
:104A70000B2A05D1194A1A4B0A604B60012020E02D
:104A8000052A05D1174A184B0A604B60012018E02F
:104A9000042A05D1154A164B0A604B60012010E02C
:104AA0000A2A05D1134A144B0A604B60012008E022
:104AB000124B00209A4204D1114A124B0A604B60FB
:104AC000013070479E6AC421818A46EEF890356EA7
:104AD00069EAFC9A401DA12026812A0BD5A4D13970
:104AE000F922B6A7F017304A39059E56042B31EC4F
:104AF000A7766FBECDD269EBC51A133BF203000057
:104B0000F33AEC386248A7D830B58DB02A4B1B7801
:104B1000002B4FD1294B1B78012B0BD0002B02D03F
:104B2000022B0FD046E00622254908A805F0FDF922
:104B300006240DE006222249063108A805F0F5F901
:104B4000062405E004221F4908A805F0EEF9042414
:104B50001F236B4400221A70073200210AA801F0BB
:104B600065FA164B1B78002B04D101221F336B44CE
:104B70001A7003E000221F236B441A700AAD1F2332
:104B80006B4401220721280001F050FAE20008AB33
:104B90000821280001F04AFA0134049403951823EF
:104BA0000293094B019301230093084A084B0948DB
:104BB00001F03AF90DB030BD301F0020401F002039
:104BC000701F00207C1F002097000020401DA120A6
:104BD00026812A0B481F002030B58BB008AD264B2C
:104BE00008220021280001F021FA244B0020185E41
:104BF000FEF740FC01F036FD1E236B4418801022A6
:104C00000821280001F012FAFFF756FA1D246C441F
:104C10002070230008221821280001F007FAFFF76E
:104C200063FA2070230008222021280001F0FEF9F9
:104C3000134B1B782370230008222821280001F041
:104C4000F5F90020FFF756FA2070230008223021E2
:104C5000280001F0EBF9072304930395093302932D
:104C6000084B0193084B0093084A094B094801F08F
:104C7000DBF80BB030BDC046E2020020720100201C
:104C8000EE02002096000020344E00000241024552
:104C900014E4D318481F002030B50022084B1A80B6
:104CA00000290CD003000139C9B201314018044C6D
:104CB0001D782288AA18228001338342F8D130BDA2
:104CC0006C1F0020044A1388C7205843034B9C469E
:104CD000604480B2108070476C1F0020EF1E0000FF
:104CE00010B582B00400184B1A786B46DA71174B76
:104CF0001B78002B03D000226B469A7102E0012240
:104D00006B469A7107220021200005F017F902F086
:104D100071FEFA21890003F03BFB00906B462022D4
:104D20000021200001F082F96B4607330222202186
:104D3000200001F07BF96B4606330322222120007C
:104D400001F074F902B010BD68010020301F00208E
:104D500010B5E6B004007A22FF32002107A805F062
:104D6000EDF807A8FFF7BCFF00F052FD010002229A
:104D70002320684405F0D9F8012207AB5A72184B7A
:104D80001F32502107A801F051F900F03DFD01004C
:104D900002223220684405F0C8F80023114807AA0F
:104DA000D218C15C11760133102BF8D117220E49AD
:104DB0004520684405F0B9F8E17E4023059307AB30
:104DC000049300230393A37E0293193401940123D7
:104DD0000093064A064B074801F0A4F866B010BDE0
:104DE000B8A80000701F002074A500009E6AC421AE
:104DF000818A46EE481F002010B588B00C4B1B7806
:104E0000002B12D006AC2000FFF76AFF07230493A3
:104E1000039409330293074B01935623FF33009306
:104E2000054A064B064800F0FFFF08B010BDC0461B
:104E3000301F002095000020F1C6A7C1D068080FE0
:104E4000481F002010B588B004001F236B44009356
:104E500000230722002101F007FDA38A112B5BD854
:104E6000072B1AD118336B441B78002B54D103AB9A
:104E700030220821200001F037FC062203A9274830
:104E800005F044F8002847D10122254B1A70254B24
:104E900000229A616432DA613EE00D2B1AD112339E
:104EA0006B441B78002B37D103AB60220821200014
:104EB00001F01AFC0C2203A9184805F027F8002875
:104EC0002AD10222164B1A70164B00229A616432C4
:104ED000DA6121E0112B1FD10E336B441B78002BBC
:104EE0001AD003AB80220821200001F0FDFB102224
:104EF00003A90A4805F00AF800280DD10322084B3F
:104F00001A70023A084B1A701F236B441978074B2A
:104F10001970074800F080FF08B010BD701F002016
:104F2000401F002000000020301F0020F903002057
:104F3000481F002030B58BB0040001221F236B44B2
:104F40001A7027256D44009500230732002101F0D7
:104F50008BFC2B78002B02D1FEF768FC03E0012BC1
:104F600001D1FEF777FD08AD07220021280004F0EB
:104F7000E5FF1F236B4401221A703021280001F045
:104F800055F8E17E07230593049500230393A37E40
:104F90000293193401940A230093034A034B0448F3
:104FA00000F0C0FF0BB030BDCDD269EBC51A133B8A
:104FB000481F0020F0B583B001900D4F00243D68DC
:104FC000280004F0C3FF02002900019804F0C5FF87
:104FD000002805D160000619B6000548801904E0D4
:104FE00001340C37132CEAD1002003B0F0BDC046C9
:104FF00030A6000010B51400052808D0072803D0FB
:105000000023032809D105E00B68DB0F05E00B88BE
:10501000DB0B02E00B78DB09FFE7002B05D0082251
:10502000FF21200004F08AFF04E008220021200074
:1050300004F084FF10BDC046F0B5474680B48CB084
:1050400005000C0000222F236B441A7001322E231E
:105050006B441A7000282CD11D0000261E702F23CF
:105060006B4404320021200000F0E0FF2B000322FB
:105070000521200000F0DAFF2F236B4406220821CF
:10508000200000F0D3FF2B0002220E21200000F0B0
:10509000CDFF2F236B4406221021200000F0C6FF15
:1050A0002B0002221621200000F0C0FFE670042031
:1050B000C1E02F236B4405220021200000F0B6FF41
:1050C0002E236B4403220521200000F0AFFF0022B5
:1050D0000023089209936B79012B18D101322D33EB
:1050E0006B441A70A868FEF7CDFB002804DA002292
:1050F0002E236B441A700EE001AEC0B23100FEF7F1
:10510000ABFB7168B07808AAFFF774FF03E00022D8
:105110002E236B441A702A79A96808A804F005FFA9
:1051200008AB40220821200000F080FF2F236B44B1
:1051300005224821200000F079FF2E236B44032232
:105140004D21200000F072FF6B795027012B11D107
:1051500001AEB07808AA05A9FFF74CFF727805A93F
:1051600008A804F0E2FE08AB40225021200000F025
:105170005DFF40372F236B4406223900200000F0EA
:1051800055FFB91D2E236B440222200000F04EFF74
:1051900008239846B8446B79012B13D101AEB0783F
:1051A00008AA04A9FFF726FF727804A908A804F04A
:1051B000BCFE08AB40224146200000F037FF4823E8
:1051C0009846B8442F236B4406224146200000F045
:1051D0002DFF4346991D2E236B440222200000F030
:1051E00025FF464608366B79012B11D101AFB878FF
:1051F00008AA03A9FFF7FEFE7A7803A908A804F01D
:1052000094FE08AB40223100200000F00FFF403632
:10521000F317072018408619F6102F68380004F09D
:1052200095FE0200A019390004F07FFE286804F002
:105230008DFE3618B0B20CB004BC9046F0BDC0462E
:10524000F0B59FB0060076236B44012252421A80CB
:1052500075246C4400222270002000211A901B91BA
:10526000009300230D320021300001F0FDFA00947C
:10527000002303220D21300001F0F6FA23781025D7
:10528000012B08D11AAB00930023402210213000DB
:1052900001F0EAFA4035EB1707271F407F19FF108E
:1052A000B38ADF1BBFB2002316930C22002117A87C
:1052B00004F044FE002F0CDD16ACE7190094002327
:1052C00008222900300001F0CFFA08350134BC4231
:1052D000F4D116AB1B78002B04D016A8FFF76AFE9A
:1052E000040009E076236B441B88122B11D85C0064
:1052F000E3189B00164CE418002C0BD075236B446C
:105300001B78012B06D122791AA9A06804F00DFEA2
:1053100000E0002406AF002506953C22002107A8E6
:1053200004F00CFE39002000FFF786FEF17E0590A8
:1053300004970395B37E0293193601960B230093CD
:10534000044A054B054800F0EDFD1FB0F0BDC04616
:1053500030A60000D5A4D139F922B6A7481F0020F5
:1053600070B58AB004000120FEF7C4FE1F266E440B
:10537000307008AD330008220021280000F056FEEE
:10538000FEF7F0F807AB188010220821280000F083
:105390004DFEFEF797FE30703300082218212800DA
:1053A00000F044FEFEF7D8F8069006AB202220213C
:1053B000280000F03BFEE17E0823059304950023BE
:1053C0000393A37E029319340194C9230093034AE3
:1053D000034B044800F0A6FD0AB070BDF890356E8E
:1053E00069EAFC9A481F0020F0B59BB00C000B7EC8
:1053F000012B0ED1CB8A012B05D10800FFF7A8FCA9
:10540000237E012B05D1E38AC92B0BD12000FFF7A6
:10541000A7FF237E022B05D1E38A012B02D12000B6
:10542000FFF710FDE38A0B2B02D12000FFF708FFE6
:10543000E38A052B39D10022163302A98C46634436
:105440001A700AAB0093002328320021200001F0DB
:105450000BFA5C4B0A9A9A420AD10B9BAC2B07D1F0
:10546000AB3B1B2202A98C4662441370564A137050
:1054700009AD00262E801B2302AA94466344012214
:105480000021280000F0D2FDE17E01230593049560
:105490000396A37E029323001933019305230093FF
:1054A0004A4A4B4B4B4800F03DFDE38A042B2AD17E
:1054B0000AAD00260A963C2200210BA804F03EFD0E
:1054C000454B30220021280000F0B0FD434B302234
:1054D0003021280000F0AAFD414B30226021280035
:1054E00000F0A4FDE17E1223059304950396A37EAC
:1054F000029323001933019304230093394A3A4B52
:10550000344800F00FFDE38A0A2B02D12000FFF798
:1055100011FD364BE28A9A4252D1A38A002B4FD01A
:10552000002307930026324F1B2502AB9C4665449F
:105530000095002308223100200001F095F92A7817
:105540003B789A4234D10799083109AD0095002380
:105550000822200001F088F9079910310AAB009366
:1055600000231022200001F07FF92B78002B02D0BD
:10557000012B12D01CE00AAD288801F09BF81D49D0
:1055800003F098FA03F0B4F880B2FDF789FF1A4BE4
:1055900018802A88194B1A800AE00AAD288801F081
:1055A00089F8FDF791FF144B18802A88134B1A8055
:1055B000330020339EB20796A38ADB009E42B3DB02
:1055C0001BB0F0BD1E1B55CE201F0020F017304A27
:1055D00039059E56481F0020181F0020281F002054
:1055E000381F0020042B31ECA7766FBEF2030000B9
:1055F000E20200200000E144D601002078010020F2
:1056000070B584B01A4800F0FFFC00282ED00026A8
:10561000184D03680093037B6A46137304300290AD
:105620001671012353736846FDF732FE00280CD132
:105630001149012200230C684D6812196B410A6060
:105640004B60013001F040FF10E001220023286888
:10565000696812184B412A606B60054C200000F00D
:10566000DBFC200000F0D0FC0028D2D104B070BDDB
:10567000481F0020181F0020381F002030B585B0BB
:1056800080231B06026813430093027B6B461A7348
:10569000011D01A804F049FC0A49012200230C68FD
:1056A0004D6812196B410A604B6002F0A3F9FA23AE
:1056B0009B0043431A0000236946034800F012FD93
:1056C00005B030BD281F0020481F0020F0B583B072
:1056D0000700204C0025019526002368002B02D1ED
:1056E0006368DB19236033689F4219D9B368984710
:1056F00033687268944663443360EBB2022B0FD177
:10570000FFF7E0FA134C0C23019D5D4396214900FD
:1057100002F0C4FE89B22B599C466144295103E032
:1057200001350C34032DD6D10B4B1B78002B06D042
:105730000A4A3B000A3313600022074B1A70074BDA
:105740001B689F4203D2FDF7F5FAFDF70FFB03B08C
:10575000F0BDC04600000020201F0020441F002094
:1057600010B582B01B4C2000FDF756FA1021200026
:10577000FFF792FA0023184A1360184A1370184B67
:105780001B78002B04D1174A1370174A137002E0DC
:105790000122144B1A700022002314490A604B6046
:1057A00013490A604B6013490A604B60124C002396
:1057B0000193124B0093124B8022120111492000D9
:1057C00000F0FAFA064B1978200000F025FB02B031
:1057D00010BDC046701F0020441F0020201F002065
:1057E000F9030020301F0020401F0020181F002058
:1057F000281F0020381F0020481F0020394A0000C1
:10580000E9530000181700200048704714A7000053
:105810000048704718A70000FEE7C04610B51B4AB5
:105820001B4B9A4203D01A001A4B9A4204D31A4ACD
:105830001A4B9A4210D31EE0194A164B03339B1A97
:105840009B0801339B000022114810498C5884505A
:1058500004329A42FAD1EAE7124A104B03339B1AF8
:105860009B0801339B0000220B4800211418216083
:1058700004329A42FAD10C4AFF210C4B8B439360BD
:1058800004F01EFBFEF7FCFBFEE7C04690A80000FC
:10589000000000202800002028000020C82500204B
:1058A000040000202C00002000ED00E0002000009B
:1058B000F0B55F4656464D464446F0B483B0824646
:1058C0008B46C3690193002B02D10300D9614CE0E0
:1058D0004B68DA00D7081800D90F520D90465B00CC
:1058E000DB0F9946002801DB3B0000E013009C46DB
:1058F000019B00931C0000E01C006268D300DB08E1
:105900001600D50F8D420BD01A00002E00DA9A0C2B
:10591000002827DA904510D06245924155420AE0AE
:10592000BB4205D1920F01252A404D464A4502D17E
:10593000BB429B415D42002D0DD0019BA34205D18E
:105940005B461C6053465A46DA610EE0009B5A469D
:105950001A60146009E023680094002BCCD15B46E8
:10596000236002E09742D7D1F5E703B03CBC9046F4
:105970009946A246AB46F0BDF0B55F4656464D4649
:105980004446F0B485B0029003930E9CCB089C462D
:10599000E3089A460723194023408818814233D0F0
:1059A00007229046009046460E4045461D40321C58
:1059B000AE4200D22A1CD2B20098441A0820821AA1
:1059C000A24200D92200DC085444039881462000FA
:1059D000484401900778C8088146029860444C46C4
:1059E000005DB0400600EE407E40FF200002D04047
:1059F000FF2420402841064077400198077089180D
:105A00009B18009A8A42CED105B03CBC904699467C
:105A1000A246AB46F0BDC0460902484008230749EC
:105A200002B2002A03DA400080B2484001E04000A0
:105A300080B2013BDBB2002BF2D170472110000095
:105A400070B5002A07D00C008D182178FFF7E4FF0D
:105A50000134AC42F9D170BD10B50268002A0BD0F8
:105A600013680360C38801339BB2C38004891100AB
:105A70009C4202D2038100E00021080010BDC04614
:105A800010B54B68002B09D01A68C4681C60C3604D
:105A9000438A013B43824A60131EF5D1CB8A9B0A9D
:105AA0009B02CB820020002110BDC04630B589B0DA
:105AB00004000D0020220021684604F03FFA0495FE
:105AC0002000FFF7C9FF041E03D02022694604F01E
:105AD0002CFA200009B030BDF0B55F4656464D4661
:105AE0004446F0B483B00090884616001A00019333
:105AF000CB8A9B059B0D062B29D0CB8A9B059F0D3E
:105B0000052F13D895B2002D15D032003B0000248C
:105B100010784146C918887601339BB20134A4B28B
:105B2000062B04D00132AC42F2D304E000246B46D1
:105B30009D88A5420CD87B199B059A0D4346DB8AAC
:105B40009B0A9B0213434246D382012081E000243A
:105B50004346D88A8005800D831F9B461C21180070
:105B600002F09CFC8BB29A4643465B68002B06D041
:105B70001D6801229146002D12D11D0017E00098EA
:105B8000FFF76AFF051E55D00023036043465860A7
:105B900000239A466B469F8800239B4636E01D00F3
:105BA0004B4601339BB299462B68002BF7D1019BE2
:105BB0005B4418001C2102F0EBFB013083B24B4523
:105BC000E8D95346002BE5D10098FFF745FF0028A0
:105BD00036D00023036028600500DBE7315DEA185A
:105BE000117101339BB20134A4B21C2B02D0A74225
:105BF000F4D80BE0A74209D90098FFF72DFF002841
:105C000023D05B46036028600500DA46BC4203D21D
:105C100053461B2BE2D9EFE74246D18A8A05920D03
:105C2000BB189B059A0D8B0A9B0213434246D382F5
:105C300001200EE00023424653600320404208E06A
:105C400000232B600320404203E000232B6003204D
:105C5000404203B03CBC90469946A246AB46F0BDDC
:105C6000F0B55F4656464D464446F0B487B00190C5
:105C70000D009346049310AB40CB1F88002A71D0CF
:105C8000002F02D0002E79D16FE0019B0C33180059
:105C9000FFF7E2FE041E6BD01422002104F04EF93F
:105CA0002200083210003A00310004F03EF97B1C5B
:105CB0002374E7195A4613781F2213405F3A13439F
:105CC0003B7280231B061D43656021000198FFF78E
:105CD000EFFD012069E00298FFF7BEFE051E4AD0E5
:105CE0001422002104F02AF9002C5AD16B461B7CA7
:105CF0002B726B461B7D6B72A7420ED90223315D5E
:105D0000EA1811720133DBB20134A4B2062B01D8B8
:105D1000A742F4D8A74204D101E0022301E04022C7
:105D20009046E8185A4612781F210A405146490108
:105D30000A43414611430172039A6A6001332B748E
:105D400029000198FFF7B4FD4B4601331BB2994679
:105D5000012352465A40924600239846A742BAD1A0
:105D6000484622E0022040421FE0022040421CE060
:105D70000320404219E00320404216E0072F84D957
:105D8000049B1B0A05938023984600239A4600240F
:105D90009946019B0C33029380231B060B4303930C
:105DA00099E70023A742AAD8B4E707B03CBC9046C5
:105DB0009946A246AB46F0BDF8B504000D001600AA
:105DC0001F002422002104F0B9F800232370A760EB
:105DD000069B6360079B236272090E4B9A4200D9AF
:105DE0001A0097B221000C311204120C0BD02B00B8
:105DF00050012E181A000B6020331100B342F9D164
:105E000001002039691800230B6027826382A38276
:105E1000F8BDC046FFFF00000378002B03D14BB252
:105E2000002B00DD01707047F0B5574680B484B098
:105E3000029003921D000AAB1C880CAB1F780EABBE
:105E40001E880D9B002B01D1002E57D11F2F58D833
:105E5000029B1878002817D1072E55D8032323401A
:105E60009C4254D12D4D32000D992800FFF7E8FDDA
:105E70002202C0239B0013403F061F43284B1840BB
:105E8000400207432B0024E0230203433F061F4345
:105E9000072E1DD90024214820239A4620235B4247
:105EA000E31802D42900D94006E053461B1B2A0000
:105EB0009A400399E1401143C9B2FFF7ADFD0834A0
:105EC000402CEBD132000D99FFF7BAFD030000E042
:105ED000124B01960D9A00920B9A39000298FFF727
:105EE000BFFE0B9B1B780133DBB21F2B02D80B9A32
:105EF00013700EE000230B9A13700AE00220404258
:105F000007E00220404204E00420404201E0022079
:105F1000404204B004BC9246F0BDC046FFFF000002
:105F2000FE7F0000F0B55F4656464546E0B484B0BB
:105F3000039092461E000CAB1B780EAA10780FAA95
:105F4000177811AA12889046109A002A02D1424668
:105F5000002A49D11F284AD8039A1578002D49D024
:105F6000090280222A431143FD030D431B042B43E6
:105F700005061D434346072B1DD900242148202335
:105F80009B4620235B42E31802D43100D94006E04F
:105F90005B461B1B32009A405146E1401143C9B297
:105FA000FFF73AFD0834402CEBD142461099FFF739
:105FB00047FD030000E0134B42460192109A009205
:105FC0000D9A29000398FFF74BFE012F14D10D9A6B
:105FD00012780132D2B21F2A02D80D990A700BE052
:105FE00000220D990A7007E00220404204E00220DE
:105FF000404201E00420404204B01CBC90469A4656
:10600000A346F0BDFFFF0000C069002801D00430A6
:1060100000E000207047C046C3691A68C261C268C8
:106020001A60C360438A013B43827047F0B585B074
:1060300005000E001F00141C402A00D94024E4B2C1
:10604000002C32D00822002102A803F077FF012C97
:1060500004D13A7802AB1A70012416E0082C03D858
:106060003A7802AB1A700EE0102C03D83A8802ABD3
:106070001A8008E0202C02D83B68029303E03A68BB
:106080007B6802920393630707D0E30802A9CA5C06
:106090006042072738408240CA5400962B002200F5
:1060A000002102A8FFF768FC05E00822002102A8F1
:1060B00003F044FFCDE705B0F0BDC04610B5CB6896
:1060C000002B09D01A68C4681C60C360438A013B76
:1060D0004382CA60131EF5D10023CB608B600B6135
:1060E0008B8210BDF0B55F4656464D464446F0B42F
:1060F00091B080460E00049205930D682B06DB0FCD
:1061000005D02A04D20F93466F047F0E02E00222CC
:1061100093460027002D00DB4BE2C022D2053168F8
:10612000114200D048E2327B002A00D147E25946B2
:10613000022904D041460978B94200D042E27F21C9
:1061400029400391002B03D02B0CDBB2029307E014
:106150002B0A9BB20293690602D1032119400291D6
:106160005B461B047F061F4303998B041F43029861
:106170000743B218D3789946DB099A464CD00022DF
:1061800000230892099300915B46020008A940464B
:106190004468A04700283CD043469C69002C03D0AB
:1061A00023699F420ED116E040460C303900FFF7BC
:1061B0007DFC041E00D11CE2434698610BE023697C
:1061C0009F4208D02468002CF9D10AE243469B691B
:1061D000236043469C61089B0693099B0027CC489B
:1061E00007941C0020235B42FB1802D42100D940F5
:1061F00006E02023DB1B22009A400699F940114358
:10620000C9B2FFF709FC0837402FEBD1079CA082E9
:1062100014E00C2040421EE243469C69002C00D151
:10622000D3E123699F4203D108E023699F4205D04F
:106230002468002CF9D10D2040420CE2A068E168EE
:106240001F274B461F40E37D5B06DB0EFB1A9BB20C
:106250001AB29446002A02DA20331BB29C46ED00A3
:10626000EB0E069303000B4300D1C5E1049A059B96
:10627000121A8B411000002B00D0BDE103D1A54BB9
:10628000984200D9B8E15346002B51D06346012B08
:1062900000DDD0E10EE0E17D4A06D20E01321F237F
:1062A00013409A007C2399430B001343E3750D20A0
:1062B0004042D0E14B465B063AD5049A059BA2606A
:1062C000E36008AD20220021280003F037FE049A85
:1062D000059B08920993331DAB60337B013BDBB216
:1062E000AB826B461B89EB825B462B766F766B46E7
:1062F0001B7EAB766B461B7BEB7643469B68290087
:1063000040469847E17D4A06D20E01321F231A40CB
:1063100092005D3399430B001343E375E38A9B0AB4
:106320009B02E3821B0A7F221340E375002092E167
:106330004B469A06D20FE37DDB099A4200D047E133
:10634000E37D5B06DB0E9F4200D044E15346002B09
:106350003ED04B465B066DD4337B032B00D83DE12A
:10636000049A059BA260E360B51D337B033BDBB25F
:1063700040460C302A002100FFF7AEFB002819DA56
:1063800021004046FFF77CFBE17D4A06D20E013238
:106390001F231A4092005D3399430B001343E375AA
:1063A000E38A9B0A9B02E3821B0A7F221340E37568
:1063B000032050E173791B02327913432383327B2C
:1063C000033AD2B2A08A2900FFF73AFBA082E7E0A5
:1063D0004B465B062ED4351D337B013BDBB240467A
:1063E0000C302A002100FFF777FB002819DA210082
:1063F0004046FFF745FBE17D4A06D20E01321F23DE
:106400001A4092005D3399430B001343E375E38A0E
:106410009B0A9B02E3821B0A7F221340E375032041
:1064200019E1327B013AD2B2A08A2900FFF708FBBA
:10643000A082B5E0317B0139C9B2E28A9205920DA2
:10644000052A1BD844D8002900D1E9E0301D1A32B2
:10645000A2181F239C46A444002325000C0061467B
:10646000AC46057815700133DBB2914239D001306A
:1064700001329C42F5D121006446D1E06368002BD3
:1064800029D01868002807D0062500E018001C3520
:106490000368002BFAD101E018000625521B1B2AC5
:1064A0001CD8002900D1BBE0351D82181B30002309
:1064B000A4460C000100287810710133DBB2914230
:1064C00013D0013501329C42F5D121006446A7E08A
:1064D000002399460CE00023994609E000239946E1
:1064E00006E021009946644602E021009946644690
:1064F000049A059B0892099322001A320A92636853
:106500000B93894508D24B46F318043305E0C04687
:10651000FFFF000080841E00002308AA0C93E38A7A
:106520009B059B0DC91891826B461B89D3825B46E4
:10653000137657766B461B7E93766B461B7BD37622
:1065400000236360327B013A311DA08AFFF778FA9D
:10655000A082238B834203D108A9404683689847D1
:1065600008A94046FFF7AAFDE17D4A06D20E013296
:106570001F231A4092005D3399430B001343E375C8
:10658000E38A9B0A9B02E3821B0A7F221340E37586
:10659000A28A238B9A4201D011205CE000205AE0AD
:1065A000E37D80229A437F210B401343E375002053
:1065B00051E00A2040424EE00A2040424BE00A20CF
:1065C000404248E00B20404245E00D20404242E07E
:1065D0000E2040423FE00F2040423CE0102040426D
:1065E00039E040460C303900FFF760FA041E00D055
:1065F000ECE5032040422EE01F234A4613409A0058
:10660000E37D7C218B4313437F221340E3752100FC
:106610004046FFF735FA5346002B00D04AE63AE6EB
:10662000049A059B0892099323001A330A9363681E
:106630000B93002371E71F234A4613409A00E37D22
:106640007C218B4313437F221340E3752100404696
:10665000FFF716FA2EE611B03CBC90469946A246CA
:10666000AB46F0BD10B5C40FE40760400F4B984235
:1066700005D90133984215D8F823DB0113E0000B4C
:106680000003F021C90402F015FA80235B019C4647
:106690006044F8231B05984201D9F8200005400BFF
:1066A00083B200E0024B200C184310BDFFFF7F7F38
:1066B000FF7F000070B5040040030A4B1840EF2133
:1066C000C90502F0F7F9051C8F21C90502F006F88B
:1066D000002802D0FF23DB051D43E40BE4072C4315
:1066E000200070BD00E0FF0FF0B55F4656464D46F6
:1066F0004446F0B487B082460F0004920393868A22
:10670000F30000208B4200D8A4E05218934202D23A
:106710005B1ADBB204935346DB689846002B00D02B
:106720008DE053461B69002B7DD16FE03023DB1BCE
:1067300004998B46994203D33023DB1BDBB29B4683
:1067400000230093039B5A46390050468068FFF7A8
:1067500013F95F44049B5A469C1AE4B253469E8A3E
:10676000404B9C466644F6005346DB689846002B37
:1067700034D0002C53D0302153460593A2464446D2
:10678000B946B046E02E01D9E023984643465F184B
:106790004F4519D94B46FB1A55469A4502D34B46ED
:1067A000FD1AEDB24B46591A201D5B460093039B20
:1067B0002A00FFF7E1F8A9445B46EB18DBB29B46E1
:1067C00053465D1BEBB29A464346F61A2468002CEA
:1067D00007D039005346002BD3D120E0302399460F
:1067E00005E05446059B9A464B46B9461F00534662
:1067F0001869002813D0002C11D04B46F91A5B46BB
:106800000093039B2200FFF7B7F808E0534698680F
:1068100000230093039B049A3900FFF7ADF86B4601
:106820001020185E16E02F2F00D87FE70AE00D4BEE
:106830009C466644F600049C00239B4699E72F2F54
:10684000F5D873E753461869049C30239946002312
:106850009B46D0E707B03CBC90469946A246AB4663
:10686000F0BDC046FAFFFF1FF0B583B005000F0072
:1068700014001E00002800D1E1E0089B002B00D18D
:10688000E0E0531E3F2B00D9DFE0012A03D1002EA8
:1068900000D1ECE0DCE008220021684603F04EFB6A
:1068A0006B46220039002800FFF71EFF011E00DCA6
:1068B000F2E0630708D0E3086A46D25C604207252D
:1068C000284002416846C254082C08D9102C08D927
:1068D000202C08D9402C00D9BDE0082304E0012376
:1068E00002E0022300E00423002E00D1D1E0DB000F
:1068F000A34200D1CAE0082C0ED86B461878631E5C
:106900000200DA401300DB0755D50122A2405342B2
:1069100003436A4613704EE0102C0ED86B4618885D
:10692000631E0200DA401300DB074CD50122A240AF
:10693000534203436A46138045E0202C0CD8009B49
:10694000621E1800D0400200D20744D50122A240A6
:106950005242134300933EE03F2C00D97EE0009D5D
:106960000198621E21235B42E31803D40200DA403F
:10697000130006E020239B1A06009E402B00D34004
:106980003343DB072CD520235B42E61803D40127D1
:10699000B7403B0004E02026361B0127F7403B00B0
:1069A0000126A6403200002756429F4135430095FC
:1069B0003843019014E06B461B78089A1370080066
:1069C0006AE0102C05D86B461B88089A13800800D3
:1069D00062E0202C04D8089B009A1A6008005BE053
:1069E000402C3ED8089A009B019C1360546008001C
:1069F00052E06B461B78089A137008004CE0082C94
:106A000005D86B461B78089A1370080044E0102CD8
:106A100005D86B461B88089A138008003CE0202CA0
:106A200004D8089B009A1A60080035E0402C1BD857
:106A3000089A009B019C1360546008002CE002201F
:106A4000404229E00220404226E00220404223E06A
:106A50000220404220E0092040421DE0092040423F
:106A60001AE00920404217E00920404214E00822C1
:106A70000021684603F062FA6B46012239002800C3
:106A8000FFF732FE011E00DD15E705E0082C98D85F
:106A900091E7012CB3D1ACE703B0F0BDF0B583B002
:106AA00006000D000193D41CA408A400EFF310838A
:106AB00072B62A4A1768376283F3108821003000C3
:106AC00000F0D8F8EFF3108372B6002839D1326A9B
:106AD0009742F0D13AE0224A1268002A03D083F3A9
:106AE0001088102038E01F4ABA66FE66FD67BC6752
:106AF000B0217A5801327A50B26A511CB162002A30
:106B000003D177623F677F6705E0726A3A67516F2A
:106B100079670F67576709223A63083ABA63019A9F
:106B2000FA640F490A6801320A6083F3108838005A
:106B300000F0D0FD8423F8580EE083F31088102075
:106B40000AE0286083F31088002005E000222A6014
:106B5000019A002AF1D0BEE703B0F0BD502000201A
:106B60004C200020696B000010B5EFF3108372B663
:106B70001B4A846E94422FD1B02282588A422BD174
:106B8000C26E002A28D0174914688C4224D1916A19
:106B9000002921D000218166916A01399162002982
:106BA00001D1516207E0016F446F4C672167546A5D
:106BB000A04200D15162026B092A0DD110217B3213
:106BC000815009490A6801320A6083F3108800F095
:106BD000E1FCEFF3108372B683F3108810BDC0465A
:106BE000696B0000455459424C20002070B50400E8
:106BF00006003436002525700134B442FBD19B08D1
:106C00009B0041608261C3610261426119000839E1
:106C100081600221C160D318191F0860083B1A6007
:106C20001360104B536000230362EFF3108172B6C0
:106C30000D4B03600D4B1B68002B04D10C4B1860EF
:106C4000C062006306E00A4B1B681A6B1863D062CF
:106C50000263C362054A13680133136081F310882D
:106C6000002070BDEEEEFFFF45545942B01F0020DA
:106C7000941F0020F0B5474680B48C46EFF3108493
:106C800072B683688B4203D884F3108800205FE0DB
:106C9000314B1D6805624269C36801330021884693
:106CA0002E4F5168B9421CD14146002902D14261A0
:106CB0000131884611688E1A083EB44525D94E68C0
:106CC000BE4209D10E681660C668013EC6604669BC
:106CD000B14207D1426105E00A68002B06D0013BB2
:106CE00000E012681E00711E8E419B1B84F3108809
:106CF000EFF3108472B6016A8D4203D04269C36813
:106D000001330562002BCCD11FE0002E1DD063465D
:106D1000F31A132B0AD963460833D31819600F49A5
:106D20005960C1680131C160136066465060836874
:106D3000083B9E1B866043699A4201D113684361F8
:106D400084F310880832100002E084F310880020D9
:106D500004BC9046F0BDC04650200020EEEEFFFF80
:106D600010B500F039FB00F061FE00230C4A1360FF
:106D70000C4A13600C4A13600C4A13600C4A1360EF
:106D80000C4A13600C4A13600C4A13600C4A1360DF
:106D90000C4A13600C4A13600C4A136010BDC046C5
:106DA000901F0020A01F0020AC1F00208C1F00207F
:106DB000801F0020A41F0020A81F00209C1F00206F
:106DC000941F0020B01F0020881F0020841F002077
:106DD00010B50E4B1A680E4B9A420AD00D4A0B4B57
:106DE0001A6001F0A5F9FFF7BBFF0B4A13680133E6
:106DF0001360064C074B2360084B1868FDF796F8A4
:106E00000023236001F0DCF910BDC04624000020FF
:106E1000F1F0F0F0F0F0F0F04C200020981F00208E
:106E200010B5EFF3108372B61E4A846E944236D1C9
:106E3000B02282588A4232D1C26E002A2FD01A491B
:106E400014688C422BD1D16A002928D00021816698
:106E5000D16A0139D162002901D1916207E0016F45
:106E6000446F4C672167946AA04200D19162016B24
:106E7000052914D11269002A03D0063184228150D9
:106E800002E00A218422815008490A6801320A601E
:106E900083F3108800F07EFBEFF3108372B683F368
:106EA000108810BD216E0000554555514C20002022
:106EB00070B505001E00030004003C34002018706B
:106EC0000133A342FBD16960AA60940021000498B9
:106ED00001F05EFAAE6144433419EC612E626E62D9
:106EE0006861E860EFF3108172B60D4B2B600D4BBB
:106EF0001B68002B04D10C4B1D602D636D6306E0F5
:106F0000094B1B685A6B5D6315636A632B63054A03
:106F100013680133136081F31088002070BDC046F0
:106F2000554555518C1F0020AC1F0020F0B5474639
:106F300080B4EFF3108572B6C46A0369002B00D1E8
:106F4000B6E0002C24D1036A86681F1D1B680B6005
:106F5000012E0ED9731E002B0BD03A00043110CA3B
:106F600010C1013B002BFAD16F4B9C466644B60022
:106F7000BF19C3699F4200D1876907624369013322
:106F800043610369013B036185F310880020C8E079
:106F9000876A8023FB58012B2AD1FA6F8368166811
:106FA0000E60012B09D9013B002B06D004320431BD
:106FB00040CA40C1013B002BFAD1013C002C02D158
:106FC0000023836204E03B6F83627A6F5A67136722
:106FD000C4620023BB668422BB50544A1368013349
:106FE000136085F31088380000F0D4FA002098E090
:106FF000036A826894461A1D90461B680B606346BC
:10700000012B0CD9013B002B09D0043140CA40C1EF
:10701000013B002BFAD1444B63449B009844C36965
:10702000984501D183699846434603623F4B1A68ED
:1070300001321A601A68013A1A60FA6F436A876867
:10704000191D8C4611681960012F0ED97B1E002B6B
:107050000BD00432614640CA40C1013B002BFAD13B
:10706000314B98464744BF00BC44C3699C4501D19D
:1070700083699C4663464362836A013C002C02D1CB
:107080000022826204E01A6F8262596F51670A67B8
:10709000C46200229A6684215A5024490A68013247
:1070A0000A6085F31088180000F074FA002038E0B8
:1070B000002A33D01D4B1B68002B03D085F31088AA
:1070C0000A202EE01A4B1E681A4BB366F066F16771
:1070D00000218023F150B031735801337350002CDC
:1070E00003D186623667766705E0836A3367596F36
:1070F00071670E675E670134C46205233363043B26
:10710000B363F264094A13680133136085F310888E
:10711000300000F0DFFA8423F05802E085F3108895
:107120000A2004BC9046F0BDFFFFFF3F4C2000202A
:1071300050200020216E0000F8B50400EFF3108607
:1071400072B6C56A4369002B5DD0002D28D1013B82
:107150004361036901330361436A85681F1D0A683F
:107160001A60012D0ED96B1E002B0BD004313A0092
:1071700001C901C2013B002BFAD1464B9C46654434
:10718000AD007F19E3699F4200D1A7696762A36BD5
:1071900086F31088002B79D020009847002078E0F3
:1071A000806A013D002D02D10023A36206E0036F37
:1071B000A362036FA362426F5A671367E5620023FD
:1071C0008366C26FA3680D681560012B09D9013B66
:1071D000002B06D00431043220C920C2013B002B11
:1071E000FAD100228423C250A56B2B4A13680133C5
:1071F000136086F3108800F0CDF9002D48D02000F0
:10720000A847002045E0002A3CD0234B1B68002BF8
:1072100003D086F310880B203BE0204B1F68204BE7
:10722000BB66F866F96700218023F950B0317B58BE
:1072300001337B50002D03D187623F677F6705E0F4
:10724000836A3B67596F79670F675F670135E5624E
:1072500005233B63A56B043BBB63FA640E4A1368CA
:107260000133136086F31088380000F033FA84236A
:10727000FB58002B03D1002D01D02000A847842308
:10728000F85806E086F310880B2002E0002000E0AA
:107290000020F8BDFFFFFF3F4C20002050200020C1
:1072A000216E0000F8B505009C46069F079E002E43
:1072B00006D03800BC19EF23037001308442FBD1A3
:1072C0002B00B43328000024047001308342FBD12A
:1072D000A9626A646346AB64EF606E61089BEB620F
:1072E0009423089AEA500A9BAB61EB6120229C230D
:1072F000EA50013EBF192F61099BEB639823099A5D
:10730000EA50953B2B632B4B6B65AD652A492800F2
:1073100000F0B6FFEFF3108172B6284B2B60284BBC
:107320001B68002B06D1274B1D608823ED500433CA
:10733000ED5008E0234B1B688C229C589D50882000
:107340002550AC502B501E4A1368013313601E4A5F
:107350001368013313600B9B012B1CD1EFF30583E2
:107360001A4A126813431A4A934207D9194B1C68E8
:10737000002C06D0E66BE36AE36303E000260024FA
:1073800000E0002681F31088280000F003F9002CAB
:107390000ED0E6630CE081F31088EFF3108372B631
:1073A00009490A68013A0A6083F3108800F0D2F8AC
:1073B0000020F8BDBD7900005974000044524854C3
:1073C000442000203C2000204C20002024000020ED
:1073D000EFF0F0F0542000200023144A1360144A08
:1073E0001360144A137053709370D370124A137061
:1073F00053709370D3702022104B1A60104B1900F9
:10740000803100221A7001338B42FBD100230D4AD8
:1074100013600D4A13600D4A13600D4A13600D4A44
:1074200080235B0411680B431360704750200020D9
:1074300054200020382000205C200020582000200C
:10744000B41F00203C200020442000204C200020BD
:10745000342000204020002070B5184B1C68EFF34A
:10746000108372B6AC22A25883F31088002A02D08F
:10747000002120009047A06C636C9847104B1B685C
:10748000002B01D020009847EFF3108372B6AC2296
:10749000A558AB3A2263A2630022E26409490A6854
:1074A00001320A6083F31088002D02D001212000F0
:1074B000A847200000F00EF970BDC0465020002003
:1074C000342000204C20002070B5EFF3108172B6FC
:1074D0001C4B1C68002C03D181F3108813202FE073
:1074E000EFF30583184A1268134303D081F3108821
:1074F000132025E0154B9C4203D181F31088132003
:107500001EE0002802D181F3108819E0104B1B689F
:10751000002B03D081F31088132011E00423236390
:10752000033BA363842500236351E064084A136886
:107530000133136081F31088200000F0CBF860590C
:1075400070BDC0465020002024000020F420002000
:107550004C2000200B4B1B68002B12D10A4B1A68E1
:107560000A4B1B689A420CD080225205084B1A60C5
:10757000EFF30583002B04D1EFF3108362B683F39E
:10758000108870474C2000205020002054200020FC
:1075900004ED00E070B50400EFF3108572B6436EA1
:1075A000002B03D04C3000F0D7FA01E00023C36475
:1075B000404A1368013B1360A36B002B52D1236B2D
:1075C000002B5DD0636B002B47D12363E26A9100EF
:1075D000394BCB58002B3AD10B0037495C50246211
:1075E0006462364901239340086803430B60344BBF
:1075F0001B689A4244D2324B1A60324B1B68002BF4
:1076000002D1304B1C603BE0D96B8A4238D2DB6A36
:10761000994206D02C4901229A4013000A6813436C
:107620000B60284B1C6085F31088224B1B68002BD5
:107630003FD180225205254B1A60EFF30583002BC2
:1076400037D1EFF3108362B683F3108831E05A6AC2
:1076500014625C626262236212E00023636303339C
:1076600023630DE0236B013B012B09D9636B002BD6
:1076700002D1A363236303E0002363630333236323
:10768000134B1A6885F310880E4B1B689A4210D072
:10769000084B1B68002B0CD1802252050B4B1A6043
:1076A000EFF30583002B04D1EFF3108362B683F36D
:1076B000108870BD4C200020B41F0020382000200E
:1076C00058200020542000205C20002004ED00E021
:1076D0005020002070B50400954B1D68EFF3108614
:1076E00072B685420AD1EB6C013B033303D8280004
:1076F0004C3000F007FA8F4BEA691A608E4A136823
:10770000013B1360A36B012B00D0F9E00023A363BE
:10771000E16A236A9C4213D0626A5A6213628A0049
:1077200086481258944274D18A001350844B1B68C7
:10773000002B6ED001228A409343814A136068E097
:107740008A0000207D4BD05001238B40DB437D49D4
:107750000A681A400A607A490968002902D00B4079
:1077600077490B60002A1BD12032774B1A60002228
:10777000764B1A6086F310886F4B1B68002B00D085
:10778000D5E080225205724B1A60EFF30583002B7F
:1077900000D0CCE0EFF3108362B683F31088C6E02C
:1077A00053421A400F2A07D80023032A01D992080E
:1077B00002335208D2182AE0FF2A08D812090423FB
:1077C000032A01D9920802335208D2181FE0614BF4
:1077D0009A420CD8120A08230F2A01D9120904333D
:1077E000032A01D9920802335208D2180FE0120C72
:1077F0001023FF2A01D9120A08330F2A01D91209CE
:107800000433032A01D9920802335208D2184E4B8E
:107810001A604E4B1B689C4272D14B4B1B689B00FD
:10782000464A9A58494B1A60454B1B68002B53D067
:10783000414B1A6801321A6086F31088EFF3108604
:1078400072B61A68013A1A603D4B19684B420B40F8
:107850000F2B07D80022032B01D99B0802325B08AB
:107860009B182AE0FF2B08D81B090422032B01D9FF
:107870009B0802325B089B181FE0364A93420CD8E3
:107880001B0A08220F2B01D91B090432032B01D933
:107890009B0802325B089B180FE01B0C1022FF2B89
:1078A00001D91B0A08320F2B01D91B090432032B03
:1078B00001D99B0802325B089B189A001F48125896
:1078C00021480068D46B844206D820480260012217
:1078D0009A4091431A4B196086F31088164B1B6827
:1078E000002B24D180225205194B1A60EFF3058337
:1078F000002B1CD1EFF3108362B683F3108816E0DF
:1079000086F31088114B1B689D4210D00A4B1B68F0
:10791000002B0CD1802252050D4B1A60EFF305832A
:10792000002B04D1EFF3108362B683F3108870BD8F
:1079300050200020E82000204C200020B41F002010
:107940005C200020382000205820002054200020F7
:1079500004ED00E0FFFF000010B5124B1B68EFF3D1
:10796000108272B6002010490860002B16D0196BE7
:10797000002913D1D96999610C480160186A8342C2
:107980000CD0D96ADB6B994208D1094C89000851A7
:10799000084B1B689B001959074B196082F310882C
:1079A00010BDC04650200020C0250020E820002047
:1079B000B41F0020582000205420002010B5EFF301
:1079C000108272B6036B042B08D109490B6801338E
:1079D0000B6082F31088FFF7DDFD07E0836EB021B6
:1079E000415882F31088002B00D0984710BDC04644
:1079F0004C200020EFF3108372B6024A106883F324
:107A000010887047C425002010B5EFF3108372B6BC
:107A100004490A6801320A6083F310880248FFF7BC
:107A2000B9FD10BD4C200020F420002070B586B0B8
:107A30000023214A1360214A1360214A1360214A1E
:107A40001360214A1360214B1900803100221A7003
:107A500001338B42FBD11D4B1D4A13601D4A13603D
:107A600080331D4A13601D4A1D4B1A608022D200CC
:107A70001C4B1A6000221C4B1A601E001B4D1C4C34
:107A8000336800220592049203930293154B1B68FE
:107A90000193134B1B680093164B2A0021001648D4
:107AA000FFF700FC0028EBD10023144A1360144AAE
:107AB000136006B070BDC046C4250020E820002039
:107AC000C0250020E4200020A82100206420002000
:107AD000AC21002060200020F0200020B8210020F0
